:10000000A8190020C121000077640000AD21000084
:10001000AD210000AD210000AD210000AD210000A8
:100020000000000000000000000000006D23000040
:10003000AD210000000000002D230000AD210000D4
:10004000D5240000D5240000D5240000D5240000CC
:10005000D5240000D5240000D5240000D5240000BC
:10006000D5240000D5240000D5240000D5240000AC
:10007000D5240000D5240000D5240000D52400009C
:10047C0053B94AB9002908BF00281CBF4FF0FF31FF
:10048C004FF0FF3000F00CB8ADF1080C6DE904CE64
:10049C0000F010F8DDF804E0DDE9022304B0704749
:1004AC00704700BF034613F8012B002AFBD1181A22
:1004BC00013870472DE9F04786468C460846089E61
:1004CC00154674461946002B40F0C1808542B2FA9D
:1004DC0082F245D94AB1C2F1200300FA02FC9540E0
:1004EC0094402EFA03F343EA0C0C4FEA154EA8B2D3
:1004FC00230CBCFBFEF80EFB18CC08FB00F943EAFE
:10050C000C43994528D9EB1808F1FF3704D29945CB
:10051C0002D9A8F102072B44A3EB0903A4B2B3FB45
:10052C00FEFC0EFB1C330CFB00F044EA0344A0421F
:10053C0014D92C190CF1FF3304D2A04202D9ACF11E
:10054C0002032C44241A43EA07401EB1D440002372
:10055C0034607360BDE8F0874746DDE76346F1E73A
:10056C0092BB431B01214FEA154EAFB2200CB3FBDB
:10057C00FEFC0EFB1C330CFB07F840EA03439845CA
:10058C0061D9EB180CF1FF3004D2984502D9ACF1CB
:10059C0002002B44A3EB0803A4B2B3FBFEFC0EFB3E
:1005AC001C330CFB07F744EA0344A7424DD92C1922
:1005BC000CF1FF3304D2A74202D9ACF102032C4454
:1005CC00E41B43EA0040C0E7C2F12003954094408D
:1005DC0020FA03F12EFA03F34FEA154E9040AFB216
:1005EC000343B1FBFEFC0EFB1C10190C0CFB07F8B3
:1005FC0041EA0041884522D969180CF1FF3004D238
:10060C00884502D9ACF102002944A1EB08019BB248
:10061C00B1FBFEFC0EFB1C110CFB07F743EA01437C
:10062C009F420ED9EB180CF1FF3104D29F4202D934
:10063C00ACF102012B44DB1B41EA004193E760461D
:10064C00E3E76146F7E76046A4E76346B8E7834211
:10065C0006D916B9002108467CE7C6E900E0F9E79F
:10066C00B3FA83F78FB9834201D3724508D8BEEB36
:10067C00020460EB030301209C461EB9002169E7CC
:10068C003846FAE7C6E9004CF8E7C7F1200CBB4046
:10069C000EFA07F522FA0CF42EFA0CF1BA401C43B0
:1006AC0020FA0CF3B8404FEA144901431FFA84FEB8
:1006BC00B3FBF9F809FB18300B0C08FB0EFA43EAF4
:1006CC0000439A4540D9E31808F1FF3004D29A450B
:1006DC0002D9A8F102002344A3EB0A0389B2B3FBAD
:1006EC00F9F809FB183308FB0EFE41EA03418E456D
:1006FC002CD9611808F1FF3304D28E4502D9A8F128
:10070C000203214443EA0040A1EB0E01A0FB029836
:10071C004145CE46434602D306D14D4504D201385D
:10072C00B9EB020E68EB0403002EA7D0B5EB0E025A
:10073C0061EB030101FA0CFC22FA07F3F9404CEAD5
:10074C000303C6E9003199E74046C5E74346D9E7BC
:10075C0080B500AF8AB06A46094B5361094B93616F
:10076C00094BD361094B1362094B42F8103F00232C
:10077C004FF42351074800F087FF0020BD4680BD91
:10078C00107A0000167A00002A7A00000002010399
:10079C0004000002747700002DE9F04F91B0009333
:1007AC0002F004030293C2F3C2030133840705462B
:1007BC000E46DDF868900392059340F0BB81041D52
:1007CC0030B1072909D86FF01B0011B0BDE8F08FCC
:1007DC0001F00706341DC6F10806009B4FF0000817
:1007EC004FF0040A591E4FF0FF3347460193C3469E
:1007FC005346CDF810800DB1009A22600598002860
:10080C0000F3E8809848009A824203D397488242CA
:10081C00C0F0E080039AA4EB050E92074FEA9E000D
:10082C0000F103810F2F00F2B180002D00F0058143
:10083C0007F140020DEB020C019A0CF8200C0CF89D
:10084C00102C049801300490E7E07A285DD84B28EE
:10085C000ED8472859D829282DD8252852D054D815
:10086C0020287AD02338D0F1000B4BEB000B74E02E
:10087C004C382E2849D8DFE800F0704848484848E2
:10088C004848484848484B484848484848484859C8
:10089C00484B4B595959704B6D487048184B184878
:1008AC0048827F4B48484B487F0000204FF0000B9C
:1008BC004FF0040A38E001222A38C0B202FA00F0E4
:1008CC0010EA0E0F49D110F0625C2FD110EA020B26
:1008DC0043D06046013C5444B4FBFAF40AFB04F4E4
:1008EC00002D61D0A3EB050CA444B4453FF66BAFCF
:1008FC00002868D1042B47D159F8043B236004230A
:10090C0004342AE0019A013A01924FF0000B24E0E2
:10091C0011F8010C6C2834D1002011F8023C8346EC
:10092C006C2BC5D14FF0080A5346D3E709F10709E0
:10093C0029F00709073424F00704F9E802AB35B1B4
:10094C0006982044B0423FF63EAFC4E900AB4FF0EE
:10095C00000B08344FF0080A534611F8010F002819
:10096C0078D0BBF1000F7FF470AF2528F5D14FF094
:10097C00010B019B013301934FF0040AECE758463D
:10098C0094E700208346A5E7082B02D06FF01500F2
:10099C001BE709F1070929F00709F9E80223C4E963
:1009AC00002308230834D8E768B9042B02D109F1D5
:1009BC000409A4E7082BE9D109F1070929F0070973
:1009CC0009F10809EDE7059A013A059259F8042B4B
:1009DC00009210E7039A900720D54FF0010CA4EB7E
:1009EC00050E4FEA9E00BEF5007FCFD20F2FCDD85B
:1009FC00F5B107F140020DEB020E019AC0B20EF8F0
:100A0C00200C0EF8102CBCF1000F3FF41AAF60F064
:100A1C007F000EF8200C08F101080137C5F108021F
:100A2C004FF6DA7E0434069297E74FF0000CDAE7C3
:100A3C00BCF1000F01D00136EFE702980236002816
:100A4C00EBD10098CDE90631FFF72CFDDDE906313D
:100A5C000644E2E7631BB3F5806F97D245B9A6F164
:100A6C000804E018B1E600BFFC6D0000C482000071
:100A7C00029A9B0828602B709DF81030C2B1EB7065
:100A8C0085F80280B8F1000F05D0002208A8C5F146
:100A9C00010C97420ED14FF0000AC5F101030DF184
:100AAC00200901930DF1300B574512D1601B8CE6D8
:100ABC006B70E5E710F8013B190608D504EB0C0E3A
:100ACC00B64503F07F033FF67EAE04F8013B0132DE
:100ADC00DFE7B8F1000F03D099F90020002A17DBEB
:100AEC00029BD3B11AF80B2004F8012B0022019BB6
:100AFC0098182044B0423FF666AE99F80000009971
:100B0C0004F8010B2046039206F0E9F8039A14440A
:100B1C000AF1010A09F10109C6E799F8002055F814
:100B2C0022300093029B009845F82230FFF7BAFC64
:100B3C00421CDCE76FF00D0047E600BF2DE9F04FDB
:100B4C0097B000AFD7F880B03B62CBF3C00304463C
:100B5C00894690F802A0FA62BB6141B945780078E9
:100B6C000AEB800020444D4517D8A0EB0409E3782C
:100B7C00FB61BAF1000F02D01BF0010F16D1FB691B
:100B8C0053BBFB6A1BB1494620463A6A98474D460F
:100B9C0028465C37BD46BDE8F08F461C3046FFF753
:100BAC0081FC0130304409F10109DCE762682378EB
:100BBC007A62FA6A9900796104EB8301002A40F0A9
:100BCC0001810E464FF000084D4601EB0A094E45D7
:100BDC004CD101EB0A0610E01BF0020FD1D02378A8
:100BEC009A007A61626804EB83017A62FA6A002ADD
:100BFC0077D14D46904601EB0A061BF0050F0CBF52
:100C0C0002230123FB62FB6906EB430A0BF0020390
:100C1C00BB625645BCD016F8021B16F8013C54F8C2
:100C2C002390AF4B994502D3AE4B994536D3BB6954
:100C3C00002B40D0786A04F051FF00283BD0E946E5
:100C4C008AB06A46A84B53617B6AC2E906314FF4FD
:100C5C0000731384A54B42F8103F00234FF412513C
:100C6C00A34800F011FD023DCD46D2E716F8013B3A
:100C7C00F96254F82300FFF715FCD7F88430F96AB1
:100C8C0001304BB1D7F8883098453EBFD7F8843047
:100C9C0023F8180008F10108054498E7BB6923B153
:100CAC00786A04F01BFF0028C9D11BF0010F05D195
:100CBC00FB6AED1AADE7BB6A002BAAD04846FFF7DA
:100CCC00F1FBD7F8843053B1D7F8883098453FBF43
:100CDC00D7F88420431C22F8183008F10108054489
:100CEC0097E7BAF1000F73D01BF0040673D0D0460F
:100CFC00002607F1480052463B61B96205F0EFFF50
:100D0C00B96A3B6901EB0A02BA62FA69F9695200E5
:100D1C00FA60BA6A02EB41023A610BF00202BA6065
:100D2C003A69B96A8A4258D162781BF0020F18BF2F
:100D3C0000217A6208BF4FEA5801B2181BF0010F6C
:100D4C00D2B240F09F801BF0040F14BF404600202D
:100D5C00BB616270A070E17020463A6A7969FB6AE7
:100D6C009847051EFFF614AFBB69414623707B6A9A
:100D7C003A6A6370FB6984F802A0E37007F14800DB
:100D8C00FB6A9847B0F10008C0F2B4807B69A9EB0C
:100D9C000A01C91AFB683A6AC91AD7E90A039847C3
:100DAC000028C0F2A9804FF0000BA84408EB000506
:100DBC0007F1380AB34567D300213A6A0846FB6A43
:100DCC009847E5E656464FF0000807F1380092E7E1
:100DDC005646D04696E7B04694E7BA6A12F8021B1C
:100DEC0012F8015CBA6254F825003D4A904202D3D5
:100DFC003C4A90421ED3BA6932B1786A7B6004F0E7
:100E0C006DFE7B6800288BD1BA6802BB08F1280202
:100E1C0007F1300C08F10100944407F1580208F175
:100E2C00020852FA80F00CF8101C5FFA88F800F8EF
:100E3C00105C75E7BA693AB1786A7B6004F04EFED3
:100E4C007B6800287FF46CAF1BF0010F09D006F112
:100E5C00280207F13000711C161806F8205CCEB27F
:100E6C005EE71BF0040F3FF45BAF08F1280207F1BB
:100E7C00300008F1010102EB000808F8105C5FFA81
:100E8C0081F84DE7002063E71BF80A3054F82390F3
:100E9C0087F83730D7F88430FBB133F81B80012149
:100EAC003A6AFB6A07F137009847002824DB0544AF
:100EBC00B8F1000F06D14846FFF7F4FA00F101082B
:100ECC001FFA88F8414648463A6AFB6A9847002858
:100EDC0012DB05440BF1010B6CE7D7F88480DEE7DD
:100EEC00FC6D0000C48200004A7A0000040000017E
:100EFC004C77000045464BE6054649E6014B186029
:100F0C00704700BF0000002080B505460E4617460E
:100F1C00984603F0BBFF034605F060FF0446DFF87C
:100F2C001890424649F8003039463046A84754F8E4
:100F3C00090001F0A7F900BF080000002DE9F047F7
:100F4C00058B04462807904611D4022905F00705A5
:100F5C0040F0CC80204605F055F878B10138218B53
:100F6C00042811D8DFE800F0C2106D859500012926
:100F7C000CBF45F0100545F02005258388F311883A
:100F8C00BFF36F8FBDE8F08701F0070AAA4500F0A8
:100F9C00A5800027B9463E46A368002B00F0BC8014
:100FAC0041F00801218388F31188BFF36F8FA1688A
:100FBC00002900F0BA800D68002900F0B680334695
:100FCC0052462046D1F80480C047002D76D02B68BD
:100FDC0029461D46F0E701F007035A1F012A1BD8CA
:100FEC00002221F00701062B276889B2C4E90022F0
:100FFC0009D13B4603E0628B013262831B68002BF4
:10100C00F9D141F002012046218304F0FBFF0028B6
:10101C007AD041F0200176E0042B0AD121F00701AF
:10102C0089B22046218304F0EDFF10B141F020017C
:10103C002183218B01F0070AAA454FD00027B9461E
:10104C00AAE7236921F0070141F00601062DD3F828
:10105C00009021832DD1B9F1000F3FD041F0080150
:10106C00218388F31188BFF36F8F20463949C84715
:10107C0029E021F00701236941F0040189B2042D14
:10108C00D3F804902183E6D000274FF0040A3E46A3
:10109C0082E721F00701236941F0050189B2052D92
:1010AC00D3F808902183D6D000274FF0050A3E468E
:1010BC0072E700274FF0060A3E466DE72B4687E79E
:1010CC00B9F1000FD1D1EFF31188202383F31288EB
:1010DC00BFF36F8F238B23F008032383258BEA0642
:1010EC002ED525F01003238305F007056669218BA7
:1010FC00002EBFF670AF00232768C4E9003321F03F
:10110C00070141F001012183218B4FF0000901F00F
:10111C00070AAA457FF440AF002F9CD041F008018C
:10112C00218388F31188BFF36F8F002FC8D03D68DF
:10113C00394633465246204604F090FF2F46F4E7DA
:10114C00AB067FF51BAF25F02003238305F00705C5
:10115C0000E700BF956000002DE9F0470446074604
:10116C004FF00109DFF8508014B93846BDE8F0871C
:10117C0094FAA4F5B5FA85F509FA05F32E0108EBF6
:10118C0005156FEA030A24EA03042B7B002BEBD032
:10119C0058F806301B694BB946447368042228463C
:1011AC00196807EA0A0700F05BFADDE7284698475A
:1011BC000028D9D1F0E700BFA477000030B5002299
:1011CC0089B00F490F4805F062FD0022002300246E
:1011DC00CDE906230E230C4DCDE903344FF44072B8
:1011EC002846CDE90144094B0949009403F0C2FBA0
:1011FC000849284605F03DFC204609B030BD00BF2B
:10120C002512000048060020C00100201115000026
:10121C0068090020FE7A0000014803F023BB00BFE0
:10122C00AC0100202DE9F04780461F480F4604F022
:10123C00D5FF0646002830D000252846BDE8F087AB
:10124C00237B6BB12368DB680BB12046984723687E
:10125C001B69D3B9636804222046196800F000FAB0
:10126C00013610344C45EBD3B8F1000FE5D0002D0E
:10127C00E2D02846FFF770FF0546002FF7D000217B
:10128C0040F2391003F0E2FDF1E7204698470028C0
:10129C00E0D00AFA06F31D43E2E705464FF0010AD7
:1012AC00024CDFF80C90DDE738080020A477000032
:1012BC00B4770000014B53F8200070470C78000005
:1012CC0008B5034608462BB1044A136000F072FCC3
:1012DC00002008BD6FF01500FBE700BF04000020E4
:1012EC0010B5044C237813B9034803F0BBFA01235F
:1012FC00237010BD60090020AC01002010B504461D
:10130C00094804F06BFF3CB1084BD3E8EF1F0139DF
:10131C00C3E8E21F002AF8D1054805F0C4FCBDE87B
:10132C001040044803F09EBA300800203408002016
:10133C0048060020AC01002000200146034BD3E8F6
:10134C00EF0FC3E8E21F002AF9D1704730080020E4
:10135C0070B5FFF7F1FF0546074C084EB44200D3B9
:10136C0070BD63685B792BB123685B6813B1294648
:10137C00204698471034F1E7A4770000B4770000BA
:10138C0010B5044C0449204604F0D8FC034B1C60F7
:10139C0010BD00BF70010020F87700002808002065
:1013AC0008B50023064A07491370074A074813601B
:1013BC00074A1360FFF784FFBDE80840FFF7E0BF62
:1013CC006109002040420F0030080020E561000058
:1013DC0034080020014600220023014804F0CFBC51
:1013EC0070010020014804F065BD00BF70010020B1
:1013FC00024B0146186804F0B1BD00BF280800205C
:10140C00014804F0E6BD00BF7001002070B5264B0A
:10141C001878002847D0FFF7E5FF054670B1234B3D
:10142C00D3E8EF1F0139C3E8E21F002AF8D1204CA2
:10143C00204EB4422DD32846FFF7DAFF1E4B1F4C2B
:10144C001B68002B19DD05F020FC4FF47A75A0FB0E
:10145C00050647F61222002305FB0161FFF708F889
:10146C00D4E90032C01A40F2E93361EB0201984230
:10147C0071F1000101D3FFF76BFFD4E9003213F5D2
:10148C007A7342F10002C4E90032BDE87040FFF704
:10149C00B7BF63685B7923B12368294620461B6874
:1014AC0098471034C5E770BD60090020340800204F
:1014BC00A4770000B477000030080020400600201C
:1014CC0070B50D4D297861B90120FFF7ABFE0B4CBF
:1014DC000B4EB44206D3FFF799FF0028FBD1012332
:1014EC002B7070BD63685B791BB1236820469B68C9
:1014FC0098471034EDE700BF61090020A477000085
:10150C00B477000000212DE9F0470846FFF78AFE6A
:10151C00044658B340F21B684FF0000905F05EFC1E
:10152C001B4B1C4A1B58136033B11B4B1B68092BFC
:10153C0002DD1A4803F096F90025194FDFF85CA07C
:10154C0044B12046FFF708FE044618B94FF0FF38A7
:10155C004FF0FF39FFF75AFF064628B9B5B9424696
:10156C004B46504603F0A2F93546E9E74FF0FF38F9
:10157C004FF0FF39D2E72B689B691BB1002228463C
:10158C00114698471035BD42F5D3E8E7054DFAE70B
:10159C00080000002C08002034080020AC010020BA
:1015AC00B4770000A477000013B5184804F016FEB9
:1015BC00174B1B7873B1EFF31184202383F312883C
:1015CC00BFF36F8FFFF722FF84F31188BFF36F8F88
:1015DC0002B010BD0F4B1B68002BF9D050B9002284
:1015EC0000230D48CDE9002347F61222002303F017
:1015FC00A3FEEDE70928EBD1074805F054FB07489B
:10160C0002B0BDE8104003F02DB900BF3408002033
:10161C00610900202C08002048060020AC010020A5
:10162C0010B5064B04461B6898472146A060044839
:10163C0004F021FCBDE81040FFF7B6BF0400002009
:10164C0070010020044A054B9B1AB1EBD30F34BF39
:10165C0052F831000020704744770000A477000056
:10166C00084B10B4C31A44681B110133237143682F
:10167C009A7101224368196043685A7110BCFFF7D4
:10168C002FBE00BFA47700002DE9F04F8FB0C1F33F
:10169C004A2804AF0D469146B8607B600C0DB8F13A
:1016AC00000F63D000264FF0040B4FF00A0A07F12D
:1016BC001403C7F80C80C7E907667E620193CDF866
:1016CC0008B0CDF800A007F11C0332464846F96873
:1016DC00FFF734FAB0F5006F03461CD36C468AB0A2
:1016EC00D9F8041004AB26481A46C3E9050140F2A8
:1016FC00FF71D9614FF400711984224B42F8103FED
:10170C004FF4125133462048FFF7BEFFA5462C3745
:10171C00BD46BDE8F08FC0F30A0804F11700184469
:10172C0020F0070080083B60FFF754FE68F3532558
:10173C00044690B13B6800F11001C7E9083607F187
:10174C001403F961CDE900A3CDF808B048460F4A5F
:10175C00F96807F11C03FFF7F1F968F353252A46E2
:10176C0020467B68B96804F06BFDD0E704F11700E4
:10177C0020F007008008FFF72DFE0446EDE700BFC0
:10178C00137B0000040000015C7700002162000064
:10179C002DE9F04F87B00446DDE9105ADDE91279E6
:1017AC00934698460391BFB13B4652461021002008
:1017BC00CDF80090CDF81490FEF7EEFFB0F5006F69
:1017CC0006460AD340F2FF730221174A174807B0A6
:1017DC00BDE8F04F04F08DBD3E4605F117003044D6
:1017EC0020F007008008FFF7F5FD04F007040BF06C
:1017FC00070BE40044EA8B1444EA462444EA0554FB
:10180C00054640B13FB13B4652463146CDF80090BB
:10181C001030FEF7C1FF434622462846039907B015
:10182C00BDE8F04F04F00CBD527B00005C7700006B
:10183C00406820B1034BC01A40F3CF0070474FF003
:10184C00FF307047447700000EB403B503AB53F878
:10185C00042B01460448019301F06AF802B05DF8CC
:10186C0004EB03B0704700BF49630000CA0605D4FF
:10187C008B064CBF02490349FFF7E6BF704700BF18
:10188C008B7B00008A7B00002DE9F04F89B09B46D2
:10189C00149B9DF84CA00693159B04460593169B30
:1018AC000D469046179E0493BAF1000F00F09D80F0
:1018BC0006F48073079304F0ABFC06F002090246B1
:1018CC0000283ED020469149FFF7BEFF0746B9F1EC
:1018DC00000F08D016F0440F35D12A4620468C490B
:1018EC00FFF7B2FF074406F0010353B1894B2046C2
:1018FC0053F82A20884B8949002A08BF1A46FFF75B
:10190C00A3FF06F48073002B49D006F00803002BCC
:10191C0063D1B8F1000F66D0424620468049FFF7EC
:10192C0093FF0546069B3D44002B6DD1049B002B79
:10193C0073D1F30700F1E48031462046FFF796FFA0
:10194C00D8E00746C3E7774B18680028CAD0764B17
:10195C004FF47A791B684FF46161B5FBF3F5B5FB75
:10196C00F0F300FB135509FB05F5B3FBF1F2B5FBE6
:10197C00F0FE4FF03C0C01FB123100FB1E55B1FB8D
:10198C00FCF309FB05F5B5FBF0F50CFB1311204638
:10199C000091CDE901E56549FFF756FFA2E706F096
:1019AC000803EBB1624B204653F82A206149FFF73C
:1019BC004BFF0546B8F1000F05D04246204658496A
:1019CC00FFF742FF0544BBF1000FABD05A4620464F
:1019DC005949FFF739FF0544A4E74FF0000BE1E745
:1019EC0006F00805E6E745469CE7BBF1010F069BB0
:1019FC0006D1002B64D1049B002B7BD000250CE07E
:101A0C00002BF8D04D485CE04D48069B22464D49D2
:101A1C0004F033F8049B002B68D0DFF82C81DFF83E
:101A2C002C91049F3146102F204628BF10274FF0D1
:101A3C00000BFFF71BFF5D4545DC059B4946204627
:101A4C001A78FFF701FF4FF0010B1BF0070F03D1C2
:101A5C0041462046FFF7F8FE5F453BD9059B4946BA
:101A6C00204613F80B20FFF7EFFE0BF1010BBBF137
:101A7C00100FEAD14FF0000B20463549FFF7E4FE7A
:101A8C005A46059B20469A5CA2F120015F2928BF8B
:101A9C002E223049FFF7D8FE0BF1010BBBF1100FD2
:101AAC001DD01BF0070F03D141462046FFF7CCFE9B
:101ABC005F455A46E5D841462046FFF7C5FEEBE7A1
:101ACC001F485546A1E741462046FFF7BDFE0BF1E6
:101ADC00010BB0E720462049FFF7B6FEC5E7059B92
:101AEC003B440593049BDB1B04939AD1BAF1000F82
:101AFC007FF41FAF204609B0BDE8F04F04F011BCD5
:101B0C002046054A0549FFF79FFE15E7927B00002A
:101B1C00967B00001C7800008D7B0000137A00007F
:101B2C00BB7B0000400800203C0800209F7B00008D
:101B3C0030780000BF7B0000C57B0000776300009D
:101B4C00496300003D290000D27B0000CA7B0000E5
:101B5C00D47B0000D67B0000D07B000042F20F73D8
:101B6C0073B58B4228BF0B460568044605216846B1
:101B7C000D4A03F01BFC0646636828460B225B6883
:101B8C000A4904F0C0FB63683246694628465B6824
:101B9C0004F0B9FB63681B2228465B68044904F017
:101BAC00B2FB02B070BD00BF497D0000F57B0000A8
:101BBC00D97B000000210123064A904206D8064A30
:101BCC0001B901231360054B1860704701214008CF
:101BDC005B00F2E740420F003C0800204008002068
:101BEC00F8B50D460446064F4618B44201D12846B6
:101BFC00F8BD14F8011BBB6801485B689847F4E713
:101C0C00B86E0000014B036000207047787800002C
:101C1C0008B5044803F089FFBDE80840024803F00A
:101C2C0084BF00BF3B7C0000707C00002DE9F047B6
:101C3C0006460C4600AF002936D0D1E90012E94621
:101C4C008AB06D46A3684FF0050AA8461F48C5E93F
:101C5C000723C5E9050148F810AF002342464FF4AD
:101C6C0021511B48FFF710FDD4E90312CD466369DF
:101C7C00AD461848C5E90723C5E90501C5F810A00C
:101C8C00002342464FF421511148FFF7FDFCCD468D
:101C9C00E3690121104A0E4804F02BFBA3690121D2
:101CAC000E4A0B4804F025FB012E07D1EFF30583F8
:101CBC000B4A31460648103B04F01BFB21463046CC
:101CCC0002F036FCBD46BDE8F08700BF9E7C0000EC
:101CDC008C770000CD7C0000FC7C00000B7D0000AC
:101CEC00397D000030BFFFF7FDBF00BF2DE9F0418B
:101CFC0005460B4EDFF82C80324606EB0807CC1B52
:101D0C002046094904F0EBFFA01942460021083C8B
:101D1C0004F0F2FF2C6707F10800BDE8F08100BF6A
:101D2C000000000004000000B4770000074A93682C
:101D3C0093F90E10002907DB526993421FBF044A26
:101D4C00536843F080535360704700BF3009002044
:101D5C0000ED00E070B52A4C06460D4629482A498C
:101D6C0004F08AFBA36ADB0647D52648274904F012
:101D7C0083FB1120A36A1C0704D52248244904F0D4
:101D8C007BFB12201E4CA36A990712D521491D48D2
:101D9C0004F072FB636BA26A120609D501211E4A7C
:101DAC00184804F0A6FA1EB1A36A23F08003A362BC
:101DBC001320134CA36ADE0704D51248174904F00C
:101DCC005BFB1420A36A9C0604D50E48144904F04E
:101DDC0053FB15200A4B9A6AD10658BF9A6A9A6A25
:101DEC00920642BF5A6A22F400525A629A6A42F030
:101DFC00FF029A6200232B7070BD1020BAE700BF5F
:101E0C0000ED00E08C7700004C7D0000627D00004E
:101E1C00957D0000A87D0000C07D0000D67D0000EF
:101E2C00F57D000010B5244C2449254804F024FB12
:101E3C00A36A99013ED52248224904F01DFB1E20BD
:101E4C00A36ADA0104D51E481F4904F015FB1F20B4
:101E5C00194CA36ADB0204D519481C4904F00CFB8D
:101E6C000220A36A1C0304D51548194904F004FB8D
:101E7C002120114CA36A590304D51148154904F0CB
:101E8C00FBFA2220A36A9A0304D50D48124904F0E8
:101E9C00F3FA2320084CA36ADB0304D508480F4946
:101EAC0004F0EAFA2420A36A6FEA03436FEA1343AF
:101EBC00A36210BD1D20C3E700ED00E0247E0000EE
:101ECC008C7700003C7E00004F7E0000697E000095
:101EDC00937E0000B17E0000D67E0000F07E0000F4
:101EEC0070B5294C06460D462848294904F0C4FA19
:101EFC00A36AD9043CD52548264904F0BDFA17201D
:101F0C00A36A1A0504D52148234904F0B5FA182010
:101F1C001D4CA36A9B0512D51C48204904F0ACFA51
:101F2C00A36BA26A100409D501211D4A174804F0BD
:101F3C00E0F91EB1A36A23F40043A3621920124CEA
:101F4C00A36A590504D51148164904F095FA1A20CC
:101F5C00A36ADA050ED50D48134904F08DFA1B203F
:101F6C00094A936A43F47F43936200232B7070BD3C
:101F7C001620C5E7A36A9B04F2D504480B4904F06C
:101F8C007BFA1C20ECE700BF00ED00E08C77000032
:101F9C001B7F0000317F0000957D0000427F000018
:101FAC005B7F0000707F00008B7F0000F57D0000E0
:101FBC002DE9F0418AB0654B0446D3F80480002625
:101FCC0000AFC8F3080586F31188BFF36F8F02F0DA
:101FDC007F43B3F17F4F07D102F00C03082B12D1D2
:101FEC005B495C4804F048FA002634460023FB7138
:101FFC00EB1E092B00F28980DFE803F00A7F827C5C
:10200C0087878787878510074CBF0C460126EDE72D
:10201C005149504804F030FA00234C4DFB71EB6AE7
:10202C009A0705D54D494B4804F026FA002332E0B7
:10203C00EB6A002B01DA4A49F5E7EB6A5B00F5D550
:10204C004849444804F018FA6B69A26943F4807358
:10205C006B61BFF34F8FBFF36F8F6B6932F8022C3C
:10206C0023F480736B61BFF34F8FBFF36F8F4DF60B
:10207C0002739A4208D0AB6ADBB273B30120F91D2C
:10208C00FFF768FE034606E023680121364A314813
:10209C0004F02FF92368FA79DAB907F1080504F18D
:1020AC00200C2A4620686168083403C26445154632
:1020BC00F7D17A6A002E44D0C2F3080121B96FEA35
:1020CC0052226FEA42227A62184607F10801FFF7A2
:1020DC00ADFD2837BD46BDE8F081AB6A13F47F4FE8
:1020EC0004D00120F91DFFF7FBFECBE7AB6AB3F57B
:1020FC00803F9BD3FFF796FEC4E70020F91DBFE796
:10210C000020F91DEFE719498DE7194A18F4F87FFB
:10211C00E8468AB0174B18BF13466A461649103D5D
:10212C00C2E905134FF400731384144BD56142F8C4
:10213C00103F00234FF411510648FFF7A5FAC5468E
:10214C0074E722F4FF7222F00102BCE700ED00E01C
:10215C00D17F00008C770000FC7F00001380000012
:10216C003480000042800000618000007D8000000F
:10217C00B87F0000A37F0000A180000004000001D4
:10218C00064B5A6942F010025A615A6942F4806255
:10219C005A615A6922F008025A61704700ED00E05A
:1021AC00EFF30880EFF3098101B57246FFF700FFEA
:1021BC0001BD00BF002080F31488BFF36F8F002097
:1021CC0080F30A8880F30B8801F070F900200E4927
:1021DC000860BFF34F8F0D4880F3088800F02CF88F
:1021EC00202080F311880A484FF40061401880F3D6
:1021FC000988EFF314800221084380F31488BFF39D
:10220C006F8F00F0EFF8000094ED00E0A8190020AB
:10221C00680C0020002318460649D1F89020C2F320
:10222C000722934200DB7047C1F89830C1F8A00038
:10223C000133F6E700ED00E010B572B6002484F32C
:10224C001388FFF7E7FF23464FF0FF300C4A03F1EA
:10225C0020010133102B42F82100F8D100234FF05C
:10226C00FF30074A03F160010133102B42F82100C3
:10227C00F8D162B6BFF34F8FBFF36F8F10BD00BFA5
:10228C0000E100E0084B9B6883420BD1EFF3058320
:10229C0043B1064B5A6842F080525A605A6A22F493
:1022AC0000425A6204F0B6BC3009002000ED00E098
:1022BC006FF00A01084A93689967084958674B6898
:1022CC0043F080534B60002383F31188BFF36F8F6F
:1022DC009368986F704700BF3009002000ED00E054
:1022EC00EFF31183202383F31288BFF36F8F4FF02A
:1022FC000061084A53699360074A5160196F074A95
:10230C00116000215A6F596782F31188BFF36F8FE8
:10231C00704700BF3009002000ED00E06808002085
:10232C000E498A684FF030001044EFF3098C80E8B6
:10233C00F01F74467046FFF7D3FFA64607498A681C
:10234C0002F1300090E8F01F8CF3098802F10000D4
:10235C0004B504F099F8BDE804407047300900203A
:10236C001EF0040F0CBFEFF30880EFF309808169B6
:10237C0011F8021C0229FFD001B504F072F801BD5E
:10238C0000B2002807DB01234109034A00F01F00BB
:10239C00834042F82130704700E100E0054B4209D0
:1023AC0053F82220012300F01F0003FA00F0104024
:1023BC00704700BF00E100E000B2002801F101010C
:1023CC00ACBF00F16040064B4FEA4111C9B2ABBF44
:1023DC0000F5614000F00F0080F8001319547047AD
:1023EC0014ED00E00B4A08B50B4B22F07F029A600B
:1023FC00BFF34F8FBFF36F8FD3F8882022F4700296
:10240C00C3F8882002F080F902F0CCFD00F04CF803
:10241C0002F0BAF90000000000ED00E042F8203CA8
:10242C00009B0B4942F81C3C019B21F0010142F836
:10243C00183C029B42F8081C42F8143C4FF0807385
:10244C0042F8043C0023203A02654367704700BF02
:10245C00150F000000B50D4B15469860026F0C4B24
:10246C000E461A60036E83F30B882C4686F309889C
:10247C004FF00000074B984720464FF000014FF0FB
:10248C0000024FF00003044C204700BF300900202D
:10249C00680800209D640000150F00001022014BFD
:1024AC001A61704700ED00E00023202040F20F126B
:1024BC0010B5044CE1180133934281F80003F9D1B3
:1024CC0010BD00BF00E100E008B5EFF30583064A3C
:1024DC00103B02EBC30152F8330049688847BDE852
:1024EC000840FFF723BC00BFCC6E00001FB5094CA1
:1024FC00094A23460121094800F012F900230393ED
:10250C00074B0121E41A01A80193029400F012F97F
:10251C0004B010BD0080022000000020787800007C
:10252C00C001002010B50C7A0B6804F01F0223F0D8
:10253C001F031A43CB68640923F01F03054943EAC0
:10254C00440343F00103C1F89800C1F89C20C1F882
:10255C00A03010BD00ED00E010B50A4BD3F8903060
:10256C00C3F30723013B984208D901210346064ACD
:10257C00064803F0BEFE6FF0150010BDFFF7D2FF4A
:10258C00FBE700BF00ED00E0B88000007C770000A6
:10259C002DE9F04F8946144606464FF00008514D80
:1025AC0085B0C84527DAD6F804A0BAF1000F44D09C
:1025BC00BAF11F0F17D91AF01F0F14D1D6F800B0AB
:1025CC001BF01F0F0FD1584603F085FF07460AEB8F
:1025DC000B00013803F07FFF874210D06FF0150716
:1025EC00414A3B4601E04346404A0121404803F042
:1025FC0080FE6FF01504204605B0BDE8F08F17F192
:10260C00160FEDD0BC42EBDDC5F89870D5F89C10D8
:10261C00C5F89870D5F8A03021F01F0143F01F0BBE
:10262C00D6E900321A44994202F1FF3A1DD1D34542
:10263C0007D13146F8B203F057FF08F101080C3608
:10264C00AFE73146C5F89870D5F89C3022F01F02E0
:10265C0003F01F031343C5F89C30E0B203F044FFB2
:10266C0010F1160FC5D0441CE7E7C5F89870D5F8E3
:10267C00A020013B23F01F0302F01F021343D3459C
:10268C003146E0B2C5F8A030E8D003F02DFF10F1D0
:10269C00160FAED0C5F89870D5F89C209DF8083070
:1026AC000BF1FF3B62F304038DF80830D5F8A03032
:1026BC009DF808205B0863F347128DF80820D6E9D3
:1026CC0000321344009323F01F035B44A3EB0A0373
:1026DC00013023F01F036946C0B20393FFF73CFFA0
:1026EC00BEE700BF00ED00E001810000DE800000CD
:1026FC007C7700000522044BC3F89420BFF34F8F66
:10270C00BFF36F8F704700BF00ED00E0BFF35F8F2A
:10271C000022024BC3F89420704700BF00ED00E08C
:10272C0010B5034C2278FFF733FF207010BD00BFAB
:10273C00630900202DE9F74F294D8A4606464FF0D4
:10274C000008AB46274FD0451BDAD6F80490B9F1F8
:10275C00000F3FD031680846019103F0BCFE01998F
:10276C00044609EB0100013803F0B5FE84424FF03A
:10277C0014021D4B08D002FB08F36FF015024BF846
:10278C00032003B0BDE8F08F14F1160F2C60F8D0C5
:10279C001978A142F5DD02FB08B0C7F89840C7F8DC
:1027AC009840D7F89C4000F10801007B64F30400CA
:1027BC000871D7F8A0000C79400860F347140C712D
:1027CC00D7F89C1021F01F016960D7F8A01021F0F8
:1027DC001F01296108F1010814350C36B3E700BF5D
:1027EC006C08002000ED00E063090020F0B54149C1
:1027FC00414CD1F890302568C3F307239D4287B034
:10280C0075D80020FFF782FF3C4BC1F8C0308542E1
:10281C0016D13B4C01A82570FFF7F4F900250646AC
:10282C00384FAE4213D1002023783249D1F8902092
:10283C00C2F30722934254DBFFF75CFF00202FE02A
:10284C00616801EB0011FFF76DFE0130DFE70199C4
:10285C00280101EB0513DA683A40B2F5001F21D0CC
:10286C00B2F5800F2BD0B2F5801F38D15A689B6817
:10287C000958013B22F01F0003440120844623F039
:10288C001F0340EA4C10CDE902218DF8100002A97B
:10289C0020780593FFF760FE00281DDA6FF0150015
:1028AC0007B0F0BD5A689B680958013B22F01F0025
:1028BC0003444FF0020C012023F01F03E1E75A6898
:1028CC009B680958013B22F01F0003444FF0000C99
:1028DC00062023F01F03D4E723780133237001353E
:1028EC009FE7C1F89830C1F8A00001339EE74FF084
:1028FC00FF30D5E700ED00E084780000AAFF44002B
:10290C00630900200000F0FF08B5024B1B689847D4
:10291C00002008BD80080020034B044A18609378FF
:10292C0043F00203937070478008002010000020D1
:10293C00F0B587B007460E461446002110226846B3
:10294C001D4604F0D9F902238DF80230054B2A46B6
:10295C0021466846CDE90476019302F053FD07B099
:10296C00F0BD00BF2765000008B50649064821F0F8
:10297C000701C1F1005202F5203203F026F80020C5
:10298C0008BD00BFAF1900208408002008B500F076
:10299C0077FD00F05DF841F6F8732248D0F8241664
:1029AC00C1F3080203EA5133132182F48072883296
:1029BC0001FB02331C4A590ADB0548BF0131C2F83E
:1029CC000419D0F820364FF47A60C3F30801C3F32E
:1029DC000943434342F21C5081F4807101F21721E8
:1029EC0000FB01334FF47A701B0AB3FBF0F100FBD0
:1029FC001133B3F5FA7F28BF01310A4BC2F81C170B
:102A0C00D3F840331C2B08D13423C2F82436D2F827
:102A1C003C3623F40023C2F83C360123C2F80036BE
:102A2C00002008BD00C0FF000000125048B1054B4B
:102A3C00054A1B68B3FBF2F35843044B43F0010304
:102A4C00184770472C00002040420F00E077000030
:102A5C000122024BC3F80424704700BF002008E099
:102A6C00084B70B5C31A0D4607499B1004465943D1
:102A7C004022064803F085FD2B4601462046BDE862
:102A8C0070401847A4080020B76DDBB6686E0000D4
:102A9C00402373B50B4C0093041B0B460D460A499F
:102AAC00A41061430646094A094803F095FD011E2E
:102ABC0005DA30462B4602B0BDE87040184702B02C
:102ACC0070BD00BFA4080020B76DDBB64D660000DA
:102ADC00686E000010B5EFF31184202383F3128885
:102AEC00BFF36F8F074A136823F00201DB071160F5
:102AFC0002D4012003F0A2FE84F31188BFF36F8F80
:102B0C0010BD00BFF408002070B50022012104465E
:102B1C0040F20510FFF750FC0F4800F0C1FD0F4BC1
:102B2C00984215D100F0CCFD26690D49304603F0D2
:102B3C00B8FA00280BDB012535642469084904F137
:102B4C001C0003F0AEFA002801DB0020E56470BD28
:102B5C006FF00400FBE700BF692C00000000AD0B18
:102B6C00BC7800001FB500220123CDE902236B467F
:102B7C00084ACDF800D0CDF804D003F05AFD002857
:102B8C0005DB43F609520023684601F08FFE05B0C1
:102B9C005DF804FB6B6600000C22104B014602FB37
:102BAC000033002030B4D3E90E529863EFF3118058
:102BBC00202484F31288BFF36F8F1C6C04F0C004C4
:102BCC0044F002041C6480F31188BFF36F8F1DB1B5
:102BDC002B4630BC0248184730BC7047A408002074
:102BEC00686E000010B4EFF31182202383F3128877
:102BFC00BFF36F8F1648016841F002040460C807E8
:102C0C0007D482F31188BFF36F8F012010BC00F042
:102C1C006DBD1049D1F80C14C903F2D5EFF3118036
:102C2C0083F31288BFF36F8F0B490B6C03F0C00357
:102C3C0043F002030B6480F31188BFF36F8F82F3B0
:102C4C001188BFF36F8F002010BCFFF7A5BF00BF2A
:102C5C00F408002000E01050A408002010B1012856
:102C6C0004D07047034B1B6C5B0701D1FFF794BF7B
:102C7C00704700BFA40800202DE9F041012207464F
:102C8C003449D1E8EF3FC1E8E02F0028F9D133B93E
:102C9C00314932484B60CB608A6003F015FA7B1ED9
:102CAC00012B28D8012F06D12D4BD3F8503403F02B
:102CBC000303012B1FD003F0D6FE0546E8B9294BC0
:102CCC001B78D3B104220646254BC3F80823244CA9
:102CDC00DFF89480D4F84C24D4F84C34D20315D5B6
:102CEC0003F00303012B01D0012F0FD165B386F341
:102CFC001188BFF36F8FBDE8F081EFF311862023AD
:102D0C0083F31288BFF36F8F0125E0E7BDB1304626
:102D1C0003F0D2FBD4F8403413F0FF03DAD1D4F82B
:102D2C000821002AD6D0C4F80831D4F80831202262
:102D3C000123C4F84034C8F8A0212361CAE700215C
:102D4C00202002F083F8E5E70422054BC3F80423A6
:102D5C00D1E700BFA008002090080020C008002088
:102D6C0000E010506609002000E100E008B50748BB
:102D7C0003F032FE38B10648FFF7CEFD0448FEF7EB
:102D8C00BDF8002008BD6FF01200FBE7B86E000024
:102D9C00A12D00000A2838B50446074D04D1AB68B4
:102DAC000D2128465B689847AB6803485B68E1B225
:102DBC009847204638BD00BFB86E000038B545684E
:102DCC002B69E3B11035284601F0F6F80446B0B98A
:102DDC000146284601F0B2F80B4B984211D122461D
:102DEC0028460A4901F07EF822460121DB20FFF734
:102DFC00E3FA2246012140F20D10FFF7DDFA002024
:102E0C0038BD6FF00400FBE70000AD0BA12F0000F4
:102E1C002DE9F04340F206354668D00648BF032042
:102E2C00337B02EA050558BFC2F3401087B001F0AE
:102E3C001F07B5F5837F144647EA43178DF8030047
:102E4C0046D00FD8062D45D007D8B5B1022D14D0D9
:102E5C006FF0150007B0BDE8F083B5F5807FF7D1B2
:102E6C0001250AE040F20222954235D0B5F5407FAB
:102E7C0034D0B5F5007FEBD104250123220303FAEE
:102E8C0001F12DD573685960326972BB5F2F07F061
:102E9C001F034FEA571175D83C4A52F8212084F48D
:102EAC00803102EB8302D2F88030C1F30041C4F3CD
:102EBC00404423F4706344EA410423F00F031C43A1
:102ECC0044EA800444EA0524C2F880400020C1E7AB
:102EDC000925D2E70825D0E70625CEE70525CCE75E
:102EEC00630344BF73689960CEE7103639463046A9
:102EFC000DF1020201F004F814F4403F80460CD1AD
:102F0C003946304603F05FFD214B9845DED1304603
:102F1C009DF8021001F05EF8D8E74FF0000901AB04
:102F2C003946304603AACDE90439CDE90199CDF8EB
:102F3C000C9000F04DFE164B984289D114F40033DE
:102F4C0015D09DF8033084F48034C4F300448DF81C
:102F5C000E3039464B46304603AA8DF80C508DF88E
:102F6C000D4000F02BFF0A4B9842CDD070E7CDE915
:102F7C00043339460DF10303304603AA039300F0E2
:102F8C0027FEF0E7203352F82330FFDEFC780000F8
:102F9C000000AD0B4209022A034670B503D0012A8A
:102FAC0018D0CAB170BD0E4E326951680029F9D0E3
:102FBC00012503F01F030C689D400029F2D08A689C
:102FCC002A4002D030464B6898473CB123682146D2
:102FDC001C46F2E7034EE7E7034EE5E72346F6E728
:102FEC00A46E0000906E00007C6E0000F0B540688E
:102FFC0001F01F04057B87B044EA45140569002DD8
:10300C0063D0B2F5001F00F1100506D12146284609
:10301C0003F0DBFC002007B0F0BD0027B2F5800FF9
:10302C0001AE019777603BD1B3F1007F14BF05234C
:10303C0004238DF804300023CDE9046303938368E3
:10304C0023FA01F111F001011CD1B2F1A07F19D1C9
:10305C0004F01F035F2C4FEA541003F120033AD8FD
:10306C001E4A52F8202052F82330DB070AD40DF107
:10307C00030632462146284600F042FF184B984280
:10308C0019D002962146284603AA00F0A1FD154B43
:10309C0098421DD101222146284600F0B3FFB9E722
:1030AC00B3F1C06F05D0B3F1007F14BF012302232D
:1030BC00BFE70323BDE73146284600F097FF094BD5
:1030CC009842DED06FF00B00A5E76FF08500A2E709
:1030DC006FF015009FE751F82330FFDEFC780000FD
:1030EC000400AD0B0000AD0B036803F01F025F2B57
:1030FC0002604FEA53129ABF024B53F82200002091
:10310C00704700BF747900002DE9F04F1546064654
:10311C0040F2FF18DFF83C91DFF83CA185B000EBE2
:10312C008101B14203D1002005B0BDE8F08F3368B6
:10313C00C3F3C322082AC3F3080400F284801B0ED5
:10314C00444508BF4FF0FF3419F80270192B7DD895
:10315C00DFE803F00D1C47604A50607C7C7C7C7C73
:10316C007C7C7C7C7C7C7C7C7C7C636D7073C5F80B
:10317C000446621C3CD04FF0010B03A80394FFF7EC
:10318C00B3FF039B0BFA03F3436005E0C5F80C4651
:10319C00601C2DD04FF0000B5A463368039403F497
:1031AC000040002818BF002203A818BF4FF0010BE5
:1031BC0001930092FFF798FF039C019B00EB8400A6
:1031CC00D0F88040C3F3412C009A3B0243EA8C03B5
:1031DC00134304EA0A04234343EA4B03C0F8803048
:1031EC0006E0C5F81046C4E7631CC5F8004627D1B5
:1031FC00043696E7601CC5F80446F9D04FF0010B75
:10320C0003A80394FFF770FF0122039B02FA03F358
:10321C008360C2E7C5F80846BAE7C5F86045621C8A
:10322C003368E5D0C3F30043002BE7D0A3E7C5F820
:10323C006445F4E7C5F86845F1E7C5F86C45EEE779
:10324C004FF0000BDCE76FF015006DE76FF08500B9
:10325C006AE700BFA9810000F0F0FCFF2DE9F04106
:10326C0004460D46476803F0FEFBA0B9274B1B78BC
:10327C008BB14FF02008642663681B68D3F830319B
:10328C008BBB012003F0D8FA013EF5D100212020A0
:10329C0001F0DCFDEFE72021EFF311831A4681F3F7
:1032AC001288BFF36F8F60680068D0F8300120B9C6
:1032BC0083F31188BFF36F8FEEE73B6A00201D701C
:1032CC006368396A1B68C3F83C170121C3F84017BF
:1032DC00C3F83001D3F83001196582F31188BFF3BC
:1032EC006F8FBDE8F081EFF311831A4688F31288D3
:1032FC00BFF36F8F61680968D1F830110029DCD1F8
:10330C0083F31188BFF36F8FC0E700BF66090020FD
:10331C0073B514461D46684600F03CFF009BA34263
:10332C00019BAB4114D30B4AD2E90061A41B24F0DE
:10333C001F0365EB010064099B1941EB000144EA92
:10334C00C060C2E9003102B0BDE8704001F004BFBA
:10335C0002B070BD8006002010B500220121E420CF
:10336C00FFF72AF8002000F047FF114B0446984263
:10337C0008D101200F4900F0D5FFA04205D00E4B1B
:10338C00984211D04FF0FF3010BD67220B4B02203A
:10339C001A60FFF771FC0A4A0020D2F8183723F4A0
:1033AC004033C2F81837EFE76FF00B00ECE700BFC3
:1033BC000000AD0B280000200200AD0B24090020FA
:1033CC0000200E5007B5684600F0E4FE0098074A4E
:1033DC00D2E90032C01A019B4FEA501063EB020392
:1033EC0040EAC36003B05DF804FB00BF8006002018
:1033FC007FB5431C18BF20EAE07502A808BF6FF028
:10340C00004500F0C7FE02990E4B2020D3E90026A0
:10341C008C1A039961EB06032146C5FB0013402966
:10342C0073F1000436BF014621F01F01002352182E
:10343C004FF0010146EB03030091034800F0D6FF67
:10344C0004B070BD800600202000002003689A079D
:10345C000CD50368DB070DD50922074BC3F80C25E7
:10346C000F22C3F8042501221A60FEE7034B036008
:10347C00EF3B0360704700BF00801050F000FA5023
:10348C00064BD3F80438012B05D0032B02D1044B87
:10349C00044A1A607047024B034AFAE700001250C4
:1034AC002C0000200090D0030020A107012208B5B9
:1034BC00284B2948C3F80028FFF7C8FF0830FFF74E
:1034CC00C5FF0830FFF7C2FF0830FFF7BFFF00F55C
:1034DC00F470FFF7BBFF214AD2F88C3043F4406301
:1034EC00C2F88C300022D30003F57F0303F5404370
:1034FC00D3F8001401310AD0D3F8001439B1D3F841
:10350C0000140132D3F80434402A0B60EBD1114B78
:10351C00D3F84024CAB1124BD3F840231C2A08D14B
:10352C00D3F834230F4B9A429EBF0A4B0E4AC3F872
:10353C0040260A4AD2F88C3043F44063C2F88C30EF
:10354C0000220A4BC3F8A02508BDC822C3F84024AA
:10355C00E1E700BF0000125000C50D5000ED00E087
:10356C0000C0FF00001D0A1840E0A91E00B0045066
:10357C0030B50468ACB1B4FA84F30122C3F11F0373
:10358C00DBB29A4024EA0202D0E8EF5FA54204D1F4
:10359C00C0E8EC2FBCF1000FF6D1EAD102480B7059
:1035AC0030BD0248FCE700BF0000AD0B0200AD0BC4
:1035BC0010B50368CB40DB0710D401238B400268A5
:1035CC0043EA0201D0E8EF4F944204D1C0E8EC1F6B
:1035DC00BCF1000FF6D1F2D1014810BD0148FCE757
:1035EC000000AD0B0400AD0BF7B5044618B1012873
:1035FC0022D003B0F0BD0422284B0646C3F80823A2
:10360C0001225A61C3F80801D3F80831002342F2B1
:10361C001075224F8DF80730D4B1012CE9D1D7F8B1
:10362C000C3403F480338EBB002BE2D0012003F06A
:10363C0003F9013DF3D1DCE70022184B0DF107062D
:10364C00C3F808035860C3F80021D3F80031DDE754
:10365C00D7F84C3403F480333EB9002BC9D0012089
:10366C0003F0EAF8013DF3D1C3E7D7F84C2402F09C
:10367C0003023270002BBCD09DF80730002BB8D160
:10368C00012003F0D9F8013DC6D1B2E7002B0CBFE5
:10369C00012300233370EFD1ABE700BF00E01050E3
:1036AC00044B1A7922B9012218601A71024870472A
:1036BC0002487047280900200000AD0B0C00AD0B30
:1036CC0008B5084B1B6843B140F20510FEF766FEC7
:1036DC0018B940F20510FEF753FE0022024BC3F856
:1036EC00402408BD2809002000E0105010B510B18E
:1036FC00012844D010BD274BD3F84C14D3F84C24DC
:10370C00C80323D502F00303012B04D013B100200E
:10371C00FFF76AFF00231F4A0420C2F8403410222E
:10372C004FF48473002103F1A04303F58713196050
:10373C001C68012402F1A04202F587121460164A9B
:10374C00126802B3134BC3F80403D3E7D3F848242D
:10375C00D107DFD5D3F850249207D8D40E4A12687B
:10376C001AB10422C3F80423C4E7D3F80821002AB1
:10377C00FBD00022C3F80821D3F80831BAE70022A5
:10378C004FF48073CEE71A68002AFCD019601B68CE
:10379C00B0E700BF00E010502809002010B51E4B08
:1037AC00D3F8002152B10020C3F80001D3F8002156
:1037BC000122C3F80823194B1B689847164BD3F802
:1037CC00082172B10022C3F80821D3F80821D3F8DC
:1037DC004C24D3F84C24920714D10122C3F8402472
:1037EC001A610D4BD3F80421A2B100220220C3F8B8
:1037FC000421D3F80421C3F80803084BBDE810409A
:10380C001B6818470422C3F80823044B01201B68CB
:10381C009847E6E710BD00BF00E0105028090020D3
:10382C00036803F01F025F2B02604FEA53129ABF2A
:10383C00024B53F822000020704700BFD8790000DB
:10384C00034A4309D35C00F01F001844C0B2704710
:10385C00CD81000070B505460846FFF7F1FF362113
:10386C002A79174B01FB0202083233F81200C1050A
:10387C0025D56C240026C0F3432120F4F85023F8FE
:10388C0012002A7904FB02340E3434F8020F10F4BF
:10389C00807F03D0C0F34320814210D00136232E09
:1038AC00F3D16C200024424302EBC1029C502A79D4
:1038BC00BDE8704000FB02306030FFF779BE70BD90
:1038CC0030000020F0B50646002487B0114F01915E
:1038DC0017F8012B06AB03EBD20313F8143C02F0E0
:1038EC000702D34013F0010306D10134032CEFD1AE
:1038FC000023184607B0F0BD074A03AD07CA85E898
:10390C00070055F824100A6A46F824200A62002A97
:10391C00EBD0EEE7DD810000C077000010B5044667
:10392C000846FFF78DFF362303FB0400024B0830DB
:10393C0033F81000400B10BD3000002010B50446C9
:10394C000846FFF77DFF362303FB0400034B0830CA
:10395C0033F81000C0F3400010BD00BF3000002051
:10396C0010B504460846FFF76BFF362303FB040033
:10397C00034B083033F81000C0F3401010BD00BFEB
:10398C00300000202DE9F04F0D46D0F8141387B00D
:10399C00C9B241F40031AA6D009002F0C8FF810356
:1039AC0006462ED50023696E03A8CDE90333059393
:1039BC00FFF788FFDFF868A1DFF868B10DF10C099B
:1039CC001AF8013B05EBD30292F8642003F00703CD
:1039DC0022FA03F3DA076AD4534B09F1040953456D
:1039EC000BF1010BECD14FF40031AA6D009802F0F1
:1039FC009EFF696E03A8FFF765FF0028DAD126F455
:103A0C0000360124002E73D107B0BDE8F08F91FA77
:103A1C00A1F1B1FA81F19BF8004041EA441420462F
:103A2C00FFF70EFF083035F81080C8084FEA9803EE
:103A3C000193012319F8002001F0070103FA01F1A9
:103A4C0022EA010209F8002002A80294FFF7E8FE1E
:103A5C00029A019B203250F82220C8F382075B07A0
:103A6C00B846C2F3014227D52846D7B22146424672
:103A7C0002F03EFF02A80294FFF7D2FE029B203315
:103A8C0050F82330C3F301439F4207D10021204655
:103A9C0002F01FFF3946204602F01BFF02A80294D9
:103AAC00FFF7BEFE0122029B02FA03F30362D9F870
:103ABC0000100029ABD18FE7022A0DD1032120463B
:103ACC0002F007FF07F00503012BE7D14246214620
:103ADC00284602F00DFFE1E702212046019202F098
:103AEC00F8FE032FF2D0019A032AD7D1022FECE76C
:103AFC0096FAA6F3B3FA83F304FA03F226EA020663
:103B0C00009A284602EB8303D3F81015D3F810253E
:103B1C00C1F30811C2F3014202F0EAFE72E700BFE2
:103B2C00DD810000DD810000E08100002DE9F7431C
:103B3C0005460846FFF784FE36222B79204F02FB00
:103B4C000303083337F813300E46DB07044635D52C
:103B5C00284602F013FF95F8049031464846FFF7CB
:103B6C00FFFE60B14846FFF7D9FE0022D5F8008071
:103B7C0000B208EB8003C3F81025C3F810252846C3
:103B8C003146FFF767FE36222B7901A802FB03446E
:103B9C000023083427F814300196FFF741FE019BEF
:103BAC0000EB8300D0F88020064B134043F0020357
:103BBC00C0F88030044803B0BDE8F0830348FAE74E
:103BCC0030000020F0F0FCFF0000AD0B0400AD0B4A
:103BDC002DE9FF47174604460846FFF731FE3E68BD
:103BEC008846054676B394F804904846FFF7A6FE3F
:103BFC0018B14846FFF7B4FEA0BB00234046CDE900
:103C0C0000338DF80E308DF80F300DF10F02334666
:103C1C000DF10E0102F014FE36202379644A00FBEC
:103C2C000353083332F8131021F0020122F8131059
:103C3C00237900FB0353083332F8131041F00101D0
:103C4C0022F813107B68002B45D02679414630466C
:103C5C0093F80090D3F804A0FFF770FE20B1BAF1EE
:103C6C00000F22D0534839E04FF0360C0CFB0656AF
:103C7C004F49083631F8163023F4604323F0200303
:103C8C0021F81630BAF1000F0FD0B9F1030FE9D8B3
:103C9C007B6826685B68187806EB8006B9F1000F24
:103CAC001FD1C6F81095C6F8109536202379404AD6
:103CBC0000FB0353083332F8131021F01C0122F8D7
:103CCC001310237900FB0353083332F8131041EA25
:103CDC00890122F81310BB6863BB374804B0BDE8F8
:103CEC00F087D6F8102522F00302C6F810252268BA
:103CFC0002EB8003D3F8102522F4473222F47C72B5
:103D0C00C3F8102541F6F072D3F8106502EA0812D8
:103D1C0042EA09423243C3F8102523790CFB0353C2
:103D2C00083331F8132042EA403242F0200221F8E5
:103D3C001320BAE74146D3E900972046FFF78AFDE6
:103D4C00B9F1000FC9D06C232079194E4343F218F6
:103D5C00F358994504D153689F4201D100210CE0DE
:103D6C006C2303FB00600DF10F016030FFF700FCCA
:103D7C00114B9842B2D19DF80F106C22237953430A
:103D8C0003EBC10346F8039023795343362203EB2C
:103D9C00C10333445F60237902FB0353083336F8C5
:103DAC00132042EA412242F4807226F8132094E751
:103DBC00300000200400AD0B0000AD0B2DE9FF47D7
:103DCC000546084617461E46FFF73AFD8946044647
:103DDC0087B395F804804046FFF7B0FD18B940460C
:103DEC00FFF7BEFD68BB362303FB0848DFF8E4A0F1
:103DFC0008F108083AF8183013F01C0F02D07B7841
:103E0C00012B1ED001238DF80F3000237A1CCDE935
:103E1C0000734846BB1C0DF10F0102F011FD362258
:103E2C002B7902FB034308333AF8132042F00302C8
:103E3C002AF81320002E4BD049462879FFF77EFD37
:103E4C0018B9254804B0BDE8F08700214FF0360CB6
:103E5C0030782B68820003EB8003C3F81015C3F88D
:103E6C0010152B791B490CFB0343083331F81370E5
:103E7C0027F4604727F0200721F8137077783FB3B9
:103E8C002B68B6781A44D2F810E5144B3F040EEAAE
:103E9C000303C2F8103541F6F07307F4403703EA18
:103EAC0009133605D2F810E53B4306F4801633436C
:103EBC0043EA0E03C2F810352B790CFB034408348B
:103ECC0031F8143043EA403343F0200321F8143026
:103EDC000348B7E7300000200400AD0B0FE0ECFF07
:103EEC000000AD0B30B56C250479044B05FB043494
:103EFC00A160017905FB0133DA6030BD3000002090
:103F0C0070B5067914463046FFF72AFD68B10846AD
:103F1C00FFF796FC362303FB0600054B083033F8FD
:103F2C00103004485B0B237070BD0348FCE700BFE6
:103F3C00300000200000AD0B0400AD0B2DE9F0416A
:103F4C00064607796C20194D00FB075898F8684015
:103F5C004CBB404621464622103002F0CDFE214695
:103F6C003068D8F858608E4213D10023C0F8443121
:103F7C00D0F84431C0F308300130FEF701FA6C235D
:103F8C0003FB075501230A4885F868302B66BDE80A
:103F9C00F081CBB29B0003F58072442B04BF84509C
:103FAC0083580131DFE70348F1E700BF3000002000
:103FBC000000AD0B0C00AD0B6C210279044B01FB26
:103FCC00023393F86800003818BF0120704700BF17
:103FDC00300000206C235C22007913FB0023024884
:103FEC001844FFF7E5BA00BF300000206C235C22B8
:103FFC00007913FB002302481844FFF7B9BA00BF3D
:10400C00300000202DE9F34103681746D3F8142340
:10401C00044692035CBF4FF40032C3F814230679B4
:10402C000D463046FFF79CFC08B33046FFF786FC84
:10403C008046E0B93046FFF771FC05B22168AD004F
:10404C0005F5807241F802808A5821682944D1F81C
:10405C00102542F00102C1F810252FB10122216870
:10406C0002FA00F3C1F8143302B0BDE8F08128461F
:10407C00FFF7E6FB362303FB06000F4B083033F843
:10408C001030C3F38203042B11D0052B11D001A8DF
:10409C000195FFF7C5FB019AC368D34003F00103F8
:1040AC00991C284602B0BDE8F04102F012BC032175
:1040BC00F7E70221F5E700BF300000200149024874
:1040CC00FFF760BC3000002000A00D5001490248F1
:1040DC00FFF758BC9C00002000C0105070B50023A6
:1040EC0067240126027A94FAA4F1B1FA81F1914283
:1040FC0003F1010518D100210C24120102F1A04298
:10410C0002F56222C2F82C150A4ADBB204FB032327
:10411C000168D960416819610121007A18759368AA
:10412C0081400B43936070BD06FA01F12B4624EAE3
:10413C000104D8E708010020074B027AD3F81015C8
:10414C0021F001010A43C3F810250268C3F8A42624
:10415C004268C3F8AC26704700200E50012303FAC6
:10416C0000F010F0670F0AD0064B5B68DB4303F0DE
:10417C0067030342044B054818BF184670470448B0
:10418C00704700BF080100200000AD0B0400AD0B10
:10419C000800AD0B002300222DE9F048C0E90023F4
:1041AC00114BD3F810359B071CD5EFF3118120234D
:1041BC0083F31288BFF36F8F4FF0FF356FF04044DD
:1041CC000A4ED6E900BC5D4574EB0C07F9D3CCF371
:1041DC001303C0E900B381F31188BFF36F8F044858
:1041EC00BDE8F0880348FBE700200E5040270E5036
:1041FC000000AD0B0100AD0BF0B53F4C85B0257840
:10420C00002D75D13D4A01AB07CA83E807003C4934
:10421C001846D1F8102522F00202C1F81025FFF73C
:10422C008BFF0723672202F001012944013BCDB229
:10423C004FEA5202F7D1052D5CD11A4601272E48C0
:10424C00002567265FFA82FC96FAA6F15FFA85FED6
:10425C00E645B1FA81F145D30132052A017500F129
:10426C000C00EDD10120002526499A0800FA02F233
:10427C0012F0670F1CBF5D505A580433302BF4D129
:10428C00E420FEF77DF81E4B1F49D3F8182703F5E1
:10429C00C07322F4403242F48032C3F89825D3F82C
:1042AC00902322F00202C3F8902340F6FF72C3F869
:1042BC00A82100221A60A3F5807004338B4202609F
:1042CC00F8D101250E4B114A1D66114B5D201B6860
:1042DC00B3FBF2F358430F4B2B4398470E48257012
:1042EC0005B0F0BD07FA01F126EA01060135ABE78E
:1042FC000A48F5E70A48F3E708010020CC770000EC
:10430C0000200E5000210E50B0210E5040420F00E4
:10431C002C000020F07700000000AD0B0C00AD0B62
:10432C000100AD0B73B52A4C054663680E4603F0CD
:10433C00010304F1140101A80193FFF719F9254BAE
:10434C0098423DD100233370636823F0010363600E
:10435C00A36843F00103A3601F4BD3F81025960705
:10436C0032D4D3F8102542F00202C3F81025C5B19F
:10437C00D3F8482712F0010202BFD3F8481741F0D6
:10438C000101C3F84817144BD3F84017D3F844175E
:10439C004C00F9D42AB9D3F8482722F00102C3F80B
:1043AC0048270E4B0E4A1B68B3FBF2F30A4A03EB89
:1043BC0043135BB1D2F84017D2F84417490001D42B
:1043CC0002B070BD013BF4E70648F9E70648F7E791
:1043DC00080100200000AD0B00200E502C00002026
:1043EC0040420F000C00AD0B0700AD0B2DE9F04166
:1043FC000446007A1D46FFF7B1FE1A4B1746984249
:10440C0006469DF8188029D12046FFF767FEEFF38A
:10441C001180202383F31288BFF36F8F227A124B03
:10442C009200134400221A60217AC5F31305090186
:10443C0001F1A04101F562211B68C1F82075C1F89A
:10444C00245580F31188BFF36F8FB8F1000F05D09E
:10445C000123227A9340054AC2F824333046BDE842
:10446C00F08100BF0000AD0B00210E5000200E505B
:10447C00F7B5254A002053689268DB4303F06703C5
:10448C0013401C46012607460CBB01271F4B1E4D33
:10449C00D3F820630640287D07FA00F333420FD08F
:1044AC00E96869B10201D5F810C002F1A04202F529
:1044BC006222D2F82435D2F82025CDF800C08847E6
:1044CC000134052C05F10C05E5D103B0F0BD94FACF
:1044DC00A4F5B5FA85F5AA0002F58071920806FAE2
:1044EC0002F213420BD001F1A04101F56221D1F887
:1044FC0000C0BCF1000F02D00F600968104306FA2F
:10450C0005F524EA0504BFE70801002000200E5041
:10451C0010B50446FCF7D4FF03480121034A01F00F
:10452C00DFFE204602F063FA8C770000E081000089
:10453C002DE9F84304460D4600AFEFF31188202314
:10454C0083F31288BFF36F8F0428294A98BF294B35
:10455C00E9468AB09668117C98BF53F820306A46B9
:10456C0088BF254BC2E9073140F2013323489384BD
:10457C00234BC2E9050442F8103F00234FF431519C
:10458C002048FDF781F8CD4645B1EB69C3F308032C
:10459C0023B101211C4A1B4801F0A2FE2EB130466A
:1045AC0002F06AFA08B1037803B91848E9468AB0F0
:1045BC006A46174BD061C2E9053640F201331384C9
:1045CC00144B42F8103F00234FF411510D48FDF7E6
:1045DC005BF82946CD462046FFF79AFF88F31188F1
:1045EC00BFF36F8F3046FDF74DFEBD46BDE8F88337
:1045FC0030090020E4790000EF8100000582000002
:10460C00050000018C7700002D820000FD81000068
:10461C004E8200000400000138B5094B53F82040CD
:10462C00013053F82050A54200D838BD636823B13F
:10463C00204602F0E4F90834F5E723689847FAE7D6
:10464C00F8790000012270B52A4B032086B01A704D
:10465C00FFF7E2FFFDF7DCFA02F0EDF90420FFF7BB
:10466C00DBFF254C254D2646AE4204F1300410D319
:10467C0000F02EFB204C224EAC4226D300F03CFB2B
:10468C00FCF766F81F4A137B23F00103137306B083
:10469C0070BD54F80C3C059354F8103C049354F83A
:1046AC00143C039354F8183C029354F81C3C0193AB
:1046BC0054F8203C009354E90A2354E90C0100F00F
:1046CC001BF954F8303C5E65CDE7D4E90A23B3F10D
:1046DC00FF3F08BFB2F1FF3F05D052EA030120684B
:1046EC0003D102F0CBF93034C6E73146183000F074
:1046FC00B9FCF8E766090020447700004477000015
:10470C00B76B00000807002008B50348034A0021D6
:10471C00121A02F08CF908BDC001002068090020B3
:10472C000023012270B586B0CDE904230F2201933A
:10473C00CDE9023214234FF4A0720E4D0E4E03FB42
:10474C0000550E4906EBC016044602FB00110C4B3B
:10475C003046009500F0D0F8737B2C7423F00403E2
:10476C007373084B013403EBC423EE606B6006B02B
:10477C0070BD00BF3009002088060020681400209E
:10478C00456A0000680C0020BFB50020FFF744FF0D
:10479C002C4B03F5006282F3088883F30A8800240B
:1047AC00E023294D294E85F82230EC772C766C7657
:1047BC00AC766B6A264F43F4E0236B6285F823409A
:1047CC00FDF7DEFCFDF76AFE4FF0FF33AB62EB62E8
:1047DC00FEF70CF8FDF78AFEFCF7E2FD40F2011241
:1047EC001C4B1D4D9A81B360C3E91844DC6602F082
:1047FC00F2F80120FFF710FF0220FFF70DFF00F089
:10480C009BFA164B75610593012315494FF4806291
:10481C00CDE9034328463B46CDE90144009400F022
:10482C006BF806466A7B284622F004026A7302F093
:10483C0061F92046FFF774FF3A4631462846FDF7EA
:10484C0009FE00BF680C002000ED00E030090020DC
:10485C00514600008807002008070020457A000018
:10486C00A815002038B50446EFF31185202383F3F7
:10487C001288BFF36F8F02F0B2F948B10022826741
:10488C0002F038F92946BDE83840074800F0DCB999
:10489C00D4E902329A4218BF0133A36085F3118820
:1048AC00BFF36F8F38BD00BF6709002013B5EFF35E
:1048BC001181202484F31288BFF36F8F846844B174
:1048CC00013C846081F31188BFF36F8F002002B02C
:1048DC0010BD52EA030406D181F31188BFF36F8F28
:1048EC006FF00F00F3E7CDE900230246014800F01A
:1048FC007FF9ECE7670900202DE9F043984685B075
:10490C0000F15803C0E91633109B002603730423EF
:10491C00073222F0070543730F9B01EB05090F4685
:10492C0083734946C0E906668660C6730446FDF784
:10493C00DDF90E9B073020F00700A066C4E918755E
:10494C0002930D9BA9EB000901930C9B4A46009323
:10495C00394643462046FDF761FD054B66659B686D
:10496C0003B1DB6E4846E36605B0BDE8F08300BFDB
:10497C0030090020F0B5002587B00595109DDDE9C4
:10498C00127604950F9D044603950E9D02950D9D80
:10499C0001950C9D0095FFF7AFFFB6F1FF3F08BFE7
:1049AC00B7F1FF3F05D056EA070305D1204600F0CA
:1049BC005DF9204607B0F0BD3A463346024904F192
:1049CC00180000F04FFBF4E7B76B000038B50D4D45
:1049DC002B4653F8184F9C4200D004B9EC68AB68D6
:1049EC0038B95A7BD20604D1A26912B9DA897F2A66
:1049FC0005D89C4202D0204600F07CFA23466B611D
:104A0C0038BD00BF3009002008B590F90D200146D3
:104A1C00002A437B04DA03F07F03437302F030F87F
:104A2C00044B9868431A58425841BDE80840FFF7B8
:104A3C00CDBF00BF3009002070B490F90D30427B1F
:104A4C00002B29DBD30627D183692BBB134962F0DA
:104A5C007F0242730A4652F8184F944218BF2346FD
:104A6C00CC6923B9C0E900242060C8610CE090F93E
:104A7C000E5093F90E60B5420AD0AE4208DD5A686A
:104A8C00C0E9003210605860002070BCFFF79EBF78
:104A9C009C42E7D01B68E4E770BC704730090020EB
:104AAC00002A2DE9F0410E460CBF10210821427B53
:104ABC00044611420FD141EA0203D20918D14373C3
:104ACC0008291BD00120FFF781FFBFF35F8F637BA9
:104ADC0023F060036373274B9B68A34243D1EFF32E
:104AEC000583002B3FD13046BDE8F041FDF7E0BB1C
:104AFC0003F07F03437301F0C3FFE1E7A36813B135
:104B0C00204601F0C5FF04F1180002F0A5F8A56DD0
:104B1C0004F15807AF4211D04FF0000875B1284688
:104B2C0001F0B6FF05F1180002F096F82846C5F81A
:104B3C007880FFF781FFA56DAF42EFD10D4DAB68CB
:104B4C009C42BFD1EFF30583002BBBD00120FFF7B4
:104B5C003DFF40F20112084B9A810022AB60C3E981
:104B6C001822DA66B1E786F31188BFF36F8FBDE8C0
:104B7C00F08100BF300900208807002070B590F943
:104B8C000D200146002A437B04DA03F07F034373B4
:104B9C0001F076FF154A4B7B104663F07F034B7395
:104BAC0050F8183FD469834208BF002323B9C1E9E8
:104BBC0000042160D1610CE091F90E5093F90E6064
:104BCC00B5420ED0AE420CDD5868C1E90030016030
:104BDC0059609068BDE87040431A58425841FFF73D
:104BEC00F5BE9C42E3D01B68E0E700BF3009002013
:104BFC00F8B5124B0C46DDE9067611469868104A5A
:104C0C001060EFF31182202282F31288BFF36F8FB2
:104C1C009D68284601F046FFB6F1FF3F08BFB7F18B
:104C2C00FF3F06D03A463346064905F1180000F01E
:104C3C0019FA2046BDE8F840FDF73ABB30090020D0
:104C4C0050090020B76B000049B9EFF3058030B96B
:104C5C00054B5A699B689A4201D0FDF729BB81F339
:104C6C001188BFF36F8F70473009002010B5EFF338
:104C7C001184202282F31288BFF36F8F427B51077D
:104C8C0004D484F31188BFF36F8F10BD22F004029B
:104C9C004273FFF7D1FE2146BDE810400148FFF7F3
:104CAC00D3BF00BF67090020034648B9EFF3058264
:104CBC0032B9064A51699268914201D0FDF7F8BAAF
:104CCC0083F31188BFF36F8F704700BF300900204A
:104CDC00EFF31181202383F31288BFF36F8F054B01
:104CEC009A68D37B013BD37381F31188BFF36F8F29
:104CFC00704700BF3009002038B5EFF31185202430
:104D0C0084F31288BFF36F8F0A4B00209A68D37B11
:104D1C000133D373FFF75AFE85F31188BFF36F8FFE
:104D2C00EFF3118084F31288BFF36F8FBDE8384026
:104D3C00FFF7BABF30090020024B03F11802C3E998
:104D4C000622704730090020F8B5EFF311852023B7
:104D5C0083F31288BFF36F8F19498868437B03F084
:104D6C007F03437301F08CFE08468B685A7B62F01C
:104D7C007F025A7350F8182FCC69824208BF002268
:104D8C0022B9C3E900042360CB610CE093F90E60F7
:104D9C0092F90E70BE420ED0B7420CDD5168C3E9D9
:104DAC0000210B6053600120FFF710FE2846BDE880
:104DBC00F840FDF77DBAA242E3D01268E0E700BFED
:104DCC003009002050EA01032DE9F04105460E465A
:104DDC0003D1FFF7B9FF00202BE0831C71F1FF33E7
:104DEC0029DB01F04EFF2C18EFF31188202383F3FD
:104DFC001288BFF36F8F124F124BB8681860FFF711
:104E0C0003FEB86810492A463346183000F02AF9D8
:104E1C00BA684046537B43F010035373FDF748FACE
:104E2C0001F02FFF201A63EB0303012873F1000339
:104E3C00D1DBBDE8F0816FF00104241AD4E700BF88
:104E4C003009002050090020B76B0000B1F1FF3F82
:104E5C0008BFB0F1FF3F38B506D10B4B986801F095
:104E6C0058FE4FF0FF3038BDFFF7ACFF4FF47A75AA
:104E7C000446002147F6112047F612220023C4FBFA
:104E8C000501FBF7F5FAEEE730090020014B9868B5
:104E9C00704700BF300900200122044BC01A044B9C
:104EAC00C0105843034B1A54704700BF0808002029
:104EBC00ABAAAAAA67090020C3897F2B12D80A4B78
:104ECC001B6863B1094B90F90E201B689A4209DBF1
:104EDC00437BDB0606D1064BC31A18BF012303F034
:104EEC00010070470023FAE75809002054090020FC
:104EFC008806002070B50E4B0E4C1E7C054606EB4A
:104F0C00460304EBC304204601F0A6FE00220A4B24
:104F1C0028469A55FFF7D0FF48B1084B2046BDE80C
:104F2C0070401A680649013AD31700F09BB870BD5F
:104F3C0030090020080800206709002058090020CB
:104F4C00A54E000038B5EFF31185202383F31288AA
:104F5C00BFF36F8F104B114A9C681068A04206D1AA
:104F6C00FFF7C8FF85F31188BFF36F8F38BD0021A1
:104F7C001B7C11600A4AD35C002BF3D02046FFF750
:104F8C009BFF0028EED0637BDB0602D12046FFF7A7
:104F9C00F5FD2046E4E700BF300900205009002051
:104FAC006709002008B50648064A0749121A01F09D
:104FBC0040FDBDE80840054A0549064801F039BDE9
:104FCC0000000020BC010020C48200000000000092
:104FDC00C482000000000020034B1B680BB9FEF7D5
:104FEC00F1B90020704700BF5C09002030B570B1EA
:104FFC000B4B5B6898420AD0036843B1D3E9042198
:10500C00D0E90445121941EB0501C3E90421D0E9AB
:10501C00003213605A600023C0E9003330BD00BF7A
:10502C005C01002010B50E4B1C689C4204D1FFF7AC
:10503C00D3FF6FF0004010BDFFF7CEFF002CF8D06F
:10504C00D4E904321B1A62EBE072B3F1004F72F137
:10505C000001EEDA002AACBF18460020EBE700BFD7
:10506C005C010020B3F1FF3F08BFB2F1FF3FF8B580
:10507C0004461D4616465ED08160EFF3118720234F
:10508C0083F31288BFF36F8F013275F1FF3324DA8B
:10509C006FF001032D49D1E900209B1A4FF0FF322C
:1050AC0062EB00009E1B60EB0500012E70F100030B
:1050BC0001DA01260020C4E90460254ED6F800C0B0
:1050CC007568B44508BF4FF0000CBCF1000F0DD152
:1050DC00C4E900652C6074601CE0FFF77DFF0136AD
:1050EC0045F10005361845EBE070E4E7DCE90420F7
:1050FC00D4E90431934271EB000E1DDAD21ADCF8BC
:10510C00043060EB0100CCE90420C4E900C31C604E
:10511C00CCF804403368B34209D09C4207D10D4B04
:10512C001C6824B9FFF77EFF2146FEF761F987F36F
:10513C001188BFF36F8FF8BD9B1A61EB0001AC4572
:10514C00C4E90431C4D0DCF800C0BEE7200800205C
:10515C005C0100205C0900202DE9F84FEFF3118C65
:10516C00202383F31288BFF36F8FDFF8B0A0DFF832
:10517C00B0900024C9F80000DAF800000025504572
:10518C0008BF0020274FE046D7E90021D9F80030AE
:10519C0078B3D0E9046C4FEAE37EB3427EEB0C0BA0
:1051AC0005DAF61A6CEB0E04C0E9046421E0B218BF
:1051BC0041EBE671C0E90445C7E90021FFF716FF92
:1051CC0088F31188BFF36F8F83689847EFF31188CA
:1051DC00202383F31288BFF36F8FD9F80030DAF8ED
:1051EC0000009B1B5045C446C9F80030CBD1D7E911
:1051FC00002100249A1841EBE373C7E90023C9F896
:10520C000040FFF70FFF2146FEF7F2F888F31188F4
:10521C00BFF36F8FBDE8F84FFFF794BE5C01002021
:10522C005C0900202008002010B5EFF31184202326
:10523C0083F31288BFF36F8FFFF7CEFE0346054A48
:10524C00D2E90001181841EBE37184F31188BFF324
:10525C006F8F10BD20080020F8B50446EFF31187BE
:10526C00202383F31288BFF36F8F026822B187F378
:10527C001188BFF36F8FF8BDD0E90A36581C46F180
:10528C000001022871F1000127D3012B76F10001F6
:10529C00BCBF012316465D1E46F1FF3601F0F5FC3E
:1052AC00013041F10001401946EB0101012871F177
:1052BC00000139DB01F0E9FC013041F100016FF034
:1052CC000102401946EB01034FF0FF31121A61EB5A
:1052DC00030320461749FFF7C5FE236B01332363F5
:1052EC00236A6BB187F31188BFF36F8F2046236A53
:1052FC009847EFF31187202383F31288BFF36F8F46
:10530C0054F8185FA542B2D0002DB0D0284601F059
:10531C001AFC0023AB6787F31188BFF36F8F284605
:10532C00BDE8F84001F0E6BB6FF001024FF0FF332F
:10533C00CFE700BF655200002DE9F04105461C4641
:10534C0090461F46EFF31186202383F31288BFF398
:10535C006F8FB4F1FF3F08BFB2F1FF3F05D186F369
:10536C001188BFF36F8FBDE8F081531C74F1FF33CC
:10537C0009DB012A74F10003BCBF0122002412F1E5
:10538C00FF3844F1FF37284601F066FCDDE90601E1
:10539C000023C5E90A012B6342463B4628460249D5
:1053AC00FFF760FEDBE700BF655200000CB430B5C0
:1053BC0089B005460C461C22002101A801F09CFC7A
:1053CC00022305958DF806300D4B029323462CB124
:1053DC00B4F1004F28BF4FF00043013B1D440DAA10
:1053EC000C9901A80695009200F00CF814B1059BDD
:1053FC0000221A7009B0BDE8304002B0704700BFFF
:10540C00D96D00002DE9F04F43688DB015468046EC
:10541C00029383789A0740F10D8100240E78002EB8
:10542C0000F00A81252E0BD04B1C0393013441460E
:10543C003046029B98470028C0F2F6800399EDE7AE
:10544C004E788B1C252E0393F0D00027B946BB4613
:10545C00BBF11F0F38D8A6F12003102B0AD8DFE8B8
:10546C0003F02A0909300909092109090928092D1C
:10547C0009091F00A6F13003092B33D92A2E37D185
:10548C001BF0400F55F8043B40F08280002BA7BF67
:10549C004BF0200B9946C3F100094BF0280B01E0AF
:1054AC004BF0010B039B13F8016B0393002ECFD130
:1054BC0030E04BF0020B4BF0040BF3E74BF0080B16
:1054CC00F0E74BF0100BEDE7BBF17F0F19D8A6F10D
:1054DC003003092BD2D81BF0400F03D00A2101FB5B
:1054EC000737DFE70A214BF0200B01FB0939D9E71D
:1054FC002E2E06D11BF0400F40F09E804BF0400B3F
:10550C00D0E76C2E31D02BD8682E36D06A2E3CD0FA
:10551C004C2E3AD0002F46F02003B8BF2BF040029F
:10552C00A3F16501BCBF00271FFA82FB022901D938
:10553C00612B2FD107350727DFF8ACA225F0070523
:10554C0008351BF0080F66D00AEB070B56465E4574
:10555C0063D1A4EB0A0AA9EB070906EB0A026FE177
:10556C00742E9FD07A2E9DD0D4E71BF0800F18BFDD
:10557C004BF4007B4BF0800B94E71BF4807F18BF3F
:10558C004BF4007B4BF4807B8CE74BF4207B89E75E
:10559C001F4687E7A6F16301122900F2F080DFE8CD
:1055AC0011F013004F00EE00EE00EE00EE004F0085
:1055BC00EE00EE00EE00EE00EE00FE00E900EE0064
:1055CC00EE001B00EE00AF0055F8043B01270DF177
:1055DC00180A8DF81830B4E755F804AB834BBAF1C0
:1055EC00000F08BF9A461BF0400F504614BF3946B7
:1055FC004FF0FF3101F088FB0746A2E7414620201F
:10560C00029B984700280FDB013EB742F6D34C446F
:10561C00B146A41B98E74E46F7E7414616F8010B36
:10562C00029B9847002892DA98F8023043F0040362
:10563C0088F802304FF0FF3420460DB0BDE8F08FF3
:10564C001BF0800F34D01BF4007F2CD0073525F0D5
:10565C000705AA4669685AF8080B2BF010050029B3
:10566C00ADB237DA404245F4806561EB41010DF192
:10567C00180B0A235A4601F053FBA0EB0B030193C2
:10568C006B0662D5019B25F001019F4289B240F364
:10569C00A180002E00F0998015F0100240F09C8043
:1056AC00BB460D4623E0AA465AF8040BC117D4E7B3
:1056BC00AA461BF4807F5AF8041B01D10846F5E773
:1056CC001BF4007F19BF48B241F3C01108B241F37B
:1056DC00C031C2E750EA0103C9D11BF0400FC6D05C
:1056EC00002FC4D12BF01102BB46019795B240F2AA
:1056FC00064115EA01021CBF0BF1010B00222CE044
:10570C002BF010020A231FFA82FB1BF0800C49D0ED
:10571C001BF4007115BF0735AA4625F007055AF88A
:10572C00040B1EBFAA4669685AF8080B50EA01051B
:10573C0045D12BF016051BF0400FADB242D0002F17
:10574C0040D12BF01702019795B215F0100248D0FA
:10575C00019B002E42D103F1010B29075AD4EB0710
:10576C0006D5D9456FDDA9EB0B030199CB465F1824
:10577C005B4649E04BF0100B10237826C5E7782BDD
:10578C0004D1C6F1780343F01003BEE7414625204F
:10579C00029B98470028FFF647AF023447E60823E0
:1057AC000026B2E7AA461BF480715AF8040BBDD050
:1057BC001BF400711ABFC0B2614680B2B6E72BF081
:1057CC00060295B20DF1180B54E725F01105BB46F6
:1057DC00ADB28CE70D46B8E73B460D4603F1020B24
:1057EC00BBE7DDF804B082E7BA820000B3820000A8
:1057FC00CDE9043241462020029B98470028FFF651
:10580C0013AF049B059A01339945F1DCA4EB0B0112
:10581C009B46CC180AB341463020029B984700287F
:10582C00FFF602AF8EB901342744391B019B994214
:10583C0024DC1D4655BB019AA9EB0B0955462244A5
:10584C001446914433E0019F92E7023441463046BE
:10585C00029B98470028E7DAE6E640F206410D4243
:10586C00E2D015F0020F04F10104414614BF2B20C5
:10587C00202015F4806F18BF2D20E9E74146302019
:10588C00029B013498470028CFDACDE606AB013DE8
:10589C004146585D029B98470028CBDAC4E6414646
:1058AC002020029B013498470028FFF6BDAEA9EBDF
:1058BC000403002BF3DCC1E57047836800EBC101E6
:1058CC00B3F5004F2CBF51F8220031F8120070478D
:1058DC0000EBC1018068B0F5004F2CBF41F82230BD
:1058EC0021F812307047012208B5FFF7E6FFD040CF
:1058FC0008BD836800EBC101B3F5004F08D34B68BA
:10590C001AB143F001034B60704723F00103FAE72F
:10591C004B881AB143F001034B80704723F001030D
:10592C00FAE753000122FFF7D3BFB0F5004F34BFA5
:10593C0004230823481C0833A0EBD300B0FA80F0F2
:10594C00C0F11F0070472DE9F0410D4686680446F2
:10595C00FFF7C9FFB6F5004F014601D3012832D03D
:10596C003046FFF7E2FF04EB80010E6996B9012285
:10597C00E36882401343E36002220D612B46294603
:10598C002046FFF7A5FF032229462046BDE8F0413B
:10599C00FFF79EBF022231462046FFF78EFF0746D7
:1059AC00034629462046FFF793FF03223346294638
:1059BC002046FFF78DFF39462B462046FFF788FF20
:1059CC0002223146E1E7BDE8F081B2F5802F2CBF11
:1059DC00082304232DE9F0410026D21A8C18CD1D82
:1059EC0025F0070524F00704641BE4080560214634
:1059FC002046AC60EE60FFF798FF421D920001302C
:105A0C0002F107074FEAD7073146A2F1100205F160
:105A1C001000B8BF324601F06FF93A4631462846BD
:105A2C00FFF77FFF3346324631462846FFF750FFDB
:105A3C00A4EB0708284631460122FFF75AFF4246DD
:105A4C003946FFF76EFF3B46324639462846FFF78C
:105A5C003FFF21462846FFF764FF43463246214666
:105A6C002846FFF735FF214628460122FFF741FF64
:105A7C003946BDE8F041FFF766BF2DE9F047064611
:105A8C000D46174698462BB34FF0000A98F8004085
:105A9C0093F80190DB78A40004EB430498F80230EF
:105AAC001C444444CA4509D339463046AC46D8F860
:105ABC00042008F10803BDE8F047604714F8013BE7
:105ACC000AF1010A204648F82340FAF7EBFC0130B2
:105ADC000444E7E76FF01500BDE8F08770B50025CA
:105AEC0002462846144614F8013B0BB9184609E047
:105AFC0098B18D4207D1702B04D0A3F140023A2A01
:105B0C000BD8002070BDA3F140063A2E05D853786F
:105B1C000135941C002BE9D00020252B224608BF10
:105B2C0080F00100DEE7002070470FB407B504A930
:105B3C0051F8040B019100F05AFB03B05DF804EB33
:105B4C0004B0704710B50369024613F0080009D180
:105B5C001368D4689C429BBF0120126AE31AD31AC3
:105B6C000B6010BD00231846FAE713B501A90446D3
:105B7C00FFF7E8FF20B1019BE268013B134401935E
:105B8C00206A019BC01A013802B010BD10B5044642
:105B9C0050182269236AD20702D5013B184010BD68
:105BAC00984228BFC01AFAE710B504460A46C168E5
:105BBC00FFF7ECFF2369E06023F00803236110BDBD
:105BCC0038B50D46C2698B00016843F002030446E8
:105BDC0042F8213001682A46FFF7D8FFE368616874
:105BEC00984208BF2369206008BF43F008032A4687
:105BFC00204608BF2361FFF7C9FF606038BD2DE95F
:105C0C00F74FC768C6699B4616F82730044603F061
:105C1C000303022B884691464FF0000306EB870ADC
:105C2C0009D01360CBF800302369990710D40020F9
:105C3C0003B0BDE8F08F56F8271013608908CBF835
:105C4C000030F1D0FFF7B0FFE368A3600120EFE76D
:105C5C00A3695046984716F827300546DA07E6D56B
:105C6C0013F002031DD0B8F1000F03D041462046BB
:105C7C00FFF7A6FF61682A462046FFF787FFD4E9A5
:105C8C0002319942606004D12A462046FFF77EFF1C
:105C9C00A060A3682360E360236943F008032361D9
:105CAC00D4E7014620460193FFF77EFFE268A2602D
:105CBC00B8F1000F04D02168E269019B42F8213051
:105CCC0005EB0802CBF8002021682046FFF75EFFA9
:105CDC002369206043F00803236116F827306FF323
:105CEC00000306F82730C9F800A0AFE770B50446EA
:105CFC001546FFF74BFF2368834205D123692160CA
:105D0C0023F00803236170BDE269AB0043F002038A
:105D1C0042F8213061682A462046FFF737FF606061
:105D2C00F1E738B5036904465B0706D5456AFFF70A
:105D3C001CFF85422CBF6562606238BD38B50D46CC
:105D4C0004461C22002100F0D7FF0022EB68A3615F
:105D5C00AB6863612B68E3616B68626223622A69DA
:105D6C0023B1591E194208BF42F0010222610122DF
:105D7C0004F128000021BDE8384000F068BE2DE990
:105D8C00F04F002587B00093036A04468B420E4601
:105D9C009246A9460395059539D3EFF3118B202331
:105DAC0083F31288BFF36F8F059AD8462AB1294620
:105DBC002046FFF79BFF0023059304A92046FFF71D
:105DCC00C1FE04990746B1422AD32268E3692046F2
:105DDC0013F8221003EB820921F0030103F82210BF
:105DEC0021683246FFF7D2FEE3682060984212D059
:105DFC00002788F31188BFF36F8F039929B162696B
:105E0C000AB12046904700230393002FC5D1484682
:105E1C0007B0BDE8F08F236943F008032361E7E77F
:105E2C0018B12046FFF7CCFEE3E7009B5AEA0303C8
:105E3C0019D0019100F017FE0199A0B98BF31188CC
:105E4C00BFF36F8F5246009B04F12800FEF72EFD26
:105E5C00EFF31188202383F31288BFF36F8FB0FA0E
:105E6C0080F77F09C5E7204605AB03AA2568FFF735
:105E7C00C6FE0746BDE770B50446836908460D4665
:105E8C0098470246EFF31186202383F31288BFF361
:105E9C006F8F2B78204643F001032B706168FFF75E
:105EAC0075FE60602046FFF73CFF86F31188BFF358
:105EBC006F8F70BD2DE9F04104462027EFF311865A
:105ECC0087F31288BFF36F8F236913F0080FA36851
