:020000040000FA
:1000000050110020150D000079440000010D000082
:10001000010D0000010D0000010D0000010D0000A8
:10002000000000000000000000000000C10E000001
:10003000010D000000000000810E0000010D000015
:1000400029100000291000002910000029100000CC
:1000500029100000291000002910000029100000BC
:1000600029100000291000002910000029100000AC
:10007000291000002910000029100000291000009C
:1004700029100000291000002910000053B94AB9C2
:10048000002908BF00281CBF4FF0FF314FF0FF309C
:1004900000F00CB8ADF1080C6DE904CE00F008F8DE
:1004A000DDF804E0DDE9022304B07047704700BFC7
:1004B0002DE9F04786468C460846089E1546744648
:1004C0001946002B40F0C1808542B2FA82F245D92C
:1004D0004AB1C2F1200300FA02FC954094402EFA82
:1004E00003F343EA0C0C4FEA154EA8B2230CBCFBF5
:1004F000FEF80EFB18CC08FB00F943EA0C439945C3
:1005000028D9EB1808F1FF3704D2994502D9A8F190
:1005100002072B44A3EB0903A4B2B3FBFEFC0EFBC2
:100520001C330CFB00F044EA0344A04214D92C19FC
:100530000CF1FF3304D2A04202D9ACF102032C44E7
:10054000241A43EA07401EB1D4400023346073608C
:10055000BDE8F0874746DDE76346F1E792BB431B02
:1005600001214FEA154EAFB2200CB3FBFEFC0EFB8F
:100570001C330CFB07F840EA0343984561D9EB189C
:100580000CF1FF3004D2984502D9ACF102002B44A3
:10059000A3EB0803A4B2B3FBFEFC0EFB1C330CFB65
:1005A00007F744EA0344A7424DD92C190CF1FF3355
:1005B00004D2A74202D9ACF102032C44E41B43EA63
:1005C0000040C0E7C2F120039540944020FA03F1B7
:1005D0002EFA03F34FEA154E9040AFB20343B1FB3E
:1005E000FEFC0EFB1C10190C0CFB07F841EA004145
:1005F000884522D969180CF1FF3004D2884502D908
:10060000ACF102002944A1EB08019BB2B1FBFEFC56
:100610000EFB1C110CFB07F743EA01439F420ED966
:10062000EB180CF1FF3104D29F4202D9ACF1020168
:100630002B44DB1B41EA004193E76046E3E7614658
:10064000F7E76046A4E76346B8E7834206D916B9E0
:10065000002108467CE7C6E900E0F9E7B3FA83F732
:100660008FB9834201D3724508D8BEEB020460EB18
:10067000030301209C461EB9002169E73846FAE7CA
:10068000C6E9004CF8E7C7F1200CBB400EFA07F5AD
:1006900022FA0CF42EFA0CF1BA401C4320FA0CF3A7
:1006A000B8404FEA144901431FFA84FEB3FBF9F83E
:1006B00009FB18300B0C08FB0EFA43EA00439A457D
:1006C00040D9E31808F1FF3004D29A4502D9A8F1C5
:1006D00002002344A3EB0A0389B2B3FBF9F809FB38
:1006E000183308FB0EFE41EA03418E452CD96118F0
:1006F00008F1FF3304D28E4502D9A8F10203214448
:1007000043EA0040A1EB0E01A0FB02984145CE4612
:10071000434602D306D14D4504D20138B9EB020E4F
:1007200068EB0403002EA7D0B5EB0E0261EB0301CA
:1007300001FA0CFC22FA07F3F9404CEA0303C6E97C
:10074000003199E74046C5E74346D9E7014B1B68AE
:10075000184700BF00000020014B1860704700BF21
:100760000000002030B585B004460D46102200215F
:10077000684604F04FFA02238DF80230044B2A46F3
:1007800021466846019303F049FA05B030BD00BF29
:100790004D07000080B505460E461746984603F003
:1007A00057F8034604F0A0FA0446DFF818904246D2
:1007B00049F8003039463046A84754F8090000F09F
:1007C00011FB00BF080000002DE9F047058B04462F
:1007D0002807904611D4022905F0070540F0CC8087
:1007E000204603F067FD78B10138218B042811D829
:1007F000DFE800F0C2106D85950001290CBF45F0BF
:10080000100545F02005258388F31188BFF36F8F0D
:10081000BDE8F08701F0070AAA4500F0A58000278F
:10082000B9463E46A368002B00F0BC8041F00801A9
:10083000218388F31188BFF36F8FA168002900F02E
:10084000BA800D68002900F0B68033465246204633
:10085000D1F80480C047002D76D02B6829461D466C
:10086000F0E701F007035A1F012A1BD8002221F0EC
:100870000701062B276889B2C4E9002209D13B464B
:1008800003E0628B013262831B68002BF9D141F0D7
:1008900002012046218303F00DFD00287AD041F0AB
:1008A000200176E0042B0AD121F0070189B220460D
:1008B000218303F0FFFC10B141F020012183218B43
:1008C00001F0070AAA454FD00027B946AAE72369D5
:1008D00021F0070141F00601062DD3F80090218395
:1008E0002DD1B9F1000F3FD041F00801218388F3E9
:1008F0001188BFF36F8F20463949C84729E021F09E
:100900000701236941F0040189B2042DD3F8049052
:100910002183E6D000274FF0040A3E4682E721F00B
:100920000701236941F0050189B2052DD3F808902C
:100930002183D6D000274FF0050A3E4672E70027F4
:100940004FF0060A3E466DE72B4687E7B9F1000FE8
:10095000D1D1EFF31188202383F31288BFF36F8F77
:10096000238B23F008032383258BEA062ED525F05D
:100970001003238305F007056669218B002EBFF65F
:1009800070AF00232768C4E9003321F0070141F06C
:1009900001012183218B4FF0000901F0070AAA45CC
:1009A0007FF440AF002F9CD041F00801218388F3F1
:1009B0001188BFF36F8F002FC8D03D68394633468A
:1009C0005246204603F0A2FC2F46F4E7AB067FF523
:1009D0001BAF25F02003238305F0070500E700BFC8
:1009E00039430000014B0360002070477856000037
:1009F00008B5044803F051FCBDE80840024803F084
:100A00004CBC00BFF45700002958000030BFFFF76E
:100A1000FDBF00BF2DE9F04105460B4EDFF82C80ED
:100A2000324606EB0807CC1B2046094904F0E5F8DE
:100A3000A01942460021083C04F0ECF82C6707F1AD
:100A40000800BDE8F08100BF0000000004000000C5
:100A50003C560000074A936893F90E10002907DB03
:100A6000526993421FBF044A536843F08053536056
:100A7000704700BFD803002000ED00E0154B9A6AD4
:100A800012F0007F9A6A14BF1E201D2012F0807F92
:100A90009A6A18BF1F2012F4801F9A6A18BF02209A
:100AA00012F4002F9A6A18BF212012F4802F9A6A3C
:100AB00018BF222012F4003F9A6A18BF232012F4B4
:100AC000803F9A6A18BF24206FEA02426FEA1242FE
:100AD0009A62704700ED00E010B5194B0246986A23
:100AE0009C6A10F4805F14BF1720162014F4006F66
:100AF0009C6A18BF1820A40509D5986B986A000451
:100B000004D51AB19A6A22F400429A6219200C4B59
:100B10009A6A12F4806F9A6A18BF1A20D2050CD410
:100B20009B6A13F4005F18BF1C20054A936A43F4C4
:100B30007F43936200230B7010BD1B20F5E700BFBD
:100B400000ED00E010B51C4B0246986A9C6A10F05C
:100B5000100F14BF1120102014F0080F9C6A18BF4A
:100B60001220A40709D5586B986A000604D51AB15B
:100B70009A6A22F080029A6213200F4B9A6A12F04E
:100B8000010F9A6A18BF142012F0200F9A6A18BF3A
:100B90001520D40658BF9B6A074B9A6A920642BF3B
:100BA0005A6A22F400525A629A6A42F0FF029A622A
:100BB00000230B7010BD00BF00ED00E0F0B5474B07
:100BC00004465B6800258BB0C3F3080385F31188E6
:100BD000BFF36F8F02F07F40B0F17F4F11D102F071
:100BE0000C0008280DD010074CBF0C460125002230
:100BF000033B8DF80720032B05D8DFE803F02462C0
:100C0000665F2C46F3E700239DF80720CAB902AEC1
:100C100004F12007324620686168083403C2BC42F0
:100C20001646F7D1099A002D53D0C2F3080121B915
:100C30006FEA52226FEA42220992184602A903F093
:100C400011FC0BB0F0BD254BDA6A9107DBD4DA6AF0
:100C5000002AD8DBDA6A5200D5D55A69A16942F474
:100C600080725A61BFF34F8FBFF36F8F5A6931F8AB
:100C7000021C22F480725A61BFF34F8FBFF36F8F53
:100C80004DF60272914209D09A6AD2B242B1012065
:100C90000DF10701FFF756FF0346B5E72368B3E7F9
:100CA0009A6A12F47F4F05D001200DF10701FFF77A
:100CB00013FFF1E79B6AB3F5803FA4D3FFF7DEFE95
:100CC000EAE700200DF10701E4E700200DF107013C
:100CD000EDE722F4FF7222F00102ADE700ED00E043
:100CE000064B5A6942F010025A615A6942F4806216
:100CF0005A615A6922F008025A61704700ED00E01B
:100D0000EFF30880EFF3098101B57246FFF756FF54
:100D100001BD00BF002080F31488BFF36F8F002057
:100D200080F30A8880F30B8801F03CF900200E491B
:100D30000860BFF34F8F0D4880F3088800F02CF84F
:100D4000202080F311880A484FF40061401880F396
:100D50000988EFF314800221084380F31488BFF35D
:100D60006F8F00F0EFF8000094ED00E050110020CC
:100D700010040020002318460649D1F89020C2F341
:100D80000722934200DB7047C1F89830C1F8A000F9
:100D90000133F6E700ED00E010B572B6002484F3ED
:100DA0001388FFF7E7FF23464FF0FF300C4A03F1AB
:100DB00020010133102B42F82100F8D100234FF01D
:100DC000FF30074A03F160010133102B42F8210084
:100DD000F8D162B6BFF34F8FBFF36F8F10BD00BF66
:100DE00000E100E0084B9B6883420BD1EFF30583E1
:100DF00043B1064B5A6842F080525A605A6A22F454
:100E000000425A6203F0BEBED803002000ED00E0AD
:100E10006FF00A01084A93689967084958674B6858
:100E200043F080534B60002383F31188BFF36F8F2F
:100E30009368986F704700BFD803002000ED00E072
:100E4000EFF31183202383F31288BFF36F8F4FF0EA
:100E50000061084A53699360074A5160196F074A55
:100E6000116000215A6F596782F31188BFF36F8FA9
:100E7000704700BFD803002000ED00E01003002001
:100E80000E498A684FF030001044EFF3098C80E877
:100E9000F01F74467046FFF7D3FFA64607498A68DD
:100EA00002F1300090E8F01F8CF3098802F1000095
:100EB00004B503F0ECFABDE804407047D803002005
:100EC0001EF0040F0CBFEFF30880EFF30980816977
:100ED00011F8021C0229FFD001B503F0C9FA01BDC7
:100EE00000B2002807DB01234109034A00F01F007C
:100EF000834042F82130704700E100E0054B420991
:100F000053F82220012300F01F0003FA00F01040E4
:100F1000704700BF00E100E000B2002801F10101CC
:100F2000ACBF00F16040064B4FEA4111C9B2ABBF04
:100F300000F5614000F00F0080F80013195470476D
:100F400014ED00E00B4A08B50B4B22F07F029A60CB
:100F5000BFF34F8FBFF36F8FD3F8882022F4700256
:100F6000C3F8882002F0E0F802F0FEFC00F04CF834
:100F700002F01AF90000000000ED00E042F8203C09
:100F8000009B0B4942F81C3C019B21F0010142F8F7
:100F9000183C029B42F8081C42F8143C4FF0807346
:100FA00042F8043C0023203A02654367704700BFC3
:100FB0009507000000B50D4B15469860026F0C4B6D
:100FC0000E461A60036E83F30B882C4686F309885D
:100FD0004FF00000074B984720464FF000014FF0BC
:100FE00000024FF00003044C204700BFD80300204C
:100FF0001003002097440000950700001022014BC9
:101000001A61704700ED00E00023202040F20F122B
:1010100010B5044CE1180133934281F80003F9D173
:1010200010BD00BF00E100E008B5EFF30583064AFC
:10103000103B02EBC30152F8330049688847BDE812
:101040000840FFF707BD00BFC44D00001FB5094CA5
:10105000094A23460121094800F0FAF800230393C6
:10106000074B0121E41A01A80193029400F0FAF859
:1010700004B010BD0080022000000020785600005F
:101080006801002010B50C7A0B6804F01F0223F0F1
:101090001F031A43CB68640923F01F03054943EA81
:1010A000440343F00103C1F89800C1F89C20C1F843
:1010B000A03010BD00ED00E010B5074BD3F8903024
:1010C000C3F30723013B984202D8FFF7DBFF10BDB3
:1010D0006FF01500FBE700BF00ED00E02DE9F04FD9
:1010E0000F46144606464FF000084D4D85B0B845F2
:1010F00080F29280D6F80490B9F1000F36D0B9F1A1
:101100001F0F40F2878019F01F0F40F08380D6F840
:1011100000A01AF01F0F7DD1504603F0DFF983467F
:1011200009EB0A00013803F0D9F9834572D11BF1AC
:10113000160F6FD05C456DDDC5F898B0D5F89C10E2
:10114000C5F898B0D5F8A03021F01F0143F01F0A70
:10115000D6E900321A44994202F1FF391ED1CA453C
:1011600008D131465FFA8BF003F0C1F908F10108AC
:101170000C36BCE73146C5F898B0D5F89C3022F063
:101180001F0203F01F031343C5F89C30E0B203F0C5
:10119000AEF910F1160F3DD0441CE7E7C5F898B042
:1011A000D5F8A020013B23F01F0302F01F021343D8
:1011B000CA453146E0B2C5F8A030E8D003F097F94F
:1011C00010F1160F26D0C5F898B0D5F89C209DF8E0
:1011D00008300AF1FF3A62F304038DF80830D5F8BD
:1011E000A0309DF808205B0863F347128DF80820B3
:1011F000D6E900321344009323F01F035344A3EBBA
:101200000903013023F01F036946C0B20393FFF7BF
:1012100053FFBEE76FF01504204605B0BDE8F08F20
:1012200000ED00E00522044BC3F89420BFF34F8F7C
:10123000BFF36F8F704700BF00ED00E0BFF35F8F1B
:101240000022024BC3F89420704700BF00ED00E07D
:1012500010B5034C2278FFF741FF207010BD00BF8E
:10126000080400202DE9F74F294D8A4606464FF025
:101270000008AB46274FD0451BDAD6F80490B9F1E9
:10128000000F3FD031680846019103F027F901991A
:10129000044609EB0100013803F020F984424FF0C5
:1012A00014021D4B08D002FB08F36FF015024BF837
:1012B000032003B0BDE8F08F14F1160F2C60F8D0B6
:1012C0001978A142F5DD02FB08B0C7F89840C7F8CD
:1012D0009840D7F89C4000F10801007B64F30400BB
:1012E0000871D7F8A0000C79400860F347140C711E
:1012F000D7F89C1021F01F016960D7F8A01021F0E9
:101300001F01296108F1010814350C36B3E700BF4D
:101310001403002000ED00E008040020F0B541496E
:10132000414CD1F890302568C3F307239D4287B024
:1013300075D80020FFF782FF3C4BC1F8C0308542D2
:1013400016D13B4C01A82570FFF74CFB0025064643
:10135000384FAE4213D1002023783249D1F8902083
:10136000C2F30722934254DBFFF75CFF00202FE01B
:10137000616801EB0011FFF785FE0130DFE701999D
:10138000280101EB0513DA683A40B2F5001F21D0BD
:10139000B2F5800F2BD0B2F5801F38D15A689B6808
:1013A0000958013B22F01F0003440120844623F02A
:1013B0001F0340EA4C10CDE902218DF8100002A96C
:1013C00020780593FFF778FE00281DDA6FF01500EE
:1013D00007B0F0BD5A689B680958013B22F01F0016
:1013E00003444FF0020C012023F01F03E1E75A6889
:1013F0009B680958013B22F01F0003444FF0000C8A
:10140000062023F01F03D4E723780133237001352E
:101410009FE7C1F89830C1F8A00001339EE74FF074
:10142000FF30D5E700ED00E084560000AAFF44003D
:10143000080400200000F0FF08B5024B1B68984725
:10144000002008BD28030020034B044A186093784D
:1014500043F002039370704728030020040000202B
:1014600008B50649064821F00701C1F1005202F50E
:10147000203202F0B8FE002008BD00BF5711002046
:101480002C03002008B500F077FD00F05DF841F670
:10149000F8732248D0F82416C1F3080203EA513346
:1014A000132182F48072883201FB02331C4A590AEC
:1014B000DB0548BF0131C2F80419D0F820364FF4DB
:1014C0007A60C3F30801C3F30943434342F21C505B
:1014D00081F4807101F2172100FB01334FF47A701F
:1014E0001B0AB3FBF0F100FB1133B3F5FA7F28BF01
:1014F00001310A4BC2F81C17D3F840331C2B08D11A
:101500003423C2F82436D2F83C3623F40023C2F840
:101510003C360123C2F80036002008BD00C0FF00A1
:101520000000125048B1054B054A1B68B3FBF2F3AB
:101530005843044B43F00103184770472000002034
:1015400040420F00605600000122024BC3F8042401
:10155000704700BF002008E0084B70B5C31A0D4665
:1015600007499B10044659434022064803F006F8F9
:101570002B4601462046BDE8704018474C0300202A
:10158000B76DDBB6604D0000402373B50B4C009384
:10159000041B0B460D460A49A41061430646094A3E
:1015A000094803F017F8011E05DA30462B4602B051
:1015B000BDE87040184702B070BD00BF4C0300206A
:1015C000B76DDBB63F460000604D000010B5EFF38D
:1015D0001184202383F31288BFF36F8F074A1368A7
:1015E00023F00201DB07116002D4012003F013F99C
:1015F00084F31188BFF36F8F10BD00BF9C030020E0
:1016000070B500220121044640F20510FFF784FC6A
:101610000F4800F0C1FD0F4B984215D100F0CCFDF2
:1016200026690D49304602F094FE00280BDB0125A7
:1016300035642469084904F11C0002F08AFE002880
:1016400001DB0020E56470BD6FF00400FBE700BF24
:10165000551700000000AD0BBC5600001FB500225E
:101660000123CDE902236B46084ACDF800D0CDF81E
:1016700004D002F0DDFF002805DB43F60952002309
:10168000684601F021FE05B05DF804FB5D460000F0
:101690000C22104B014602FB0033002030B4D3E98A
:1016A0000E529863EFF31180202484F31288BFF365
:1016B0006F8F1C6C04F0C00444F002041C6480F3BF
:1016C0001188BFF36F8F1DB12B4630BC02481847FD
:1016D00030BC70474C030020604D000010B4EFF3A5
:1016E0001182202383F31288BFF36F8F164801689D
:1016F00041F002040460C80707D482F31188BFF3E5
:101700006F8F012010BC00F06DBD1049D1F80C1492
:10171000C903F2D5EFF3118083F31288BFF36F8F03
:101720000B490B6C03F0C00343F002030B6480F31E
:101730001188BFF36F8F82F31188BFF36F8F002082
:1017400010BCFFF7A5BF00BF9C03002000E01050B5
:101750004C03002010B1012804D07047034B1B6CD0
:101760005B0701D1FFF794BF704700BF4C03002017
:101770002DE9F041012207463449D1E8EF3FC1E8A5
:10178000E02F0028F9D133B9314932484B60CB60A2
:101790008A6002F0F1FD7B1E012B28D8012F06D1B3
:1017A0002D4BD3F8503403F00303012B1FD003F06B
:1017B0003EF90546E8B9294B1B78D3B10422064609
:1017C000254BC3F80823244CDFF89480D4F84C242C
:1017D000D4F84C34D20315D503F00303012B01D008
:1017E000012F0FD165B386F31188BFF36F8FBDE86A
:1017F000F081EFF31186202383F31288BFF36F8FFC
:101800000125E0E7BDB1304602F059FED4F840347E
:1018100013F0FF03DAD1D4F80821002AD6D0C4F897
:101820000831D4F8083120220123C4F84034C8F824
:10183000A0212361CAE70021202001F0E9FFE5E7AC
:101840000422054BC3F80423D1E700BF480300205E
:10185000380300206803002000E010500B04002033
:1018600000E100E008B5074803F0A3F838B10648E6
:10187000FFF7EAFD0448FEF76FFF002008BD6FF098
:101880001200FBE7B04D00008D1800000A2838B5A3
:101890000446074D04D1AB680D2128465B68984784
:1018A000AB6803485B68E1B29847204638BD00BF8B
:1018B000B04D000038B545682B69E3B110352846B6
:1018C00001F0F6F80446B0B90146284601F0B2F836
:1018D0000B4B984211D1224628460A4901F07EF866
:1018E00022460121DB20FFF717FB2246012140F2AF
:1018F0000D10FFF711FB002038BD6FF00400FBE76F
:101900000000AD0B8D1A00002DE9F04340F20635C2
:101910004668D00648BF0320337B02EA050558BF5E
:10192000C2F3401087B001F01F07B5F5837F14465E
:1019300047EA43178DF8030046D00FD8062D45D04F
:1019400007D8B5B1022D14D06FF0150007B0BDE86F
:10195000F083B5F5807FF7D101250AE040F202223D
:10196000954235D0B5F5407F34D0B5F5007FEBD149
:1019700004250123220303FA01F12DD57368596070
:10198000326972BB5F2F07F01F034FEA571175D8FA
:101990003C4A52F8212084F4803102EB8302D2F8D1
:1019A0008030C1F30041C4F3404423F4706344EA3F
:1019B000410423F00F031C4344EA800444EA052455
:1019C000C2F880400020C1E70925D2E70825D0E70A
:1019D0000625CEE70525CCE7630344BF736899600D
:1019E000CEE71036394630460DF1020201F004F818
:1019F00014F4403F80460CD13946304602F0D0FF07
:101A0000214B9845DED130469DF8021001F05EF87A
:101A1000D8E74FF0000901AB3946304603AACDE9BB
:101A20000439CDE90199CDF80C9000F04DFE164B2C
:101A3000984289D114F4003315D09DF8033084F412
:101A40008034C4F300448DF80E3039464B4630469E
:101A500003AA8DF80C508DF80D4000F02BFF0A4BB7
:101A60009842CDD070E7CDE9043339460DF1030338
:101A7000304603AA039300F027FEF0E7203352F824
:101A80002330FFDEF45600000000AD0B4209022AAD
:101A9000034670B503D0012A18D0CAB170BD0E4EEE
:101AA000326951680029F9D0012503F01F030C6841
:101AB0009D400029F2D08A682A4002D030464B6807
:101AC00098473CB1236821461C46F2E7034EE7E7FE
:101AD000034EE5E72346F6E79C4D0000884D0000E5
:101AE000744D0000F0B5406801F01F04057B87B01D
:101AF00044EA45140569002D63D0B2F5001F00F1DA
:101B0000100506D12146284602F04CFF002007B000
:101B1000F0BD0027B2F5800F01AE019777603BD191
:101B2000B3F1007F14BF052304238DF80430002394
:101B3000CDE904630393836823FA01F111F00101F5
:101B40001CD1B2F1A07F19D104F01F035F2C4FEA22
:101B5000541003F120033AD81E4A52F8202052F8BC
:101B60002330DB070AD40DF103063246214628460E
:101B700000F042FF184B984219D0029621462846A1
:101B800003AA00F0A1FD154B98421DD10122214668
:101B9000284600F0B3FFB9E7B3F1C06F05D0B3F149
:101BA000007F14BF01230223BFE70323BDE73146B3
:101BB000284600F097FF094B9842DED06FF00B00EB
:101BC000A5E76FF08500A2E76FF015009FE751F8D9
:101BD0002330FFDEF45600000400AD0B0000AD0B17
:101BE000036803F01F025F2B02604FEA53129ABF93
:101BF000024B53F822000020704700BF6C570000D2
:101C00002DE9F04F1546064640F2FF18DFF83C91EB
:101C1000DFF83CA185B000EB8101B14203D1002087
:101C200005B0BDE8F08F3368C3F3C322082AC3F3BD
:101C3000080400F284801B0E444508BF4FF0FF34B7
:101C400019F80270192B7DD8DFE803F00D1C4760EE
:101C50004A50607C7C7C7C7C7C7C7C7C7C7C7C7C3E
:101C60007C7C636D7073C5F80446621C3CD04FF0F9
:101C7000010B03A80394FFF7B3FF039B0BFA03F3D5
:101C8000436005E0C5F80C46601C2DD04FF0000BFA
:101C90005A463368039403F40040002818BF00221A
:101CA00003A818BF4FF0010B01930092FFF798FFB4
:101CB000039C019B00EB8400D0F88040C3F3412CCF
:101CC000009A3B0243EA8C03134304EA0A042343C9
:101CD00043EA4B03C0F8803006E0C5F81046C4E77D
:101CE000631CC5F8004627D1043696E7601CC5F88A
:101CF0000446F9D04FF0010B03A80394FFF770FFDF
:101D00000122039B02FA03F38360C2E7C5F8084689
:101D1000BAE7C5F86045621C3368E5D0C3F30043F9
:101D2000002BE7D0A3E7C5F86445F4E7C5F868459C
:101D3000F1E7C5F86C45EEE74FF0000BDCE76FF01C
:101D400015006DE76FF085006AE700BF9F5800003F
:101D5000F0F0FCFF2DE9F04104460D46476802F023
:101D600066FEA0B9274B1B788BB14FF02008642684
:101D700063681B68D3F830318BBB012002F049FD4A
:101D8000013EF5D10021202001F042FDEFE72021A6
:101D9000EFF311831A4681F31288BFF36F8F6068E7
:101DA0000068D0F8300120B983F31188BFF36F8F3A
:101DB000EEE73B6A00201D706368396A1B68C3F850
:101DC0003C170121C3F84017C3F83001D3F83001A4
:101DD000196582F31188BFF36F8FBDE8F081EFF3CF
:101DE00011831A4688F31288BFF36F8F6168096800
:101DF000D1F830110029DCD183F31188BFF36F8F44
:101E0000C0E700BF0B04002073B514461D466846AA
:101E100000F03CFF009BA342019BAB4114D30B4A53
:101E2000D2E90061A41B24F01F0365EB01006409E3
:101E30009B1941EB000144EAC060C2E9003102B0E5
:101E4000BDE8704001F06ABE02B070BD68010020BC
:101E500010B500220121E420FFF75EF8002000F019
:101E600047FF114B0446984208D101200F4900F06A
:101E7000D5FFA04205D00E4B984211D04FF0FF3055
:101E800010BD67220B4B02201A60FFF771FC0A4A53
:101E90000020D2F8183723F44033C2F81837EFE7A0
:101EA0006FF00B00ECE700BF0000AD0B1C00002042
:101EB0000200AD0BCC03002000200E5007B5684691
:101EC00000F0E4FE0098074AD2E90032C01A019BF4
:101ED0004FEA501063EB020340EAC36003B05DF8C1
:101EE00004FB00BF680100207FB5431C18BF20EA37
:101EF000E07502A808BF6FF0004500F0C7FE029928
:101F00000E4B2020D3E900268C1A039961EB0603BF
:101F10002146C5FB0013402973F1000436BF01467A
:101F200021F01F01002352184FF0010146EB03037B
:101F30000091034800F0D6FF04B070BD6801002096
:101F40001400002003689A070CD50368DB070DD541
:101F50000922074BC3F80C250F22C3F804250122E0
:101F60001A60FEE7034B0360EF3B0360704700BF5E
:101F700000801050F000FA50064BD3F80438012BC3
:101F800005D0032B02D1044B044A1A607047024B60
:101F9000034AFAE700001250200000200090D0030E
:101FA0000020A107012208B5284B2948C3F80028C2
:101FB000FFF7C8FF0830FFF7C5FF0830FFF7C2FF83
:101FC0000830FFF7BFFF00F5F470FFF7BBFF214AB1
:101FD000D2F88C3043F44063C2F88C300022D30036
:101FE00003F57F0303F54043D3F8001401310AD011
:101FF000D3F8001439B1D3F800140132D3F8043403
:10200000402A0B60EBD1114BD3F84024CAB1124BDC
:10201000D3F840231C2A08D1D3F834230F4B9A421B
:102020009EBF0A4B0E4AC3F840260A4AD2F88C30AB
:1020300043F44063C2F88C3000220A4BC3F8A02559
:1020400008BDC822C3F84024E1E700BF00001250D9
:1020500000C50D5000ED00E000C0FF00001D0A1893
:1020600040E0A91E00B0045030B50468ACB1B4FA29
:1020700084F30122C3F11F03DBB29A4024EA020277
:10208000D0E8EF5FA54204D1C0E8EC2FBCF1000F0F
:10209000F6D1EAD102480B7030BD0248FCE700BF20
:1020A0000000AD0B0200AD0B10B50368CB40DB07A1
:1020B00010D401238B40026843EA0201D0E8EF4FBD
:1020C000944204D1C0E8EC1FBCF1000FF6D1F2D16C
:1020D000014810BD0148FCE70000AD0B0400AD0B4A
:1020E000F7B5044618B1012822D003B0F0BD042290
:1020F000284B0646C3F8082301225A61C3F8080199
:10210000D3F80831002342F21075224F8DF80730C2
:10211000D4B1012CE9D1D7F80C3403F480338EBB51
:10212000002BE2D0012002F074FB013DF3D1DCE78B
:102130000022184B0DF10706C3F808035860C3F8D6
:102140000021D3F80031DDE7D7F84C3403F48033B5
:102150003EB9002BC9D0012002F05BFB013DF3D159
:10216000C3E7D7F84C2402F003023270002BBCD036
:102170009DF80730002BB8D1012002F04AFB013D49
:10218000C6D1B2E7002B0CBF012300233370EFD17F
:10219000ABE700BF00E01050044B1A7922B90122CE
:1021A00018601A710248704702487047D003002037
:1021B0000000AD0B0C00AD0B08B5084B1B6843B11C
:1021C00040F20510FEF79AFE18B940F20510FEF72E
:1021D00087FE0022024BC3F8402408BDD003002034
:1021E00000E0105010B510B1012844D010BD274BAD
:1021F000D3F84C14D3F84C24C80323D502F00303BE
:10220000012B04D013B10020FFF76AFF00231F4AFF
:102210000420C2F8403410224FF48473002103F1EB
:10222000A04303F5871319601C68012402F1A04242
:1022300002F587121460164A126802B3134BC3F8F2
:102240000403D3E7D3F84824D107DFD5D3F85024CB
:102250009207D8D40E4A12681AB10422C3F8042394
:10226000C4E7D3F80821002AFBD00022C3F80821D4
:10227000D3F80831BAE700224FF48073CEE71A682A
:10228000002AFCD019601B68B0E700BF00E01050C6
:10229000D003002010B51E4BD3F8002152B100200E
:1022A000C3F80001D3F800210122C3F80823194B19
:1022B0001B689847164BD3F8082172B10022C3F867
:1022C0000821D3F80821D3F84C24D3F84C249207E2
:1022D00014D10122C3F840241A610D4BD3F8042114
:1022E000A2B100220220C3F80421D3F80421C3F8CC
:1022F0000803084BBDE810401B6818470422C3F8C8
:102300000823044B01201B689847E6E710BD00BF77
:1023100000E01050D0030020036803F01F025F2B81
:1023200002604FEA53129ABF024B53F8220000207A
:10233000704700BFD0570000034A4309D35C00F048
:102340001F001844C0B27047B358000070B505466E
:102350000846FFF7F1FF36212A79174B01FB0202ED
:10236000083233F81200C10525D56C240026C0F3CD
:10237000432120F4F85023F812002A7904FB023498
:102380000E3434F8020F10F4807F03D0C0F34320E2
:10239000814210D00136232EF3D16C200024424319
:1023A00002EBC1029C502A79BDE8704000FB02306C
:1023B0006030FFF779BE70BD24000020F0B50646FE
:1023C000002487B0114F019117F8012B06AB03EBE6
:1023D000D20313F8143C02F00702D34013F00103B8
:1023E00006D10134032CEFD10023184607B0F0BD0D
:1023F000074A03AD07CA85E8070055F824100A6AA2
:1024000046F824200A62002AEBD0EEE7C358000009
:102410004056000010B504460846FFF78DFF3623EE
:1024200003FB0400024B083033F81000400B10BDD2
:102430002400002010B504460846FFF77DFF362330
:1024400003FB0400034B083033F81000C0F34000D6
:1024500010BD00BF2400002010B504460846FFF759
:102460006BFF362303FB0400034B083033F81000E6
:10247000C0F3401010BD00BF240000202DE9F04F34
:102480000D46D0F8141387B0C9B241F40031AA6DDB
:10249000009002F039FA810306462ED50023696EBA
:1024A00003A8CDE903330593FFF788FFDFF868A1A0
:1024B000DFF868B10DF10C091AF8013B05EBD30206
:1024C00092F8642003F0070322FA03F3DA076AD4D0
:1024D000534B09F1040953450BF1010BECD14FF4B7
:1024E0000031AA6D009802F00FFA696E03A8FFF799
:1024F00065FF0028DAD126F400360124002E73D1BE
:1025000007B0BDE8F08F91FAA1F1B1FA81F19BF823
:10251000004041EA44142046FFF70EFF083035F82A
:102520001080C8084FEA98030193012319F800208E
:1025300001F0070103FA01F122EA010209F8002083
:1025400002A80294FFF7E8FE029A019B203250F89D
:102550002220C8F382075B07B846C2F3014227D5A1
:102560002846D7B22146424602F0AFF902A80294AB
:10257000FFF7D2FE029B203350F82330C3F3014310
:102580009F4207D10021204602F090F939462046AB
:1025900002F08CF902A80294FFF7BEFE0122029B12
:1025A00002FA03F30362D9F800100029ABD18FE7D8
:1025B000022A0DD10321204602F078F907F0050325
:1025C000012BE7D142462146284602F07EF9E1E799
:1025D00002212046019202F069F9032FF2D0019AFC
:1025E000032AD7D1022FECE796FAA6F3B3FA83F3C6
:1025F00004FA03F226EA0206009A284602EB830355
:10260000D3F81015D3F81025C1F30811C2F3014215
:1026100002F05BF972E700BFC3580000C358000026
:10262000C65800002DE9F74305460846FFF784FE2B
:1026300036222B79204F02FB0303083337F813307F
:102640000E46DB07044635D5284602F084F995F896
:10265000049031464846FFF7FFFE60B14846FFF759
:10266000D9FE0022D5F8008000B208EB8003C3F841
:102670001025C3F8102528463146FFF767FE36229D
:102680002B7901A802FB03440023083427F81430F7
:102690000196FFF741FE019B00EB8300D0F88020FC
:1026A000064B134043F00203C0F88030044803B0E7
:1026B000BDE8F0830348FAE724000020F0F0FCFFB7
:1026C0000000AD0B0400AD0B2DE9FF471746044693
:1026D0000846FFF731FE3E688846054676B394F813
:1026E00004904846FFF7A6FE18B14846FFF7B4FE2F
:1026F000A0BB00234046CDE900338DF80E308DF8A5
:102700000F300DF10F0233460DF10E0102F085F886
:1027100036202379644A00FB0353083332F8131040
:1027200021F0020122F81310237900FB0353083330
:1027300032F8131041F0010122F813107B68002BCE
:1027400045D026794146304693F80090D3F804A04E
:10275000FFF770FE20B1BAF1000F22D0534839E0E4
:102760004FF0360C0CFB06564F49083631F8163040
:1027700023F4604323F0200321F81630BAF1000F50
:102780000FD0B9F1030FE9D87B6826685B68187829
:1027900006EB8006B9F1000F1FD1C6F81095C6F8F8
:1027A000109536202379404A00FB0353083332F852
:1027B000131021F01C0122F81310237900FB03539E
:1027C000083332F8131041EA890122F81310BB686C
:1027D00063BB374804B0BDE8F087D6F8102522F077
:1027E0000302C6F81025226802EB8003D3F81025F7
:1027F00022F4473222F47C72C3F8102541F6F072BD
:10280000D3F8106502EA081242EA09423243C3F8DB
:10281000102523790CFB0353083331F8132042EAC7
:10282000403242F0200221F81320BAE74146D3E9B2
:1028300000972046FFF78AFDB9F1000FC9D06C233D
:102840002079194E4343F218F358994504D153683F
:102850009F4201D100210CE06C2303FB00600DF1CD
:102860000F016030FFF700FC114B9842B2D19DF888
:102870000F106C222379534303EBC10346F80390F6
:1028800023795343362203EBC10333445F6023793A
:1028900002FB0353083336F8132042EA412242F484
:1028A000807226F8132094E7240000200400AD0B6A
:1028B0000000AD0B2DE9FF470546084617461E46AA
:1028C000FFF73AFD8946044687B395F804804046F1
:1028D000FFF7B0FD18B94046FFF7BEFD68BB3623D1
:1028E00003FB0848DFF8E4A008F108083AF81830BC
:1028F00013F01C0F02D07B78012B1ED001238DF822
:102900000F3000237A1CCDE900734846BB1C0DF143
:102910000F0101F082FF36222B7902FB03430833BB
:102920003AF8132042F003022AF81320002E4BD06D
:1029300049462879FFF77EFD18B9254804B0BDE85F
:10294000F08700214FF0360C30782B68820003EBC3
:102950008003C3F81015C3F810152B791B490CFB25
:102960000343083331F8137027F4604727F020073A
:1029700021F8137077783FB32B68B6781A44D2F8F1
:1029800010E5144B3F040EEA0303C2F8103541F67C
:10299000F07307F4403703EA09133605D2F810E55F
:1029A0003B4306F48016334343EA0E03C2F8103566
:1029B0002B790CFB0344083431F8143043EA4033DC
:1029C00043F0200321F814300348B7E72400002027
:1029D0000400AD0B0FE0ECFF0000AD0B30B56C2533
:1029E0000479044B05FB0434A160017905FB013334
:1029F000DA6030BD2400002070B5067914463046F8
:102A0000FFF72AFD68B10846FFF796FC362303FB63
:102A10000600054B083033F8103004485B0B237078
:102A200070BD0348FCE700BF240000200000AD0B90
:102A30000400AD0B2DE9F041064607796C20194DD5
:102A400000FB075898F868404CBB40462146462298
:102A5000103002F0DFF821463068D8F858608E4216
:102A600013D10023C0F84431D0F84431C0F308300A
:102A70000130FEF735FA6C2303FB075501230A48A2
:102A800085F868302B66BDE8F081CBB29B0003F57A
:102A90008072442B04BF845083580131DFE7034820
:102AA000F1E700BF240000200000AD0B0C00AD0BCF
:102AB0006C210279044B01FB023393F86800003863
:102AC00018BF0120704700BF240000206C235C2247
:102AD000007913FB002302481844FFF7E5BA00BF52
:102AE000240000206C235C22007913FB00230248A1
:102AF0001844FFF7B9BA00BF240000202DE9F341C4
:102B000003681746D3F81423044692035CBF4FF4BE
:102B10000032C3F8142306790D463046FFF79CFCBB
:102B200008B33046FFF786FC8046E0B93046FFF731
:102B300071FC05B22168AD0005F5807241F8028094
:102B40008A5821682944D1F8102542F00102C1F8C1
:102B500010252FB10122216802FA00F3C1F81433C5
:102B600002B0BDE8F0812846FFF7E6FB362303FB01
:102B700006000F4B083033F81030C3F38203042BE8
:102B800011D0052B11D001A80195FFF7C5FB019AC3
:102B9000C368D34003F00103991C284602B0BDE886
:102BA000F04101F083BE0321F7E70221F5E700BF02
:102BB0002400002001490248FFF760BC24000020E7
:102BC00000A00D5001490248FFF758BC90000020BA
:102BD00000C0105070B5002367240126027A94FAD1
:102BE000A4F1B1FA81F1914203F1010518D100215C
:102BF0000C24120102F1A04202F56222C2F82C1547
:102C00000A4ADBB204FB03230168D96041681961F9
:102C10000121007A1875936881400B43936070BD61
:102C200006FA01F12B4624EA0104D8E7FC00002053
:102C3000074B027AD3F8101521F001010A43C3F8BB
:102C400010250268C3F8A4264268C3F8AC26704772
:102C500000200E50012303FA00F010F0670F0AD095
:102C6000064B5B68DB4303F067030342044B0548F4
:102C700018BF184670470448704700BFFC0000208A
:102C80000000AD0B0400AD0B0800AD0B00230022CB
:102C90002DE9F048C0E90023114BD3F810359B070C
:102CA0001CD5EFF31181202383F31288BFF36F8FBC
:102CB0004FF0FF356FF040440A4ED6E900BC5D4549
:102CC00074EB0C07F9D3CCF31303C0E900B381F321
:102CD0001188BFF36F8F0448BDE8F0880348FBE715
:102CE00000200E5040270E500000AD0B0100AD0B30
:102CF000F0B53F4C85B02578002D75D13D4A01AB2C
:102D000007CA83E807003C491846D1F8102522F08D
:102D10000202C1F81025FFF78BFF0723672202F09C
:102D200001012944013BCDB24FEA5202F7D1052DF2
:102D30005CD11A4601272E48002567265FFA82FCDF
:102D400096FAA6F15FFA85FEE645B1FA81F145D320
:102D50000132052A017500F10C00EDD1012000259A
:102D600026499A0800FA02F212F0670F1CBF5D5064
:102D70005A580433302BF4D1E420FEF7B1F81E4B3F
:102D80001F49D3F8182703F5C07322F4403242F4E8
:102D90008032C3F89825D3F8902322F00202C3F8BA
:102DA000902340F6FF72C3F8A82100221A60A3F511
:102DB000807004338B420260F8D101250E4B114A1A
:102DC0001D66114B5D201B68B3FBF2F358430F4B9C
:102DD0002B4398470E48257005B0F0BD07FA01F166
:102DE00026EA01060135ABE70A48F5E70A48F3E7AA
:102DF000FC0000204C56000000200E5000210E5018
:102E0000B0210E5040420F002000002070560000FC
:102E10000000AD0B0C00AD0B0100AD0B73B52A4CDF
:102E2000054663680E4603F0010304F1140101A88E
:102E30000193FFF719F9254B98423DD100233370D8
:102E4000636823F001036360A36843F00103A36098
:102E50001F4BD3F81025960732D4D3F8102542F033
:102E60000202C3F81025C5B1D3F8482712F00102B9
:102E700002BFD3F8481741F00101C3F84817144BBB
:102E8000D3F84017D3F844174C00F9D42AB9D3F833
:102E9000482722F00102C3F848270E4B0E4A1B6850
:102EA000B3FBF2F30A4A03EB43135BB1D2F84017CA
:102EB000D2F84417490001D402B070BD013BF4E7D9
:102EC0000648F9E70648F7E7FC0000200000AD0BD4
:102ED00000200E502000002040420F000C00AD0BDF
:102EE0000700AD0B2DE9F0410446007A1D46FFF7BF
:102EF000B1FE1A4B1746984206469DF8188029D114
:102F00002046FFF767FEEFF31180202383F312883A
:102F1000BFF36F8F227A124B9200134400221A6083
:102F2000217AC5F31305090101F1A04101F56221E0
:102F30001B68C1F82075C1F8245580F31188BFF3D0
:102F40006F8FB8F1000F05D00123227A9340054A14
:102F5000C2F824333046BDE8F08100BF0000AD0B5D
:102F600000210E5000200E50F7B5254A002053686E
:102F70009268DB4303F0670313401C4601260746B3
:102F80000CBB01271F4B1E4DD3F820630640287D44
:102F900007FA00F333420FD0E96869B10201D5F8AE
:102FA00010C002F1A04202F56222D2F82435D2F814
:102FB0002025CDF800C088470134052C05F10C050B
:102FC000E5D103B0F0BD94FAA4F5B5FA85F5AA00F1
:102FD00002F58071920806FA02F213420BD001F159
:102FE000A04101F56221D1F800C0BCF1000F02D070
:102FF0000F600968104306FA05F524EA0504BFE7E7
:10300000FC00002000200E5038B5EFF3118520237E
:1030100083F31288BFF36F8F064B9C6801F0DCFCD2
:1030200085F31188BFF36F8F2046BDE83840FDF768
:10303000D9BE00BFD803002038B5094B53F8204053
:10304000013053F82050A54200D838BD636823B141
:10305000204601F0C4FC0834F5E723689847FAE7F6
:10306000DC570000012270B52A4B032086B01A708D
:10307000FFF7E2FFFDF7BCFC01F0CDFC0420FFF7F9
:10308000DBFF254C254D2646AE4204F1300410D31B
:1030900000F000FB204C224EAC4226D300F00EFB89
:1030A00001F017F81F4A137B23F00103137306B0D6
:1030B00070BD54F80C3C059354F8103C049354F83C
:1030C000143C039354F8183C029354F81C3C0193AD
:1030D00054F8203C009354E90A2354E90C0100F011
:1030E00019F954F8303C5E65CDE7D4E90A23B3F111
:1030F000FF3F08BFB2F1FF3F05D052EA030120684D
:1031000003D101F09AFC3034C6E73146183000F0A4
:103110008BFCF8E70B0400203C5600003C560000F6
:10312000474B0000F001002008B50348034A002186
:10313000121A01F06CFC08BD680100201004002088
:103140000023012270B586B0CDE904230F2201933C
:10315000CDE9023214234FF4A0720E4D0E4E03FB44
:1031600000550E4906EBC016044602FB00110C4B3D
:103170003046009500F0CEF8737B2C7423F00403E6
:103180007373084B013403EBC423EE606B6006B02D
:1031900070BD00BFD803002070010020100C00207B
:1031A000194A000010040020BFB50020FFF744FFBB
:1031B0002B4B03F5006282F3088883F30A8800240E
:1031C000E023284D284E85F82230EC772C766C765B
:1031D000AC766B6A254F43F4E0236B6285F823409D
:1031E000FDF77EFDFDF70AFF4FF0FF33AB62EB62A8
:1031F000FEF794F8FDF72AFF40F201121C4B1D4D1B
:103200009A81B360C3E91844DC6601F0D1FB012068
:10321000FFF712FF0220FFF70FFF00F06FFA164BC7
:1032200075610593012315494FF48062CDE903438D
:1032300028463B46CDE90144009400F06BF8064671
:103240006A7B284622F004026A7301F032FC2046B1
:10325000FFF776FF3A4631462846FDF7ABFE00BF42
:103260001004002000ED00E0D803002065300000CD
:1032700070020020F0010020C6580000500D002010
:1032800038B50446EFF31185202383F31288BFF38A
:103290006F8F01F05CFC48B10022826701F009FCED
:1032A0002946BDE83840074800F0B0B9D4E90232F9
:1032B0009A4218BF0133A36085F31188BFF36F8F63
:1032C00038BD00BF0C04002013B5EFF3118120249A
:1032D00084F31288BFF36F8F846844B1013C84602B
:1032E00081F31188BFF36F8F002002B010BD52EA46
:1032F000030406D181F31188BFF36F8F6FF00F00C5
:10330000F3E7CDE900230246014800F053F9ECE76A
:103310000C0400202DE9F043984685B000F15803D5
:10332000C0E91633109B002603730423073222F0F2
:10333000070543730F9B01EB05090F46837349464D
:10334000C0E906668660C6730446FDF763FB0E9B04
:10335000073020F00700A066C4E9187502930D9BA2
:10336000A9EB000901930C9B4A460093394643465A
:103370002046FDF703FE054B66659B6803B1DB6ED7
:103380004846E36605B0BDE8F08300BFD8030020DF
:1033900038B50D4D2B4653F8184F9C4200D004B958
:1033A000EC68AB6838B95A7BD20604D1A26912B96D
:1033B000DA897F2A05D89C4202D0204600F07CFAA8
:1033C00023466B6138BD00BFD803002008B590F9D3
:1033D0000D200146002A437B04DA03F07F03437388
:1033E00001F02DFB044B9868431A58425841BDE840
:1033F0000840FFF7CDBF00BFD803002070B490F99C
:103400000D30427B002B29DBD30627D183692BBBF0
:10341000134962F07F0242730A4652F8184F9442F1
:1034200018BF2346CC6923B9C0E900242060C861D5
:103430000CE090F90E5093F90E60B5420AD0AE42FE
:1034400008DD5A68C0E9003210605860002070BC86
:10345000FFF79EBF9C42E7D01B68E4E770BC704753
:10346000D8030020002A2DE9F0410E460CBF1021A0
:103470000821427B044611420FD141EA0203D209DE
:1034800018D1437308291BD00120FFF781FFBFF338
:103490005F8F637B23F060036373274B9B68A342BA
:1034A00043D1EFF30583002B3FD13046BDE8F04117
:1034B000FDF7AEBC03F07F03437301F0C0FAE1E710
:1034C000A36813B1204601F0C2FA04F1180001F01C
:1034D0007BFBA56D04F15807AF4211D04FF00008F7
:1034E00075B1284601F0B3FA05F1180001F06CFB44
:1034F0002846C5F87880FFF781FFA56DAF42EFD170
:103500000D4DAB689C42BFD1EFF30583002BBBD0C0
:103510000120FFF73DFF40F20112084B9A81002283
:10352000AB60C3E91822DA66B1E786F31188BFF30E
:103530006F8FBDE8F08100BFD8030020700200202B
:1035400070B590F90D200146002A437B04DA03F0A0
:103550007F03437301F073FA154A4B7B104663F007
:103560007F034B7350F8183FD469834208BF002390
:1035700023B9C1E900042160D1610CE091F90E503A
:1035800093F90E60B5420ED0AE420CDD5868C1E929
:103590000030016059609068BDE87040431A58429D
:1035A0005841FFF7F5BE9C42E3D01B68E0E700BF3F
:1035B000D8030020F8B5124B0C46DDE9067611461B
:1035C0009868104A1060EFF31182202282F312886B
:1035D000BFF36F8F9D68284601F043FAB6F1FF3FB5
:1035E00008BFB7F1FF3F06D03A463346064905F11A
:1035F000180000F019FA2046BDE8F840FDF708BCB5
:10360000D8030020F8030020474B000049B9EFF32E
:10361000058030B9054B5A699B689A4201D0FDF785
:10362000F7BB81F31188BFF36F8F7047D803002079
:1036300010B5EFF31184202282F31288BFF36F8F4D
:10364000427B510704D484F31188BFF36F8F10BD00
:1036500022F004024273FFF7D1FE2146BDE810407C
:103660000148FFF7D3BF00BF0C040020034648B950
:10367000EFF3058232B9064A51699268914201D04E
:10368000FDF7C6BB83F31188BFF36F8F704700BF90
:10369000D8030020EFF31181202383F31288BFF3B6
:1036A0006F8F054B9A68D37B013BD37381F31188ED
:1036B000BFF36F8F704700BFD803002038B5EFF31A
:1036C0001185202484F31288BFF36F8F0A4B0020EA
:1036D0009A68D37B0133D373FFF75AFE85F31188C1
:1036E000BFF36F8FEFF3118084F31288BFF36F8FF6
:1036F000BDE83840FFF7BABFD8030020024B03F102
:103700001802C3E906227047D8030020F8B5EFF38A
:103710001185202383F31288BFF36F8F19498868BE
:10372000437B03F07F03437301F089F908468B68FC
:103730005A7B62F07F025A7350F8182FCC6982428C
:1037400008BF002222B9C3E900042360CB610CE06A
:1037500093F90E6092F90E70BE420ED0B7420CDDA6
:103760005168C3E900210B6053600120FFF710FE90
:103770002846BDE8F840FDF74BBBA242E3D01268F3
:10378000E0E700BFD803002050EA01032DE9F04133
:1037900005460E4603D1FFF7B9FF00202BE0831C3E
:1037A00071F1FF3329DB01F024FA2C18EFF31188B3
:1037B000202383F31288BFF36F8F124F124BB86828
:1037C0001860FFF703FEB86810492A4633461830E0
:1037D00000F02AF9BA684046537B43F01003537354
:1037E000FDF716FB01F005FA201A63EB030301282D
:1037F00073F10003D1DBBDE8F0816FF00104241AFE
:10380000D4E700BFD8030020F8030020474B000096
:10381000B1F1FF3F08BFB0F1FF3F38B506D10B4B08
:10382000986801F055F94FF0FF3038BDFFF7ACFF55
:103830004FF47A750446002147F6112047F612220C
:103840000023C4FB0501FCF719FEEEE7D8030020B6
:10385000014B9868704700BFD80300200122044B39
:10386000C01A044BC0105843034B1A54704700BF92
:10387000F0020020ABAAAAAA0C040020C3897F2B67
:1038800012D80A4B1B6863B1094B90F90E201B68D4
:103890009A4209DB437BDB0606D1064BC31A18BFED
:1038A000012303F0010070470023FAE70004002021
:1038B000FC0300207001002070B50E4B0E4C1E7CE6
:1038C000054606EB460304EBC304204601F07CF9F1
:1038D00000220A4B28469A55FFF7D0FF48B1084B03
:1038E0002046BDE870401A680649013AD31700F037
:1038F0009BB870BDD8030020F00200200C0400200B
:10390000000400205D38000038B5EFF31185202356
:1039100083F31288BFF36F8F104B114A9C681068B5
:10392000A04206D1FFF7C8FF85F31188BFF36F8F60
:1039300038BD00211B7C11600A4AD35C002BF3D0F8
:103940002046FFF79BFF0028EED0637BDB0602D109
:103950002046FFF7F5FD2046E4E700BFD80300202E
:10396000F80300200C04002008B50648064A074961
:10397000121A01F04EF8BDE80840054A054906480C
:1039800001F047B80000002064010020DC5800006E
:1039900000000000DC58000000000020034B1B6802
:1039A0000BB9FEF78BBA0020704700BF040400205B
:1039B00030B570B10B4B5B6898420AD0036843B1D5
:1039C000D3E90421D0E90445121941EB0501C3E90B
:1039D0000421D0E9003213605A600023C0E90033AB
:1039E00030BD00BF5001002010B50E4B1C689C423A
:1039F00004D1FFF7D3FF6FF0004010BDFFF7CEFFFB
:103A0000002CF8D0D4E904321B1A62EBE072B3F157
:103A1000004F72F10001EEDA002AACBF1846002018
:103A2000EBE700BF50010020B3F1FF3F08BFB2F148
:103A3000FF3FF8B504461D4616465ED08160EFF3A1
:103A40001187202383F31288BFF36F8F013275F142
:103A5000FF3324DA6FF001032D49D1E900209B1ACE
:103A60004FF0FF3262EB00009E1B60EB0500012E61
:103A700070F1000301DA01260020C4E90460254E3C
:103A8000D6F800C07568B44508BF4FF0000CBCF113
:103A9000000F0DD1C4E900652C6074601CE0FFF7D5
:103AA0007DFF013645F10005361845EBE070E4E78F
:103AB000DCE90420D4E90431934271EB000E1DDAF5
:103AC000D21ADCF8043060EB0100CCE90420C4E930
:103AD00000C31C60CCF804403368B34209D09C4258
:103AE00007D10D4B1C6824B9FFF77EFF2146FEF776
:103AF000FBF987F31188BFF36F8FF8BD9B1A61EB59
:103B00000001AC45C4E90431C4D0DCF800C0BEE714
:103B10000803002050010020040400202DE9F84F84
:103B2000EFF3118C202383F31288BFF36F8FDFF83C
:103B3000B0A0DFF8B0900024C9F80000DAF8000067
:103B40000025504508BF0020274FE046D7E9002157
:103B5000D9F8003078B3D0E9046C4FEAE37EB34281
:103B60007EEB0C0B05DAF61A6CEB0E04C0E904646C
:103B700021E0B21841EBE671C0E90445C7E9002134
:103B8000FFF716FF88F31188BFF36F8F836898479C
:103B9000EFF31188202383F31288BFF36F8FD9F8D6
:103BA0000030DAF800009B1B5045C446C9F80030CD
:103BB000CBD1D7E9002100249A1841EBE373C7E980
:103BC0000023C9F80040FFF70FFF2146FEF78CF9EC
:103BD00088F31188BFF36F8FBDE8F84FFFF794BEED
:103BE00050010020040400200803002010B5EFF36A
:103BF0001184202383F31288BFF36F8FFFF7CEFE6B
:103C00000346054AD2E90001181841EBE37184F339
:103C10001188BFF36F8F10BD080300202DE9F04F0E
:103C200043688DB015468046029383789A0740F129
:103C30000D8100240E78002E00F00A81252E0BD075
:103C40004B1C0393013441463046029B98470028A1
:103C5000C0F2F6800399EDE74E788B1C252E039376
:103C6000F0D00027B946BB46BBF11F0F38D8A6F1EC
:103C70002003102B0AD8DFE803F02A0909300909CC
:103C8000092109090928092D09091F00A6F1300396
:103C9000092B33D92A2E37D11BF0400F55F8043B9E
:103CA00040F08280002BA7BF4BF0200B9946C3F158
:103CB00000094BF0280B01E04BF0010B039B13F8BC
:103CC000016B0393002ECFD130E04BF0020B4BF091
:103CD000040BF3E74BF0080BF0E74BF0100BEDE7AC
:103CE000BBF17F0F19D8A6F13003092BD2D81BF0F6
:103CF000400F03D00A2101FB0737DFE70A214BF011
:103D0000200B01FB0939D9E72E2E06D11BF0400FFD
:103D100040F09E804BF0400BD0E76C2E31D02BD87A
:103D2000682E36D06A2E3CD04C2E3AD0002F46F06A
:103D30002003B8BF2BF04002A3F16501BCBF0027F0
:103D40001FFA82FB022901D9612B2FD107350727E2
:103D5000DFF8ACA225F0070508351BF0080F66D088
:103D60000AEB070B56465E4563D1A4EB0A0AA9EBA2
:103D7000070906EB0A026FE1742E9FD07A2E9DD0C0
:103D8000D4E71BF0800F18BF4BF4007B4BF0800B87
:103D900094E71BF4807F18BF4BF4007B4BF4807BCF
:103DA0008CE74BF4207B89E71F4687E7A6F1630188
:103DB000122900F2F080DFE811F013004F00EE004E
:103DC000EE00EE00EE004F00EE00EE00EE00EE0022
:103DD000EE00FE00E900EE00EE001B00EE00AF007A
:103DE00055F8043B01270DF1180A8DF81830B4E797
:103DF00055F804AB834BBAF1000F08BF9A461BF08D
:103E0000400F504614BF39464FF0FF3100F00AFF13
:103E10000746A2E741462020029B984700280FDB77
:103E2000013EB742F6D34C44B146A41B98E74E4638
:103E3000F7E7414616F8010B029B9847002892DAF3
:103E400098F8023043F0040388F802304FF0FF3452
:103E500020460DB0BDE8F08F1BF0800F34D01BF46E
:103E6000007F2CD0073525F00705AA4669685AF867
:103E7000080B2BF010050029ADB237DA404245F4AB
:103E8000806561EB41010DF1180B0A235A4600F0E1
:103E9000D5FEA0EB0B0301936B0662D5019B25F0C9
:103EA00001019F4289B240F3A180002E00F0998069
:103EB00015F0100240F09C80BB460D4623E0AA4658
:103EC0005AF8040BC117D4E7AA461BF4807F5AF8AE
:103ED000041B01D10846F5E71BF4007F19BF48B267
:103EE00041F3C01108B241F3C031C2E750EA010307
:103EF000C9D11BF0400FC6D0002FC4D12BF0110246
:103F0000BB46019795B240F2064115EA01021CBF7B
:103F10000BF1010B00222CE02BF010020A231FFAF8
:103F200082FB1BF0800C49D01BF4007115BF0735D4
:103F3000AA4625F007055AF8040B1EBFAA46696871
:103F40005AF8080B50EA010545D12BF016051BF075
:103F5000400FADB242D0002F40D12BF01702019795
:103F600095B215F0100248D0019B002E42D103F10A
:103F7000010B29075AD4EB0706D5D9456FDDA9EB0C
:103F80000B030199CB465F185B4649E04BF0100BE1
:103F900010237826C5E7782B04D1C6F1780343F0C7
:103FA0001003BEE741462520029B98470028FFF6F4
:103FB00047AF023447E608230026B2E7AA461BF4BF
:103FC00080715AF8040BBDD01BF400711ABFC0B247
:103FD000614680B2B6E72BF0060295B20DF1180BE0
:103FE00054E725F01105BB46ADB28CE70D46B8E7A6
:103FF0003B460D4603F1020BBBE7DDF804B082E758
:10400000D2580000CB580000CDE9043241462020B0
:10401000029B98470028FFF613AF049B059A0133D3
:104020009945F1DCA4EB0B019B46CC180AB3414641
:104030003020029B98470028FFF602AF8EB901346A
:104040002744391B019B994224DC1D4655BB019A2C
:10405000A9EB0B09554622441446914433E0019FD5
:1040600092E7023441463046029B98470028E7DA3F
:10407000E6E640F206410D42E2D015F0020F04F1EF
:104080000104414614BF2B20202015F4806F18BF77
:104090002D20E9E741463020029B01349847002853
:1040A000CFDACDE606AB013D4146585D029B98470D
:1040B0000028CBDAC4E641462020029B0134984711
:1040C0000028FFF6BDAEA9EB0403002BF3DCC1E52D
:1040D000704700207047836800EBC101B3F5004FC3
:1040E0002CBF51F8220031F81200704700EBC101DB
:1040F0008068B0F5004F2CBF41F8223021F8123013
:104100007047012208B5FFF7E6FFD04008BD83687D
:1041100000EBC101B3F5004F08D34B681AB143F06F
:1041200001034B60704723F00103FAE74B881AB193
:1041300043F001034B80704723F00103FAE753007B
:104140000122FFF7D3BFB0F5004F34BF042308238B
:10415000481C0833A0EBD300B0FA80F0C0F11F0078
:1041600070472DE9F0410D4686680446FFF7C9FF08
:10417000B6F5004F014601D3012832D03046FFF793
:10418000E2FF04EB80010E6996B90122E3688240E8
:104190001343E36002220D612B4629462046FFF7B8
:1041A000A5FF032229462046BDE8F041FFF79EBF48
:1041B000022231462046FFF78EFF07460346294676
:1041C0002046FFF793FF0322334629462046FFF798
:1041D0008DFF39462B462046FFF788FF02223146E5
:1041E000E1E7BDE8F081B2F5802F2CBF082304235E
:1041F0002DE9F0410026D21A8C18CD1D25F00705B7
:1042000024F00704641BE408056021462046AC60E6
:10421000EE60FFF798FF421D9200013002F10707A0
:104220004FEAD7073146A2F1100205F11000B8BFDE
:10423000324600F0EFFC3A4631462846FFF77FFF52
:104240003346324631462846FFF750FFA4EB0708B5
:10425000284631460122FFF75AFF42463946FFF70A
:104260006EFF3B46324639462846FFF73FFF214660
:104270002846FFF764FF4346324621462846FFF7AB
:1042800035FF214628460122FFF741FF3946BDE8A8
:10429000F041FFF766BF002070470FB407B504A9CF
:1042A00051F8040B0191FCF75DFA03B05DF804EBE3
:1042B00004B07047038B13F0070305D10368002B8C
:1042C0000CBF002003207047022B05D1408BB0FAB1
:1042D00080F0400980007047012B05D10368002B56
:1042E0000CBF0020052070470020704710B50C4619
:1042F00000B111B96FF0150010BD081D00F093F862
:104300000028F9D1A368032BF6D9F3E72DE9F04192
:104310000D4607461946281D90461E4600F094F8A3
:10432000044638B13346424629463846A446BDE8DD
:10433000F0416047BDE8F08110B4EFF31182202412
:1043400084F31288BFF36F8F416110BC0121FCF729
:104350003BBA38B50C46054658B151B10B6843B16C
:104360004B6833B11C22002100F054FC00202C616A
:1043700038BD6FF01500FBE770B505460E46FFF738
:10438000B5FF041E14DBEFF31182202383F31288A0
:10439000BFF36F8F4FF6FF716B8B2C8B8B4204F04A
:1043A000070407D182F31188BFF36F8F6FF00A04FF
:1043B000204670BD022C0CD101336B8382F311882F
:1043C000BFF36F8F0023224631462846FFF79EFF3A
:1043D000EEE7062C14D8DFE804F004131313041AD4
:1043E0000400002333606B683BB9C5E90066ACB9D3
:1043F00002212846FCF7E8F9DAE71E606E60F6E76E
:1044000082F31188BFF36F8F6FF00404D0E782F35B
:104410001188BFF36F8F6FF08504C9E782F31188AD
:10442000BFF36F8FC4E7034658B1426802F003023E
:10443000012A03D0032A04D1026812B10020986037
:1044400070476FF0150070474268034602F00302A0
:10445000032A4FF00002816014BF104600685A60C2
:1044600070477047012801D1EFF30583FEF7CCBDFB
:1044700001460068FFF7F6BF08B5FCF7C7FABDE8CC
:104480000840FCF7E7BA00210120FFF7EBBF036EFD
:1044900083F30B88704761B662B680F31188BFF36F
:1044A0006F8F704772B6002383F31188BFF36F8F4D
:1044B000BFF34F8F30BF62B6BFF36F8F704772B6D6
:1044C000002383F31188BFF36F8FBFF34F8F20BF9B
:1044D00080F31188BFF36F8F62B6704740E800F336
:1044E00013F4803FD8B208BF6FF01500704730B5A5
:1044F0000C684B6885B00A894D890094013B24F013
:104500001F04234402F01F0242EA451223F01F0356
:1045100069468DF808200393FCF7CEFD05B030BD49
:1045200008B5FCF789FF002008BD10B54468E268B3
:104530001AB1D4E9010100F060FB23680020C3F345
:1045400005339B0003F1A04303F58023D3F8002536
:1045500042F01002C3F80025D4E90032C3F808285D
:1045600001222368C3F8002810BD0C220369C9B2D8
:1045700001FB0233186C00F00700704770B5C9B238
:104580000369EFF31185202484F31288BFF36F8F42
:104590000C2606FB0134246C14F0C00408D0A2429F
:1045A00006D085F31188BFF36F8F4FF0FF3070BDD9
:1045B000012206FB01331A6485F31188BFF36F8F64
:1045C000436803EBC1035B6898470020EFE7802254
:1045D000FFF7D4BFF8B5069F0469C9B2EFF311869F
:1045E000202585F31288BFF36F8F0C2505FB01444E
:1045F000256C05F0070CBCF1010F0CD1276486F384
:104600001188BFF36F8FC4E90E23436853F831302C
:1046100098470020F8BD05F0C005AF4286F3118829
:10462000BFF36F8F0CBF6FF077004FF0FF30F1E7F3
:1046300013B580240094FFF7CDFF02B010BD10B475
:104640001C240069CBB203FB0400002110BC1047FE
:104650000020FDF7C7BD002000F0DDB81046FEF7D2
:104660000FBE436800205B68DB680B6070474368DF
:1046700002EA01005B6821EA0201586000209960AB
:104680007047436800205B685960704743680020AA
:104690005B689960704743685A68136821EA0300B1
:1046A0000B40506000209360704710B50369586854
:1046B000F8B1884219D19C680868A142586000D1BD
:1046C0009860002008602AB15A680A609A685960A8
:1046D00002B99960002010E0814206D1086820608C
:1046E00098688142EDD19C60EBE7044600680028A1
:1046F000F2D1002AE8D16FF0150010BD30B5436843
:104700001360057A446804EBC504A34202D36FF03A
:10471000010030BD5C798C4201D00833F0E7002005
:10472000F7E743681B68D3F83031704743681B686C
:10473000D3F88004C3F88004704742681368D3F844
:104740004C0150B10020526A12780A70C3F84C0133
:10475000D3F84C2101229A6270474FF0FF30704726
:1047600037B5044600220121C620FCF7D5FBC62040
:10477000FCF7B6FB626853691068C0F82435917E77
:10478000537ED58B0B43918B127E294389B20B4309
:104790001343C0F86C3561680B68D3F8002242F40B
:1047A0008022C3F800220822C3F800250A6A0121EA
:1047B000C3F83C270022C3F840271965D3F830110D
:1047C0000029FBD0C3F8002563680021DD6801AA39
:1047D0002846FFF793FF002805DB019B2A6819791B
:1047E0001868FDF70DFA082162681368C3F8001510
:1047F000117A51B9526AC3F804270122C3F8082775
:10480000C3F84C11D3F84C119A62002003B030BDAC
:10481000004700F0C9B8FDF763BCF7B51646DDE9FF
:104820000847019001A81D46FDF776FD019BB6F1F2
:10483000000C18BF4FF0010C00EB83000B1E18BFDB
:104840000123002D43EA4C0314BF4FF00C0C4FF032
:10485000000C002C43EA0C0314BF4FF4706C4FF0B3
:10486000000C002F43EA0C0314BF4FF4403C4FF000
:10487000000CD0F8802043EA0C0322EA030301B1C4
:1048800009780EB13678760019430DB12D78AD0058
:1048900031430CB12478240229430FB13F783F04FF
:1048A0000C433C43C0F8804003B0F0BD1FB50DF190
:1048B0000F03019300238DF80F101A461946009339
:1048C000FFF7ABFF05B05DF804FB70B50446084682
:1048D0001646FDF731FD083034F810300D46DA0584
:1048E00009D5C3F3432304EBC3023146284654F8E9
:1048F000333052689847A3682BB131462846E268A6
:10490000BDE87040184770BDF0B50446002001278F
:104910000546844695420AD1D4F8443133B1002388
:10492000C4F84431D4F8443140F40030F0BDEBB267
:104930009B0003F580769B0807FA03F3194208D021
:1049400054F806E0BEF1000F03D044F806C0A659A3
:1049500018430135DEE770B50679044630460D464A
:10496000FDF77AFDB0B13046FDF764FD90B93046F1
:10497000FDF750FD012322688340C2F818332268F6
:1049800003B202EB8303D3F8102522F00302C3F82D
:10499000102570BD2846BDE870400021FFF786BF96
:1049A000FDF740BEFFF7D7BF08B1FCF7BBBD7047AE
:1049B000704740B1C368587810F001001EBF1878E6
:1049C000B0FA80F040097047EFF31183202383F39E
:1049D0001288BFF36F8FFEE708B5FFF7F5FF10B53C
:1049E000D0E9003433B90020E268537843F0010382
:1049F000537010BD204698470028F4D00028B8BF57
:104A00004042FF28A8BFFF20E3681870ECE700F0E1
:104A100001B900F0F2B87047202408B5EFF3118314
:104A200084F31288BFF36F8FFFF73CFDF6E7EFF3D7
:104A30000580003818BF01207047FEF7F9BDD0E9A6
:104A4000003213605A600023C0E90033704708B594
:104A5000FFF7F5FF437B23F00203437300238360DA
:104A600008BD38B504460D46FEF7B0FC637B43F045
:104A700002036373E5B1A5602B689D4209D16B68A1
:104A8000C4E900531C606C6012E06A689A42F6D078
:104A90001B68002BF3D094F90E2093F90E108A4274
:104AA000F3D09142F1DD5A68C4E9003214605C60D1
:104AB00038BD10B5EFF31184202383F31288BFF3C0
:104AC0006F8FFEF79BFC84F31188BFF36F8F10BDCF
:104AD00010B50446183000F077F8EFF31181202369
:104AE00083F31288BFF36F8F627B12F0100204D041
:104AF00081F31188BFF36F8F10BD2046BDE81040D1
:104B0000FEF7B0BC38B50446EFF31185202383F3DC
:104B10001288BFF36F8F437B13F0280F0BD183688C
:104B20000BB1FFF794FF637B51B903F0FB03204601
:104B30006373FEF763FC85F31188BFF36F8F38BD95
:104B400003F0EB03F3E701211838FFF7DBBF38B5BB
:104B5000EFF31185202383F31288BFF36F8F04686E
:104B6000A0420DD034B12046FFF771FF04F11800C8
:104B700000F02AF885F31188BFF36F8F204638BD07
:104B80000024F7E7EFF31181202282F31288BFF3AC
:104B90006F8F027BD2070CD581F31188BFF36F8F23
:104BA000002383F31188BFF36F8F0423184602DFBD
:104BB0007047437B1B0704D581F31188BFF36F8FC8
:104BC00070470122FEF74EBC10B5EFF3118420228E
:104BD00082F31288BFF36F8F03683BB1FEF7E8FEE4
:104BE000002084F31188BFF36F8F10BD6FF01500A4
:104BF000F7E708B5FEF7FAFF08BD0A44431E9142E5
:104C000000D1704710B511F8014B914203F8014FE4
:104C1000F9D110BD02440346934200D1704703F816
:104C2000011BF9E70246014410B58A42134603D03E
:104C30001C780132002CF8D1181A10BDF0B5C3F160
:104C40003707044603F01F031046FFB2082BE6B2F5
:104C500032D0102B3DD06508A40845EAC17544EA5E
:104C600081748A082D1942EB5102290941EA027127
:104C70006D1842EB1212290A41EA02616D1842EBEB
:104C80001222290C41EA02416D1842EB1242AD1882
:104C900042F10002EC0844EA4274D10804EB8402B9
:104CA000A6EB4205EDB2092D0CD90134A5F10A0598
:104CB00041F10001EDB212E0E40806F0070544EA14
:104CC0004174C908303554EA010200F8015BBDD1D6
:104CD000F0BD240906F00F0544EA01740909092D05
:104CE00084BFED19EDB2EDE70148006870470000A0
:104CF00010030020BCB7FF7F0100000085140000F6
:104D00000000000001160000604D0000B518000012
:104D1000884D0000B5180000744D0000B518000063
:104D20009C4D000061470000B04D00006518000078
:104D300000000000511E0000000000002B45000094
:104D40004C4D000061140000000000006658000097
:104D5000AC560000000000005801002000000000D8
:104D600070580000C8560000D85600005A010020B4
:104D70004C0300207D5800000057000048570000F9
:104D80005C010020A0030020895800001857000093
:104D9000485700005E010020AC030020945800003A
:104DA000305700004857000060010020B803002081
:104DB000A858000078570000C45700006201002086
:104DC000C403002000000000874400000000000031
:104DD000874400000000000087440000000000003D
:104DE000874400000000000087440000000000002D
:104DF000874400000000000087440000000000001D
:104E0000874400000000000087440000000000000C
:104E100087440000000000008744000000000000FC
:104E200087440000000000008744000000000000EC
:104E300087440000000000008744000000000000DC
:104E400087440000000000008744000000000000CC
:104E500087440000000000008744000000000000BC
:104E600087440000000000008744000000000000AC
:104E7000874400000000000087440000000000009C
:104E8000874400000000000087440000000000008C
:104E9000874400000000000087440000000000007C
:104EA000874400000000000087440000000000006C
:104EB000874400000000000087440000000000005C
:104EC000874400000000000087440000000000004C
:104ED000874400000000000087440000000000003C
:104EE000874400000000000087440000000000002C
:104EF000874400000000000087440000000000001C
:104F0000874400000000000087440000000000000B
:104F100087440000000000008744000000000000FB
:104F200087440000000000008744000000000000EB
:104F300087440000000000008744000000000000DB
:104F400087440000000000008744000000000000CB
:104F500087440000000000008744000000000000BB
:104F600087440000000000008744000000000000AB
:104F7000874400000000000087440000000000009B
:104F8000874400000000000087440000000000008B
:104F9000874400000000000087440000000000007B
:104FA000874400000000000087440000000000006B
:104FB000874400000000000087440000000000005B
:104FC000874400000000000087440000000000004B
:104FD000874400000000000087440000000000003B
:104FE000874400000000000087440000000000002B
:104FF000874400000000000087440000000000001B
:10500000874400000000000087440000000000000A
:1050100087440000000000008744000000000000FA
:1050200087440000000000008744000000000000EA
:1050300087440000000000008744000000000000DA
:1050400087440000000000008744000000000000CA
:1050500087440000000000008744000000000000BA
:1050600087440000000000008744000000000000AA
:10507000874400000000000087440000000000009A
:10508000874400000000000087440000000000008A
:10509000874400000000000087440000000000007A
:1050A000874400000000000087440000000000006A
:1050B000874400000000000087440000000000005A
:1050C000874400000000000087440000000000004A
:1050D000874400000000000087440000000000003A
:1050E000874400000000000087440000000000002A
:1050F000874400000000000087440000000000001A
:105100008744000000000000874400000000000009
:1051100087440000000000008744000000000000F9
:1051200087440000000000008744000000000000E9
:1051300087440000000000008744000000000000D9
:1051400087440000000000008744000000000000C9
:1051500087440000000000008744000000000000B9
:1051600087440000000000008744000000000000A9
:105170008744000000000000874400000000000099
:105180008744000000000000874400000000000089
:105190008744000000000000874400000000000079
:1051A0008744000000000000874400000000000069
:1051B0008744000000000000874400000000000059
:1051C0008744000000000000874400000000000049
:1051D0008744000000000000874400000000000039
:1051E0008744000000000000874400000000000029
:1051F0008744000000000000874400000000000019
:105200008744000000000000874400000000000008
:1052100087440000000000008744000000000000F8
:1052200087440000000000008744000000000000E8
:1052300087440000000000008744000000000000D8
:1052400087440000000000008744000000000000C8
:1052500087440000000000008744000000000000B8
:1052600087440000000000008744000000000000A8
:105270008744000000000000874400000000000098
:105280008744000000000000874400000000000088
:105290008744000000000000874400000000000078
:1052A0008744000000000000874400000000000068
:1052B0008744000000000000874400000000000058
:1052C0008744000000000000874400000000000048
:1052D0008744000000000000874400000000000038
:1052E0008744000000000000874400000000000028
:1052F0008744000000000000874400000000000018
:105300008744000000000000874400000000000007
:1053100087440000000000008744000000000000F7
:1053200087440000000000008744000000000000E7
:1053300087440000000000008744000000000000D7
:1053400087440000000000008744000000000000C7
:1053500087440000000000008744000000000000B7
:1053600087440000000000008744000000000000A7
:105370008744000000000000874400000000000097
:105380008744000000000000874400000000000087
:105390008744000000000000874400000000000077
:1053A0008744000000000000874400000000000067
:1053B0008744000000000000874400000000000057
:1053C0008744000000000000874400000000000047
:1053D0008744000000000000874400000000000037
:1053E0008744000000000000874400000000000027
:1053F00087440000B04D000023470000000000007B
:105400008744000000000000874400000000000006
:1054100087440000000000008744000000000000F6
:1054200087440000000000008744000000000000E6
:1054300087440000000000008744000000000000D6
:1054400087440000000000008744000000000000C6
:1054500087440000000000008744000000000000B6
:1054600087440000000000008744000000000000A6
:105470008744000000000000874400000000000096
:105480008744000000000000874400000000000086
:10549000874400000000000087440000B52B000096
:1054A00011480000000000008744000000000000D8
:1054B0008744000000000000874400000000000056
:1054C0008744000000000000874400000000000046
:1054D0008744000000000000874400000000000036
:1054E00087440000692F0000114800000000000000
:1054F0008744000000000000874400000000000016
:105500008744000000000000874400000000000005
:1055100087440000000000008744000000000000F5
:1055200087440000000000008744000000000000E5
:1055300087440000000000008744000000000000D5
:1055400087440000000000008744000000000000C5
:1055500087440000000000008744000000000000B5
:1055600087440000000000008744000000000000A5
:105570008744000000000000874400000000000095
:105580008744000000000000874400000000000085
:105590008744000000000000874400000000000075
:1055A0008744000000000000874400000000000065
:1055B0008744000000000000874400000000000055
:1055C0008744000000000000874400000000000045
:1055D0008744000000000000874400000000000035
:1055E000874400000000000087440000952200006E
:1055F0001148000000000000874400000000000087
:105600008744000000000000874400000000000004
:1056100087440000000000008744000000000000F4
:10562000874400000000000087440000C52B0000F4
:0C5630001148000000000000874400004A
:1056400000A0105000820D5000040550050000001D
:105650000400000001000000000000000000000045
:105660000338FDD870470000000000000000000073
:105670000338FDD870470000000000200000000043
:1056800006000100020000008C560000000000002F
:105690005758000006000000E04F160000000020F0
:1056A0005F58000021000000E07F022000C004508D
:1056B00000800220005016000080010089150000C3
:1056C0005915000000000000DD160000CD15000097
:1056D00051460000574600005D160000CF4500000F
:1056E00031460000000000006B4500000000000093
:1056F0000000000000A0105000820D500004055072
:105700001F00000000A0105000000000000000007A
:1057100000C0105001000000FFFF000000820D508B
:10572000000000000100000000A00D50000000007B
:10573000FF07000000040550000000000200000008
:10574000000000000000000009190000634600008E
:105750006F460000834600008D460000974600001B
:10576000E51A0000AB4600000000000000A0105049
:1057700000820D500004055000600C500000000035
:1057800000000000A057000000C201000000D60188
:1057900000000000000000400A040020090400206E
:1057A00000600C50AC57000001000000B45700002E
:1057B000040000002400000026000002250600016D
:1057C000270600033B470000551D00002D47000041
:1057D00000A0105000820D5000040550FC4C000049
:1057E000FC4C0000344D00003C4D00004C4D0000CE
:1057F0004C4D00002A2A2A20426F6F74696E672080
:105800006E524620436F6E6E6563742053444B2086
:1058100076322E392E302D373738376232363439DA
:10582000383430202A2A2A0A002A2A2A2055736965
:105830006E67205A6570687972204F532076332E38
:10584000372E39392D316638663364633239313455
:1058500032202A2A2A0A00464C4153485F3000531E
:1058600052414D5F3000767072403463303030000A
:10587000636C6F636B403130653030300067706946
:105880006F40313061303030006770696F4064388C
:10589000323030006770696F40353034303000008E
:1058A000010405020608090F756172744063363001
:1058B000303000000718232323232323232323230B
:1058C0002323230001026D61696E00286E756C6CE4
:1058D00029002A666C6F61742A000000974200005C
:1058E0000000000021450000000000000000000052
:1058F000091E000000000000FF0000000090D0031F
:105900000000000000000000000000000000000097
:105910000000000000000000000000000000000087
:105920000000000000000000000000000000000077
:105930000000000000000000000000000000000067
:105940000000000000000000000000000000000057
:10595000000000000000000008000000FF00000040
:105960000000000002000000000000000000000035
:105970000000000000000000000000000000000027
:105980000000000000000000000000000000000017
:105990000000000000000000000000000000000007
:1059A00000000000000000000000000000000000F7
:1059B00000000000000000000000000000000000E7
:1059C00000000000040000000F00000000000000C4
:1059D000010000000000000000000000670000005F
:1059E00000000000000000000000000000000000B7
:1059F00000000000000000000000000000000000A7
:105A00000000000000000000000000000000000096
:105A10000000000000000000000000000000000086
:105A20000000000000000000000000005001002005
:105A300050010020000000000000000000000000F5
:045A400015E015E078
:020000040016E4
:1050000097020000938202589382320073905230CC
:10501000970200009382020F7390723085A3000004
:105020000000000000000000000000000000000080
:105030000000000000000000000000000000000070
:105040000000000000000000000000000000000060
:105050000000000000000000000000000000000050
:10557000808502208085022080850220652300002E
:1055800073900234F322203493D2F2016391020229
:10559000F3120034130181FB16D61AD41ED2AAC20C
:1055A000AEC032DE36DC3ADA3ED806D011A00111A8
:1055B0001303C100B64293F212002322530022C00B
:1055C000178400001304C41DF322103496C6F3237D
:1055D00000301EC26800EF00A015F322203493D2E1
:1055E000F20163980204F32220348563FD13B3F2C1
:1055F00072002D43638962000A8597000000938042
:10560000800A6F20901FB642910296C6B252638AFA
:10561000020009436395620016458645B5A80D450D
:1056200011A016458A85411122C426C60A866F201C
:10563000807D032304009303130023207400631769
:1056400003008A8203214400411116C073252034CF
:105650008562FD1233755500EF00000F9762000060
:10566000938242660E05AA9203A5020003A342009C
:10567000E700030083230400FD13232074006392DA
:10568000030202410C4441112EC013050000EF50EB
:10569000C0548245410111C56529178400001304D7
:1056A00024106800EF008009B642924373901234D0
:1056B0007390033002441303C10083224300364336
:1056C000B36353009EC6F322203493D2F201639F4A
:1056D0000200B25222539253164586457256E25644
:1056E0005257C25782501301810411A00561730003
:1056F000203000000000000000000000000000005A
:105700000000000000000000000000000000000099
:105710000000000000000000000000000000000089
:105720000000000000000000000000000000000079
:10573000F32270342320550082800000832205006C
:0A57400073907234828000008280B2
:10574C00C1676376F5029337051093C717008E0770
:10575C0037F70220930600029D8E3355F500930710
:10576C00C761AA9703C507003385A6408280370717
:10577C000001C147E36EE5FCE147D9BFB307A04088
:10578C007D8DC1676373F5029337051093C71700BE
:10579C008E0737F702203355F5001307C7612A9798
:1057AC0003450700FD173E95828037070001C1476E
:1057BC00E361E5FEE147F1BF2A83AE8263920620E6
:1057CC002A8737F50220B2871305C56163FEC50A27
:1057DC00C1666374D60A9336061093C616008E06FD
:1057EC00B353D6001E950345050093030002AA96F9
:1057FC003385D340638BD300B395A200B356D3004B
:10580C00B317A600D58D3317A30013D30701B3D359
:10581C00650213960701418293560701B3F56502A1
:10582C001E85B3027602C205CD8E63FC5600BE9671
:10583C001385F3FF63E7F60063F556001385E3FF6A
:10584C00BE96B3865640B3D5660242074183B3F683
:10585C0066023306B602C206558FAE86637BC7005E
:10586C003E979386F5FF6366F7006374C7009386D3
:10587C00E5FF4205558D81458280B7030001C14685
:10588C00E36076F6E146A9BF814609CAC166637D2D
:10589C00D6089336061093C616008E06B355D6005E
:1058AC002E9583450500AE96930500023385D540B1
:1058BC006393D5083386C240854513D30701B35390
:1058CC00660293960701C18213550701337666026F
:1058DC00B38276024206498E1E85637C56003E9644
:1058EC001385F3FF6367F600637556001385E3FFBA
:1058FC003E9633065640B3526602420741833376D6
:10590C006602B38656024206518F1686637BD70019
:10591C003E971386F2FF6366F7006374D700138615
:10592C00E2FF4205518D8280B7050001C146E36755
:10593C00B6F6E146A5B7B3D5D200B317A600B3921D
:10594C00A200B356D30033E6560093D20701B3D36B
:10595C0055023317A3001395070141819356060195
:10596C00B3F5550233037502C205CD8E9E8563FCDB
:10597C006600BE969385F3FF63E7F60063F5660059
