:020000040016E4
:1050000097020000938202589382320073905230CC
:10501000970200009382020F7390723085A3000004
:105020000000000000000000000000000000000080
:105030000000000000000000000000000000000070
:105040000000000000000000000000000000000060
:105050000000000000000000000000000000000050
:04557C0065230000A3
:1055800073900234F322203493D2F2016391020229
:10559000F3120034130181FB16D61AD41ED2AAC20C
:1055A000AEC032DE36DC3ADA3ED806D011A00111A8
:1055B0001303C100B64293F212002322530022C00B
:1055C000178400001304C41DF322103496C6F3237D
:1055D00000301EC26800EF00A015F322203493D2E1
:1055E000F20163980204F32220348563FD13B3F2C1
:1055F00072002D43638962000A8597000000938042
:10560000800A6F20901FB642910296C6B252638AFA
:10561000020009436395620016458645B5A80D450D
:1056200011A016458A85411122C426C60A866F201C
:10563000807D032304009303130023207400631769
:1056400003008A8203214400411116C073252034CF
:105650008562FD1233755500EF00000F9762000060
:10566000938242660E05AA9203A5020003A342009C
:10567000E700030083230400FD13232074006392DA
:10568000030202410C4441112EC013050000EF50EB
:10569000C0548245410111C56529178400001304D7
:1056A00024106800EF008009B642924373901234D0
:1056B0007390033002441303C10083224300364336
:1056C000B36353009EC6F322203493D2F201639F4A
:1056D0000200B25222539253164586457256E25644
:1056E0005257C25782501301810411A00561730003
:1056F000203000000000000000000000000000005A
:105700000000000000000000000000000000000099
:105710000000000000000000000000000000000089
:105720000000000000000000000000000000000079
:10573000F32270342320550082800000832205006C
:0A57400073907234828000008280B2
:10574C00C1676376F5029337051093C717008E0770
:10575C0037F70220930600029D8E3355F500930710
:10576C00C761AA9703C507003385A6408280370717
:10577C000001C147E36EE5FCE147D9BFB307A04088
:10578C007D8DC1676373F5029337051093C71700BE
:10579C008E0737F702203355F5001307C7612A9798
:1057AC0003450700FD173E95828037070001C1476E
:1057BC00E361E5FEE147F1BF2A83AE8263920620E6
:1057CC002A8737F50220B2871305C56163FEC50A27
:1057DC00C1666374D60A9336061093C616008E06FD
:1057EC00B353D6001E950345050093030002AA96F9
:1057FC003385D340638BD300B395A200B356D3004B
:10580C00B317A600D58D3317A30013D30701B3D359
:10581C00650213960701418293560701B3F56502A1
:10582C001E85B3027602C205CD8E63FC5600BE9671
:10583C001385F3FF63E7F60063F556001385E3FF6A
:10584C00BE96B3865640B3D5660242074183B3F683
:10585C0066023306B602C206558FAE86637BC7005E
:10586C003E979386F5FF6366F7006374C7009386D3
:10587C00E5FF4205558D81458280B7030001C14685
:10588C00E36076F6E146A9BF814609CAC166637D2D
:10589C00D6089336061093C616008E06B355D6005E
:1058AC002E9583450500AE96930500023385D540B1
:1058BC006393D5083386C240854513D30701B35390
:1058CC00660293960701C18213550701337666026F
:1058DC00B38276024206498E1E85637C56003E9644
:1058EC001385F3FF6367F600637556001385E3FFBA
:1058FC003E9633065640B3526602420741833376D6
:10590C006602B38656024206518F1686637BD70019
:10591C003E971386F2FF6366F7006374D700138615
:10592C00E2FF4205518D8280B7050001C146E36755
:10593C00B6F6E146A5B7B3D5D200B317A600B3921D
:10594C00A200B356D30033E6560093D20701B3D36B
:10595C0055023317A3001395070141819356060195
:10596C00B3F5550233037502C205CD8E9E8563FCDB
:10597C006600BE969385F3FF63E7F60063F5660059
:10598C009385E3FFBE96B386664033D35602420638
:10599C004182B3F6560233056502C206558E9A86CD
:1059AC00637CA6003E969306F3FF6367F60063756F
:1059BC00A6009306E3FF3E96C205098ED58DF5BD74
:1059CC0063E8D514C16763FFF60213B706101347DB
:1059DC0017000E07B7F70220B3D5E6009387C7610F
:1059EC00AE9783C70700BA9713070002B305F740B9
:1059FC006311F702054563E056123336C3001345B5
:105A0C0016008280B70700014147E3E5F6FC6147C9
:105A1C00D1B73397B600B356F600D98E611133D790
:105A2C00F20022C213D4060126C0B3548702B392EB
:105A3C00B200B357F300B3E757009392060193D229
:105A4C0002013316B60033778702B3839202131523
:105A5C00070113D70701498F2685637C770036979A
:105A6C001385F4FF6367D700637577001385E4FF34
:105A7C00369733077740B3538702C207C183337716
:105A8C008702B38272024207D98F1E8763FC5700CC
:105A9C00B6971387F3FF63E7D70063F557001387B7
:105AAC00E3FFB69742054164598D9306F4FF3377B3
:105ABC00D500B3875740F18E935205014182B30351
:105ACC00D702B386D2023307C702B382C2023306AF
:105ADC00D70013D7030132976373D700A292935662
:105AEC000701969663E0D702639FD700C167FD1745
:105AFC007D8F4207B3F3F3003313B3001E97814538
:105B0C006374E3007D158145124482442101828037
:105B1C008145014582808280732540F18142630377
:105B2C00550019A817810000130101F985629382B1
:105B3C0002801691EF20C04E09A073005010F5BFE3
:105B4C000000000023AA150280DDC4DD23A8250275
:105B5C00ECCD032105030322450683204503005D9C
:105B6C00445D828000008280511122C206C4600014
:105B7C00130141FD13067100619AB7F70220938758
:105B8C00C7715CCAB7F70220938747721CCEB7F770
:105B9C000220938787735CCEB70701039387072096
:105BAC001CD2B707000291071CCA8D6537F502207D
:105BBC001305855D814641069385058CEF10B01E5B
:105BCC00130144FFA2401244014531018280184563
:105BDC008E05A167AA956366F7000A06B2958841FF
:105BEC0082800606B29503D50500828018458E0585
:105BFC00A167AA956366F7000A06B29594C18280E4
:105C0C000606B2952390D50082805111054606C434
:105C1C007D3FA24005813101828018458E05A16728
:105C2C00AA95636AF700DC4109C693E71700DCC14B
:105C3C008280F99BEDBF83D7250011C693E717002F
:105C4C002391F5008280F99BE5BF9316160005465B
:105C5C0071BF511106C4A167636FF500A147A1077D
:105C6C008D8385053385F540E13CA240FD473385A6
:105C7C00A740310182809147DDB7311122C626C47D
:105C8C0006C81C45AE842A843EC041378247216732
:105C9C00AA8563E5E70005476307E5063E85553FA2
:105CAC0093172500A297984B3AC015E758448546A0
:105CBC00B396A600558F58C4A6860946A68584CBF4
:105CCC0022852D37A6860D46A68522853244C240F4
:105CDC00A244510121BF824509462285CD3DAA86A9
:105CEC002AC20946A6852285113782460D46A6850D
:105CFC002285ED3D9245A6860D462285C53D824501
:105D0C00A6860946D9B7C2403244A24451018280CA
:105D1C00311106C822C626C43707040091476363B5
:105D2C00E600A1471D8E13847500B2956198E19928
:105D3C00818D00C193D4350004C423260400A685AC
:105D4C002685013F930755008A07138777000D833B
:105D5C003AC07D5701466344E500138607FF814531
:105D6C0013050401EF50B066024622858145F13DD2
:105D7C008146228501468145953D22850546814512
:105D8C00693D824782452285B387F4403E863EC2F8
:105D9C006D3D824622850146B685893DA6852285C4
:105DAC00014665359246A685228501468135A68534
:105DBC00228505469D35228532448245C240A24447
:105DCC00510165BD130141F736C29376460036CCBE
:105DDC00935636009D8A850636D006C522C326C149
:105DEC0032CA93763500639A0644AE879305310721
:105DFC002A84C1999306450019C91D46636FF600A4
:105E0C001155AA401A448A441301C10882809D8B03
:105E1C00214693864700B307F640124637F5022019
:105E2C001305C5752AD441657D161305A5FD32C62B
:105E3C0002C802CE02C48144FD5311462AD619C0B1
:105E4C00124588C202556349A024124337F502203B
:105E5C001305A5BE6368A300370503201305850F42
:105E6C00636CA322D24233838640135523002AD27B
:105E7C0093F2220063910228A2423D436368531CB3
:105E8C0063010428C8001383C2032A931255230A02
:105E9C0073FC2302A3FC724505052ACEB1A493061C
:105EAC00A00763E8E6089306B00463E9E6029306EC
:105EBC00700463E0E6089306900263EEE602930634
:105ECC0050026307D70663E6E60693060002630DED
:105EDC00D7181307D7FD9334170079A2130747FB84
:105EEC001377F70F9306E00263E5E604A2560A0760
:105EFC003697184302878546130767FD3397E600EC
:105F0C00B256F98E63920616B7068038F98EBDEE3E
:105F1C0093741700638A041413073300719BBA86B9
:105F2C00014521E411476311E6161387420099A835
:105F3C00FD13814415AA324593063300F19A0345AB
:105F4C00F5FF9304C006368763079500814479D822
:105F5C000145814419A832460346E6FF6319A60A97
:105F6C00630A04120145814421463297018FE3E90B
:105F7C00E7E85DED11476318E60C03A602001387F2
:105F8C00420090C213834600BA82EDA83247834682
:105F9C00F7FF1307C004639BE60403A60200938477
:105FAC004200084288C14842C8C10846504688C5CC
:105FBC00D0C541460D031373C3FF15C4330583408D
:105FCC003295E3EFA7E21305C004639BA60294414C
:105FDC002320D300D4412322D30094452324D3007F
:105FEC00D4452326D3003293A682A1B703A6420040
:105FFC0003A5020093848200D0C188C121465DBFF5
:10600C009441D8412320D3002322E300E9BF0D03A0
:10601C009376C3FF3687814409D8014581441146E4
:10602C00A9B70D039376C3FF368701EC8144114663
:10603C00025703A502007D173AD02AC213874200EB
:10604C00FDBB2685E1BF21476304E600295555BBFE
:10605C0003A6020003A542001387820090C2C8C2A7
:10606C0013838600BA822146324705073AC6034796
:10607C00070045CFE39504E293065002E316D7FEE2
:10608C00850385441146CDB72147E311E6FC138700
:10609C008200F9B78144E5BF5245098929C9338388
:1060AC008640135523002AD285421305F01FE36F57
:1060BC0065F822453D43E36BA3F821C0034541023B
:1060CC0022432AC01303C303C8002A930245230AA0
:1060DC0073FC2302A3FCE38002DC136505F82302A6
:1060EC00A3FC424505052AC8224505052AC413838D
:1060FC004600BA8295BF81424DBF6384020085077A
:10610C00E5B7624589076DF11245BAC03EDE2EDC5B
:10611C0036DA1ED832D2EF502035F2570647E25508
:10612C00D256C2531256AA97C1B73307834093066F
:10613C00F03FE3EDE6F009E4138587FF3A95D1B122
:10614C00E2460983232004002300E4000347C10135
:10615C0091CEA301E40042472301E40021E78144EE
:10616C002247631597043305834061B9A300E4000B
:10617C00DDB74C0093060704AE9683C606009395D4
:10618C008601E18563DB0500B305C30093F6F607D2
:10619C00E3E8B7C62300D30005030507A246E39A3C
:1061AC00E6FC75BF05460147018ECDBF424709CBC2
:1061BC00138704045400369703070700634707044A
:1061CC00624731C71387C403D4003697034747FD92
:1061DC0001460503A30FE3FE3307864005071A9714
:1061EC003ECAE3EFE7C09387040458003E97034789
:1061FC00070092450503A30FE3FE1A8532C6EF5044
:10620C00B01B3246D2473303C500850491BF3ECA4A
:10621C005800938704043E97034707001AC60A07E1
:10622C0022971C43232007003E853EC2EF50C0231B
:10623C00D24732431306150045B74955D9B601115B
:10624C0006CE22CC26CA2AC032C2B5CE83C73600AF
:10625C002E8783C50600860703C416008A05AE97F1
:10626C0083C526008144AE97B69763E8840203C6C3
:10627C00560083C74600624422065D8E83C76600C3
:10628C0092450245C207D18F03C67600F240D24434
:10629C006206A1065D8E056102871383170083C712
:1062AC0007001A853AC88A07B69723A0670036C636
:1062BC001AC4EF50601B2243930715004247B246A5
:1062CC009A9785045DB7F2406244D2442955056122
:1062DC008280711122C02A87814601459302A00356
:1062EC00930300071304500283470700130317009E
:1062FC0081CF05CD639EB60063897700138707FCB9
:10630C001377F70F63E3E202014502441101828027
:10631C00138607FC1376F60F63E9C2008347170058
:10632C008506130327000145EDD3639487001345BD
:10633C0015001A8755BF130181F8A2D8A6D686DAA4
:10634C00A0182326F4FA93573700858B232AD4FA06
:10635C002322B4FC2320C4FC2326E4FC2322F4FADD
:10636C0083462500AA8485E10347150003450500F3
:10637C000A0536952695832744FC63E6E704B307A4
:10638C0095402322F4FC83C734002324F4FA89C6F5
:10639C008327C4FC858BADE3832784FAF1EF832735
:1063AC0004FC99C7032644FB832544FC268582976D
:1063BC00832744FC130184F8D6504654B6543E85CA
:1063CC00130181078280930715003E85232CE4FA84
:1063DC00232ED4FA2324F4FCEF500009832784FCE9
:1063EC000505032784FB3E95832744FC8326C4FBC9
:1063FC0085072322F4FC41B7DC4003C70400232E9D
:10640C00F4FA832704FC2328E4FA0A07232CE4FA81
:10641C00B385E400639A0734832744FC3387D500A3
:10642C002324E4FC0147832684FC6384D50883C6BB
:10643C000500232CF4FA2320E4FC8A06A696884255
:10644C002322B4FCEF5040028326C4FA832544FC7B
:10645C00032704FC832784FB050581CE1440637A53
:10646C00D7000326C4FA931617000507B29623909B
:10647C00A600AA97850545BF8327C4FC898B85D3C5
:10648C0083C704002328F4FA8A07232CF4FADC408F
:10649C00232EF4FA832784FBB385F400832704FCB2
:1064AC00639B0716832744FC3387D5002324E4FC25
:1064BC0001478326C4FC032684FC958A93B61600F8
:1064CC0085062320D4FC832684FA8606B296232CD8
:1064DC00D4FA832684FC032684FBE38DC6EC832646
:1064EC0084FC83C5060089062324D4FC83C6F6FFEE
:1064FC008A06A69694422322D4FC032644FCB7F6C3
:10650C0002209386A6BE6368D600B7060320938646
:10651C00860F6364D608832644FADDCA0325C4FBC0
:10652C002324F4FA2328E4FA232AB4FA5D338325CE
:10653C0044FB032704FB832784FA59C9232224FC38
:10654C00130141FD130671002328F4FA232AE4FAFF
:10655C00619AB7060320938686818327C4FB54CAAD
:10656C00930600202310D602B706000191064CCEEC
:10657C001CCE14CA896537F50220814641069385E5
:10658C0005481305855BEF100002832704FB0321EC
:10659C0044FC032744FBF9172DBF832644FA8DC214
:1065AC000325C4FB2324F4FA2328E4FA232AB4FA9F
:1065BC000D33832544FB032704FB832784FA3DFD1D
:1065CC008326C4FC858A91EA832604FC958F11B737
:1065DC008326C4FC898AE38E06EE032544FC23281B
:1065EC00F4FA232AE4FAEF4030688326C4FA03272E
:1065FC0044FB832704FB91CE1440637CD700032615
:10660C00C4FA931617000507B296130615002390CB
:10661C00C600AA977DBD638F06148327C4FC918B9B
:10662C00638A07143687232404FC130544FE36863C
:10663C00232CE4F8232ED4F82320B4FAEF50C057BF
:10664C00832504FA8326C4F9032784F9032684FAE4
:10665C00B387D5000606232EC4F83E962320C4FA31
:10666C00032604FA639CC710832784FC03C314001D
:10667C008145338667008327C4FC1376F60F898B1C
:10668C0099E3935517008327C4FC0145858B91E74B
:10669C008327C4FC918B91C33A85832704FCA38088
:1066AC00C400A381B400032644FB832584FB23810F
:1066BC00A400232CD4F8232E64FA2326E4FC26858C
:1066CC008297AA87E34805CE832704FB0323C4FBE8
:1066DC00832684F92380F400832784FA0327C4FCDF
:1066EC00032644FBA381F400832704FC2322A4FA91
:1066FC00A38064002381D400232ED4FABA85130519
:10670C0044FE8297AA87E34705CA832744FC832665
:10671C00C4FB2326A4FC032644FBB385D740832764
:10672C0084FB032504FA9D8D8327C4F99D8D832753
:10673C0004FC82976340051E832744FA0327C4FC9C
:10674C0081463E97B307A700032784FC63E6E61255
:10675C002326F4FC032644FB832704FC81450145D6
:10676C0082978327C4FCB9B12324D4FC01471305B9
:10677C0044FD75BD232404FC0147C9BD83C5070036
:10678C00890703C3F7FF131623002696084237F632
:10679C0002201306A6BE6368C50037060320130645
:1067AC00860F6363C506032644FA15CA0325C4FB8A
:1067BC00232464F82326D4F82328F4F8232AE4F8B5
:1067CC00232CB4F83936832584F9032744F983271D
:1067DC0004F98326C4F8032384F8E31305E803269D
:1067EC00C4FC098A31EE13061700130547FF137614
:1067FC00F60F229551162308B5FE0907229613773A
:10680C00F70F230866FEA9BD032644FA15C6032517
:10681C00C4FB232664F82328D4F8232AF4F8232C69
:10682C00E4F8453C032784F9832744F9832604F9CB
:10683C000323C4F8E31605E20326C4FC058A19CE2B
:10684C00832584FC032684FCD1150506A2952380A0
:10685C0065FE1376F60F2324C4FC19B50326C4FC7D
:10686C00118AE30F06DE130617005117229723082F
:10687C0067FE1377F60FEDB3130744FD3697034706
:10688C0007000326C4FAA309E4FC0A072697184359
:10689C002326E4FC014711C61397160032970357C1
:1068AC0007002322F4FC032644FB832704FC232C3F
:1068BC00D4FA232EE4FA8545130534FD8297634BF5
:1068CC000504832744FC0327C4FB832684FBAA9777
:1068DC002322F4FC09EF0325C4FC232ED4FAEF4049
:1068EC00B038130715008326C4FB420741830326E7
:1068FC0044FB0325C4FC832704FC232ED4FABA855D
:10690C00829763490500832744FC8326C4FBAA971E
:10691C0085061DBDAA8779BC01458280B727032057
:10692C0023A4A79E82801301C1FD2EC80C0806C6A5
:10693C0032CA36CC3ACE3ED02EC0D525B240130149
:10694C0041028280211122C806CA26C62A842EC082
:10695C0032C436C2EF40C0422320A2001246024588
:10696C00A245029403250200EF4060451C49A18B0F
:10697C0099EF58451C4163F6E700B307F740014512
:10698C0029A018510545B307F7409CC18280814767
:10699C00FDB741118A8522C406C62A84C13F11C5A0
:1069AC0082475844FD17BA973EC008508247B24000
:1069BC0022441D8D7D15410182802A871C53184B62
:1069CC003305B600058B01C7FD177D8D828063638F
:1069DC00F5001D8D8280511122C206C42E864C45B5
:1069EC002A84E13F1C4848C4DD9B1CC8A2401244C9
:1069FC0031018280411122C406C614415C4D1397AB
:106A0C0025008A06B6971367270098C32E862EC0DA
:106A1C000C412A845D375C4408C002466316F500BD
:106A2C001C4893E787001CC84C402285793748C026
:106A3C00B240224441018280111122CA26C806CCE0
:106A4C0032C25045584D2E830A063304C7000C4001
:106A5C000946AA8493F235006380C202924723A0B0
:106A6C00070023A006009048098A1DE20145E24078
:106A7C005244C244710182809247898123A007004D
:106A8C0023A00600EDD1813FD84498C40545C5B775
:106A9C00904C228536C61AC4029610402AC09375B3
:106AAC001600E9D5098A2243B2461DCA63050300C4
:106ABC009A8526858137CC4002462685FD3D984433
:106ACC00CC44C8C06396E50002462685FD3588C4D3
:106ADC00984498C0D8C498481367870098C87DB765
:106AEC008245268536C61AC4FD35D0442243B246AB
:106AFC0090C4630803008C40D04C8A052E9623204A
:106B0C000600824726853386670090C28C40753517
:106B1C00944888C093E6860094C81C40F99B1CC01E
:106B2C00924780C3A5B7411122C426C22A8406C647
:106B3C00AE8432C0593518408247631BA7001C48ED
:106B4C0004C0DD9B1CC8B2402244924441018280A7
:106B5C00584C939627008A0493E62600269714C374
:106B6C004C403E862285913D48C0F1BF1C49918B1B
:106B7C0095C3511122C206C426C044512A84113D2A
:106B8C00A68763F3A400AA875CD0A2401244824477
:106B9C00310182808280511126C07146AE848145BC
:106BAC0022C206C42A84EF508002DC441CCC9C44D4
:106BBC005CC89C405CCCDC40232204021CD098486E
:106BCC0099C79386F7FFF58F99E31367170018C8D9
:106BDC00130584021244A2408244054681453101CA
:106BEC006F307002130181FC06DA22D826D61851B8
:106BFC002EC232CA36CC02D002D46369B70C2A84B6
:106C0C0002C402C0F377043022563EC83EC609C601
:106C1C00A2452285093F02D44C102285813B925516
:106C2C009247AA8463EEF50418405C4C12460A079E
:106C3C00BA9703C7070022853EC0719B2380E700EB
:106C4C000C40A53B584408C06307E5028144B24799
:106C5C0093F6870073A00630825591C5544899C2AB
:106C6C002285829602D0D9FCD25042540245B254AD
:106C7C0013018103828018481367870018C8F9B77D
:106C8C0001C52285853BE1B7D24762475D8F1DC7A1
:106C9C002ECEEF30D000F24515E1C24793F48700B9
:106CAC0073A00430D245624613058402EF30C07BDA
:106CBC00737704303AC69334150051BF1C4034101E
:106CCC00101022853EC48D3BAA8451B702C069BF07
:106CDC00411122C426C206C61C4D2A842E85AE84C0
:106CEC0082972A86F37704303EC09840228513673A
:106CFC00170098C04C40D13148C02285853D824751
:106D0C00A18B73A00730B24022449244410182808F
:106D1C00311122C606C826C42A84F37404301C48D8
:106D2C001844A18B91E75C40B386E74063F4E7001D
:106D3C001450998E5C4CA18889E673A0043081476D
:106D4C008DA00A07BA97984393763700FDD609466B
:106D5C006395C6001356270001EA937617008DE25F
:106D6C00184C3E8502972A860C44228532C0B131DC
:106D7C00024608C42285B285B93973A0043071BFAC
:106D8C001367270098C30C44184C3E852EC23EC096
:106D9C00029792452A8622850D3108C473A00430CF
:106DAC008247C2403244A2443E8551018280411147
:106DBC0022C406C626C21C4D2A842E852EC082975C
:106DCC002A86F374043082459C4113F7E7FF98C17F
:106DDC001848098B19C75444584C8A063697639C3B
:106DEC00E5029C41F59B9CC11C444C446397F50007
:106DFC00228532C0D936024608C4B2852285E13ECE
:106E0C00A18873A00430130584022244B24092443A
:106E1C0041016F30C06013162500898BD18F9CC146
:106E2C00C5B7737704301C491445A18B91E75041C9
:106E3C00B307D6406374D6001C51958F218B7320F9
:106E4C0007303335F000828082806F10C0536F1092
:106E5C00A05483470500918B81EF1C4113D59700FB
:106E6C001375F57FD1833E955D056199098182800B
:106E7C0001458280014582806F10D062211122C8A9
:106E8C0026C606CA2A84AA8419E4D240424426851E
:106E9C00B244610182802285EFE05F8E37F60220DA
:106EAC001307865F931745003E9785468345C700B9
:106EBC00B396A60093C6F6FF758C1306865FE9D5CC
:106ECC000C438C4989E93E965C423A8511468C43C9
:106EDC00F58CBD2B55BF3A853EC436C23AC082955F
:106EEC0037F6022002479246A2471306865F49FDF9
:106EFC00D9BF85456F402053B7A502203705032025
:106F0C00130181FD0146938545F71305055C06D2F7
:106F1C0022D0EF40A04181473ECC37040320B94733
:106F2C00B7A60220B705032001473EC202C602C81D
:106F3C0002C402C081479386862E130600309385C7
:106F4C00057C130584153ACAEF308060B705032021
:106F5C00130584159385058DEF30405592500254DE
:106F6C00014513018102828037250320130585A476
:106F7C006F30E04A11112AC23705032013050512A0
:106F8C0006CC22CA26C82EC4AD372AC035C501444A
:106F9C00E24022855244C2447101828003C7C4007E
:106FAC0011CF9840584719C3268502979840184B23
:106FBC001DEBD840114626850C4359298247C10444
:106FCC0085073EC0B247E3EBF4FC9247F1D361D0A6
:106FDC0022856D35A2472A84FDDB8145130590136C
:106FEC00EF301055EDB72685029761D582470547DE
:106FFC003317F700598CD9B7B7F7022037F70220AF
:10700C009384875F9307876001443EC665BFB707CB
:10701C0003200A059387C78EAA9788438280311173
:10702C002EC22AC081470147814601468145014550
:10703C0006C8EF00806FC24051018280AA8711CD33
:10704C0051112E853727032006C42326F79EEF0007
:10705C001048A2400145310182802955828051118E
:10706C0022C2370403208347041506C499E7372549
:10707C000320130585A4EF30803A8547A2402308EE
:10708C00F414124431018280511122C22A84370532
:10709C0003201305851106C4A93D01C8370503203B
:1070AC0085451305C511EF406039370503201305DD
:1070BC00055CEF4000321244A24037250320130533
:1070CC0085A431016F30A03505457DBF3705032000
:1070DC008145130585116F40E037411122C426C24A
:1070EC0006C6ED3737F40220B7F70220AA85130441
:1070FC00845F9384876063679400B2402244924417
:10710C004101828058400347570001CB1840584337
:10711C0009C722852EC0029782454104E9BF51114F
:10712C0022C2B7050320372403201305C4A093857E
:10713C00858D06C48D341304C4A0B7070320A24068
:10714C0023A88710124431018280B7070320A3883B
:10715C000714B7450F00B707032037A502205111BC
:10716C0023AC071093850524B7070320130545E8C6
:10717C0006C423AE0710D935A24031014DB7AA85FC
:10718C0037250320014681461305C5A0A1BC372530
:10719C0003201305C5A0ADBEB7070320AA8503A520
:1071AC00071131B1372503201305C5A09DB9B707C9
:1071BC00032083C70715F9C3511126C006C422C288
:1071CC00F937AA8405C53705032085451305C51174
:1071DC00EF40C02637F40220B7F702201304845F77
:1071EC0093878760636DF40626857D37B707032088
:1071FC0083A78711370403206351F0049304803E66
:10720C00EF408002B3B7A4022166130626A1814683
:10721C00B385B4023385A402BE95EFE0EFD9832782
:10722C00840F0327C40FB307F5403335F500998D50
:10723C006394A50063F3F4004D358327840F8326F4
:10724C00C40FA2401387873EB337F700B697232CA1
:10725C00E40E232EF40E124482443101A1B758409F
:10726C000347570011CB1840A68522851843029777
:10727C00B7F70220938787604104ADB70145828040
:10728C00511126C0B704032083C7141506C422C2AB
:10729C009DE381450545F93937F40220B7F7022003
:1072AC001304845F93878760636CF40009377DFD5A
:1072BC008547A388F414A240124482443101828091
:1072CC0058400347570009CB1840228518470297AE
:1072DC00B7F70220938787604104F9B721118145E4
:1072EC00014522C806CA26C671317D57FD573AC0E2
:1072FC003EC22A8411C51307B06181473AC03EC211
:10730C008327020037070320232AF71091CFB707F2
:10731C00032003A7C711A54763D8E700372503202F
:10732C00130585A4EF30A00F814409C82285B93616
:10733C002A8409E57D57FD573AC03EC28D3D2AC4CB
:10734C0011E995E88245124637250320130585A4DB
:10735C00EF308011A244D1BF9840184F09CB0146A1
:10736C00814526850297B7F7022093878760C10471
:10737C00E3E4F4FEC1BFB7F702209384875FB7F74D
:10738C00022093878760EDB7370503205111130551
:10739C00C51106C422C2B13EB707032083C7171517
:1073AC0099CB737404302135218873200430A240AA
:1073BC00124431018280B707032083A74711E5DB14
:1073CC0005E11244A240A16537050320814601471F
:1073DC00938525A101461305055C31016F30F076CC
:1073EC00A547E316F5FC370503201305055CEF30C4
:1073FC00507E1244A24037250320130585A4310189
:10740C006F30E001B727032083A7C79E411106C642
:10741C002AC08297824588C5372503201305C5A04D
:10742C00EFF01F8BB240410185B70145828037F7E1
:10743C000220B7F702201307875B9387875F998F2A
:10744C008D83014563F5F5008E052E9708438280E8
:10745C00B7F702209387875F5841B307F5409187B0
:10746C0085072302F7005C4105472383C7005C4175
:10747C008CC35C41A382E700DDB618465C42998F51
:10748C0063E8B702511122C226C006C41C422E84E6
:10749C00B2842E86AA853385E700EF40E0719C44C8
:1074AC002285A2979CC4A24012448244310182805E
:1074BC001155828011E1C9BE411122C426C206C6F3
:1074CC00AE872A84B284B68581CE13579600137783
:1074DC00F77F410551823A953EC0EF40E06D8247FF
:1074EC0004C05CC022852244B2409244410119BFC1
:1074FC001111850626C8939426002AC013857401A1
:10750C006199098122CA36C206CC2E8432C48539CF
:10751C009246A306010023070100A30701002306DE
:10752C00D10015C1324722469386C4FF18C90147C2
:10753C00B305E60003A30500B305E500110723AA74
:10754C006500E317D7FE1A04939794001374041C78
:10755C00370610005D8C130606FC618E5244824582
:10756C00E240C24481467101B1B7411132C0854637
:10757C000A8606C6B53FB24041018280311132C045
:10758C0036C20A86894606C8A537C2405101828098
:10759C00211132C036C20A868D4606CA3AC4893FCA
:1075AC00D24061018280397122DC26DA06DE80004D
:1075BC0093D49500232CA4FC232AD4FC93F4F47FBD
:1075CC00232EB4FC13D3450163890414232464FCD7
:1075DC00232404FE232604FE232804FE9147B282B2
:1075EC003EC0A685930704FE29471685232854FC24
:1075FC00930684FE0146232694FCEFE0DFD31307A9
:10760C00F07F832204FD8325C4FC032384FCAA871A
:10761C006377A70683C7520083C642008A84A207F9
:10762C00D58F83C66200130141FD1306B100C2065B
:10763C00DD8E83C77200619AE207D58F1CCE93074B
:10764C0000202310F602B7060320B707000193862B
:10765C00C690910754CA58CE1CCA896537F50220CA
:10766C0081464106938505481305055C2D3F26810F
:10767C00130104FCF2506254D2542161828003261F
:10768C00C4FD9374F57F3707F0FF130573013E9526
:10769C001307F71F93969400718F6199558F098189
:1076AC00232254FC2324B4FC232EE4FC2326F4FCD8
:1076BC00EFF0FFAC2A8329C18327C4FC1307050113
:1076CC002328A4FC2324E4FE2326F4FE232804FE12
:1076DC0091473EC0832244FC832584FC37A60220BC
:1076EC00930704FE2947930684FE13066648168505
:1076FC00EFE07FC4032304FD0327C4FDB707F0FFAD
:10770C009387F71F832644FD832584FDA6043376D7
:10771C00F700458E1A85793BA1BF1305730161995A
:10772C000981EFF0DFA52A83C1BF1301C1FD36C269
:10773C00925622CE26CC06D02EC03284BA84AA828F
:10774C0022573E86B9C22ACAC14501453AC836C637
:10775C003EC4EFE02FE79307F07F2246B246424744
:10776C00D242AA8563F4A70272448250E2443706DF
:10777C00032037F502209306F07F1306C694894543
:10778C001305055C13014102D5BB814513857401BA
:10779C001D8893F272008E022E951A049397950011
:1077AC003364540061995D8C0981939744013ACA02
:1077BC0036C832C65D8C2EC4EFF07F9CAA8409C9F2
:1077CC00C24699C652473246A2454105EFE08FDFCB
:1077DC00228672449246824582502685E2441301E9
:1077EC004102C9B9484111C9B7F702209387875B99
:1077FC001D8D0D814205418582807D558280311120
:10780C0022C626C4328406C8AA87AE84368611E402
:10781C00C2403244A2445101828032C2A2852685E4
:10782C003EC0829712468247098CAA94CDB751115B
:10783C0022C206C45C412A840C45D44390430841BF
:10784C007D3F5C4023A00700A2401244310182809E
:10785C00011132C82E86AA8537B5022036CA130507
:10786C00458A140806C63ACC3ECE36C0EF005027E7
:10787C00B2400561828093F7050191EF93F5050203
:10788C0091C5B7050320938585B0D9B7B7050320FB
:10789C0093854598DDBF8280511122C226C006C453
:1078AC00DC41AA842E849843DC456314F7002E85B2
:1078BC00BD3F48408545EF3010371C44AA972380C4
:1078CC009700A2401244824401453101828051113B
:1078DC0022C226C006C4A9472A84AE846314F500CC
:1078EC0035455D3FA6852285453FA2401244824422
:1078FC0001453101828039713ECE864706DE22DC9D
:10790C003ED0964726DA2AC23EC8A64732CA36CCA3
:10791C003EC4B6473EC6F24763890716B2472E846B
:10792C008144898B3ED4B247858B3ED6B247A18B1E
:10793C003ED2B24793F707103ED8EFF01FAF2A861E
:10794C0001C91245B7050320938505991137AA84FF
:10795C00A25789CFB24793F74704B5EF1245B70545
:10796C000320228693854599E535AA94B25785C79D
:10797C007247B7070320938707A30A07BA97904368
:10798C0009E637060320130686981245B70503202F
:10799C009385C59B753DC257C5C392576395070E1A
:1079AC00D247014489CB1245B70503203E86938507
:1079BC00059C793D2A84B30794003ECA825763998B
:1079CC00071AA247F1EFB247858B63970720B245A0
:1079DC0012455535C1A2B707032083A7871201456D
:1079EC00C9D737070320032747121303803E0566C8
:1079FC003354E402130606E11305C003B355F40235
:107A0C003374F402330464023377F40233076702ED
:107A1C00B3F6C5023357F70233D6C5023AC0B705E1
:107A2C0003209385059A33F7A602B357F402B3D615
:107A3C00A6021245313D15BF9257014485C37247CA
:107A4C00B7070320938747A40A07BA9790431245B8
:107A5C00B70503209385459CE53B2A84D24789CB07
:107A6C001245B70503203E869385059CD5332A9491
:107A7C00E247B1D31245B70503203E869385C59CDA
:107A8C00C13B2A940DBF02CC5DBF62478547631A88
:107A9C00F70C825763960710A247638D070E02CA34
:107AAC002244C14763F387004144B24512458144E7
:107ABC00D933D24763CCF40EC2471245854403C672
:107ACC000700B70703209385479D593313F77400BC
:107ADC0019E71245B70703209385879C953B63FFF5
:107AEC00840CC24712453387970003460700B7073B
:107AFC0003209385479DA93B85044147E398E4FC0B
:107B0C001245B70503209385059E9933814401479F
:107B1C00C2473E97034607001307E005930606FE8F
:107B2C006374D7001306E0021245B7070320938550
:107B3C00479E393B850441476389E40813F7740079
:107B4C0019E71245B70703209385879C11332687C5
:107B5C00E3E084FC1245B70703209385879CCD395D
:107B6C00D1BF825795DB37B502201305A58D2DA803
:107B7C0037B502201305458A82561246B7B5022046
:107B8C009385C52EEFE0AFEBA247E39B07F0F247DE
:107B9C00E39B07E262541245F250D254216141B981
:107BAC0037B502201305458A02CAF9B71245B70743
:107BBC0003209385879C69398504E5BD1245B7057B
:107BCC0003209385C59D693105BFC247A2973EC866
:107BDC00A247818F3EC455BF124537060320B70517
:107BEC000320130686989385C59B9D31CDB3130155
:107BFC0041FD26D006D422D280419C452ACC135775
:107C0C0064003ECA2E8593777700AE8432CE3EC890
:107C1C00D13E8146634905000D801D88AA852285C9
:107C2C00EFF0FF80AA8698409387040113569700C3
:107C3C001376F67F5183B385C70011E281477246F4
:107C4C002EC23EC0D245C247624532C63AC4014636
:107C5C0001475531A250125482541301C102828043
:107C6C00211122C806CA26C61C4109671307F770E2
:107C7C003EC02A84BA866363B700AE8637060320FB
:107C8C001306868B95454800EF30B0005840AA8407
:107C9C0002455443B70503202D46938545A0EFF0CC
:107CAC001FB658400245268654434C00EFF03FB5B2
:107CBC005C400245B7050320D4436D469385859EF1
:107CCC00EFF0FFB3D2404244B244610182803747A7
:107CDC000F008146854713070724636DA7003707FC
:107CEC00032091E285472322F712B707032023A430
:107CFC00A7128280058186078546C5B75C41014580
:107D0C009C43DC438CCB82805C419C43984358431E
:107D1C005CC38280211106CA22C826C65C418546F6
:107D2C009C43D843230AD7008043544018401C443A
:107D3C008442D04289E85C4023A00700D2404244F0
:107D4C00B24461018280A6853E8532C43EC23AC0EF
:107D5C000297924722460247898CAA97E1BF5C4161
:107D6C009C438843F5BD411106C622C45C412EC01C
:107D7C0080435C40884BEFF08FA9AA8708402244CF
:107D8C008245B2403D4641018287411122C426C240
:107D9C0006C6AE842A843307B500B7F702206318F1
:107DAC00E400B240224426859244410182808345FE
:107DBC0004003AC0938687C79446138587C7050489
:107DCC00D44282960247D1BF8280370503205111DD
:107DDC00130545AA06C4EFE01FB5A24037050320E2
:107DEC001305C5AD31016FE01FB4B2862E868545F3
:107DFC006FF0CFF8130505058280111122CA06CC4D
:107E0C0026C860082324A4FE2328B4FE2326C4FE1F
:107E1C00F3272034D207D1832322F4FEB7070320A3
:107E2C00B7F40220138687AD85451385045EEFF009
:107E3C00CFF3832744FE414637070320C1466363D3
:107E4C00F600BE868A06232224FE1307C7D7130129
:107E5C0041FD3697130671001443619A1CCE9307AB
:107E6C0010302310F60237070320B7070001130761
:107E7C00C7B0910758CA54CE1CCA896581464106C1
:107E8C00938505441385045EEFF0EFF1032144FE66
:107E9C0073263034B7050320938505B21385045E31
:107EAC00A937832704FF6387070EF443D857370697
:107EBC000320130606B385451385045EEFF04FEDE2
:107ECC00832704FFB4439857370603201306C6B420
:107EDC0085451385045EEFF0AFEB832704FFD45F79
:107EEC00D853370603201385045E130686B68545E2
:107EFC00EFF00FEA832704FFB70503201385045E18
:107F0C00905F938545B8D535832704FFB7050320CB
:107F1C001385045ED05B938545B9C13D832704FF6F
:107F2C00B70503201385045E905B938545BA753DB8
:107F3C00832704FFB70503201385045E138607050A
:107F4C00938545BB5D35832704FFB7050320138557
:107F5C00045E9053938545BC493D832704FFB705C8
:107F6C0003201385045EF047938545BDBD3D8327F3
:107F7C0004FFB7050320938545BED0431385045EEB
:107F8C00AD35B7070320138687AD85451385045E91
:107F9C00EFF0AFDD8327C4FE85CF9047B7050320F4
:107FAC001385045E938545BF89358327C4FEB705C9
:107FBC000320938545C0D0471385045E3D35B70734
:107FCC000320138687AD85451385045EEFF0EFD94A
:107FDC008325C4FE032504FF992C832504FF032568
:107FEC0084FEEF2040015111014606C43935511170
:107FFC00AA85014506C4C53F511106C4F326203499
:10800C0037060320D20637F5022085451305055E99
:10801C00D182130606DCEFF06FD681450545E137BA
:10802C00511106C4EF204025EF20402F01111306FB
:10803C0006FB22CC26CA06CE137406FF5CDC8257E4
:10804C00AA8474C01CDC8967938707885CC0B7A7B7
:10805C000220938707957CC438C08A851305C40019
:10806C00514602C002C202C402C602C8EF30D0346C
:10807C00B78702209387A76980D8DCD8E4CCF2407C
:10808C006244D24405618280411126C2130700006C
:10809C0093044000BA9422C433849540B7F502206F
:1080AC002AC01306000093858560228506C6EF3032
:1080BC00B030130700003305E4001306400081457F
:1080CC00EF30F03082472685E0D3B2402244924410
:1080DC0041018280937735002A8799EBFC45014555
:1080EC006369F700B449B697C19B3335F7008280BA
:1080FC0001458280130181FD06D222D026CE2AC2F0
:10810C002EC432C636C03AC8A9C23685E5310247FC
:10811C00AA877847BE84014401430246B245C24750
:10812C003ACC1ACA2685829725C952436247637591
:10813C009306B78702201386C774637CC7029850D6
:10814C00138644002683B284C9BF3E8791CBB70700
:10815C0003209387C7799C47938707036318F7001D
:10816C0037B702208A87130707106DB71C43584393
:10817C0055B737F602201306A6BEE372C7FC22459C
:10818C0092472686BA85829701C90504A145985065
:10819C0013864400E318B4FA92500254F2441301CB
:1081AC0081028280937635002A8795E691C5B707C0
:1081BC00032083A7C77999CFB7170320938707AC00
:1081CC000145636BF700856693860680B697333559
:1081DC00F700828001B701458280511122C206C48A
:1081EC0060001441130141FD938716001CC19307D5
:1081FC007100E19B37070320130787DED8CB1547A7
:10820C008CD394CFD0CF98CB8D6537F50220130546
:10821C00055E81461386070193850584EFF0AFB8A0
:10822C00130144FFA2401244054531018280211103
:10823C0006CA22C82AC22EC002C437F4022037064E
:10824C0003201305045E130686E08545EFF0EFB1BD
:10825C00370603201306C67982479246104637B775
:10826C00022037B502201307071B2C001305651ECF
:10827C005135370603201305045E130686AD85457C
:10828C00EFF0AFAED240424461018280511106C47E
:10829C00DC498C4D8297A240014531018280B707A1
:1082AC00032083A70713511106C48297A2400145EE
:1082BC0031018280511106C4DD37A24001453101E4
:1082CC008280B707032023A8A712B7270320938720
:1082DC00078C03C74700136727002382E7008280BF
:1082EC00130181FD02C2894732872302F100B7B71F
:1082FC0002202ACA2ECC938787290A853686BA850E
:10830C0006D202C002C602C83EC4EF30E02F925023
:10831C00130181028280B72503209385F5A5E1998D
:10832C00370604203705032051111305C5760D8E31
:10833C0006C4EFD0FF9DA24001453101828051114E
:10834C0006C4EF00F025A240014531018280511195
:10835C0006C4EFF07FA70F00F00FA14773A0073002
:10836C0073005010A24031018280F327007C370744
:10837C0083AF7917F98F37077D500507D98F739025
:10838C00077C01458280B71700F00A053E951C4119
:10839C0093E707101CC182808D47014763E5B70046
:1083AC009A051387F503B71700F00A053E951C4193
:1083BC006207A207A183D98F1CC18280511106C408
:1083CC0022C237F50220130585C7EF10503EB55772
:1083DC0019C937B402201305C43FE5351305C43F52
:1083EC00EFE0CFD38147A24012443E853101828019
:1083FC00511122C226C006C4B7F4022029472A8490
:10840C00938784C7631AE5009847B545138584C7DD
:10841C0058430297938784C79C47138584C79375E9
:10842C00F40FDC438297A24022851244824431012E
:10843C0082805C410145DC43DC479CC182805C410D
:10844C006D8E0145D8439347F6FFED8F50C31CC783
:10845C0082805C410145DC43CCC382805C41014598
:10846C00DC438CC782805C410145D8431C43AD8FF3
:10847C00B3F6F50093C7F7FFFD8D54C30CC782808C
:10848C001C49D84321C3631CB70298419447D8C3F5
:10849C006393D50098C723A0050019C6D84398C18B
:1084AC009847CCC311E38CC7014582806399E500E2
:1084BC00984198C29847E390E5FE94C7E9BFBA8605
:1084CC0018436DF761FE29558280130181FD06D298
:1084DC0022D026CE2E874C419377F70103C4C500DA
:1084EC0016045D8C9C49EDC713850501B707200068
:1084FC002AC06317F600A285EF10A0758147D1A0A2
:10850C0002C6B7074000631AF60837050002954704
:10851C006393A600914702C802CC8C453EC43C0034
:10852C00B3D5E5003ECA8589A9E9B70740016316B2
:10853C00F6049377F4019356540009479387070286
:10854C00636BD708370703208A06130787E1369732
:10855C0018438A07BA979C43858B85E3024513061B
:10856C007100A285EF10E044B704AD0B9387440073
:10857C006301F504930771003EC602451008A285FD
:10858C00EF0090783707AD0BA957631CE502024545
:10859C000546A285EF10C05795B7370500068D47E5
:1085AC00E38BA6F6370500028547E396A6F68947C6
:1085BC009DB7024593057100EF10A053D157E30B03
:1085CC0095FA92500254F2443E8513018102828046
:1085DC009307A0F7FDB78A079C4302901301C1FCD7
:1085EC0026D406D822D640412E831377F301834537
:1085FC00C400B2849605D98D137706010D4601E7A8
:10860C0013D65400058A32C813F7643093066010F1
:10861C00630BD70A63E8E60299466308D70A63ED51
:10862C00E60015CF8946630CD7022955C250325447
:10863C00A25413014103828093060010E317D7FE66
:10864C00054731A8930620206303D7089306003012
:10865C006301D70893060020E319D7FC11473705AF
:10866C0008008546658DB396660035C5484054C1F3
:10867C001448ADEA93F6F50113D55500894563E22C
:10868C00A510B70503200A05938585E1AA958C41B1
:10869C008A0693D71401B69593D6040193C6160097
:1086AC00858A03A505088606858BD58FFD7693866E
:1086BC00060FE98ED58F0A06D18F22075D8F23A076
:1086CC00E5080145A5B7254759BF214749BF1947BB
:1086DC0079B7154769B737050400658D51D94840FE
:1086EC0014C579B741041306F10022853AC42EC291
:1086FC00EF10202CB70603002AC0E58E92452247C6
:10870C0099EE2285EF10C03C0247B707AD0BE31A78
:10871C00F7FA8345F1002285EF10C03B5DB7540892
:10872C00700822853AC436D02EC202CA02CC02CEC0
:10873C0002D2EF00705DB706AD0B92452247E316EF
:10874C00D5EEB7060200E58E85C693D7040193C714
:10875C001700858B3ED0C2478146700822853ACEE1
:10876C003ED2EF100006B707AD0BE30FF5F875BD61
:10877C001C087008228502D002D23ECEEF00D058E1
:10878C00DDB7938606028A069C420290511106C4FC
:10879C0022C240411C48B9C341042285EF1060310C
:1087AC0015ED81452285EF1020263707AD0BED57CF
:1087BC006317E502B7B5022001469385457F2285F4
:1087CC00EF10C01C014685451305A00DEFE02FE806
:1087DC00014685451305C010EFE06FE78147A240C5
:1087EC0012443E8531018280411106C622C426C244
:1087FC00935755000947638BE70005476382E704ED
:10880C00A9C7B240224492444101828037F402202D
:10881C00130444C61C48CC43EDD584418547B3971B
:10882C00A700E5D190457D8E11C6D84122853EC06A
:10883C0002978247014791C09840A685BA84D5B764
:10884C0037F40220130404C5F1B737F402201304E3
:10885C00C4C3C9B75C411CC28346850058418E060F
:10886C00369763E4E7007955828003C757006304A9
:10887C00B700A107CDB701458280B707032031119E
:10888C00938707EC3EC2B707032022C8938747EBB8
:10889C0037F4FCFF26C62EC081423EC41304040FDD
:1088AC0082476394F2000145C5A01441A14513D73A
:1088BC00B6003D8B93F7F61F63E3E51692450A0766
:1088CC00E1822E979305F01F1843639DB700D9479B
:1088DC00639DF606FD572320F656850293F2F20FA0
:1088EC0011057DBFD945639AB6022320F6568356EF
:1088FC002500858A95EA93D55700894663E3B6121D
:10890C00B70603208A05938646EBAE968C428546C5
:10891C00B396F60094C5854375A063EBD5068945DF
:10892C006395B6042328F66093D55700894663ED0A
:10893C00B60EB70603208A05938646EBAE968C429C
:10894C008546B396F600D4C1F9B763E9D7008945DB
:10895C00FD57639CB6002328F66041B7E145FD57EF
:10896C00639EB6022324F6568DBF894563E9D50074
:10897C00A1E62322F660FD56E398D7FAB9BF8D45E0
:10898C006389B6081305A0F74244B24451018280B2
:10899C00E1456395B6002324F65691BFE545638DFA
:1089AC00B606DD45E390B6FE2322F656FD5514417E
:1089BC00E385B7F2C18235BF2326F660FD568143AD
:1089CC00E38DD7F003230500A1669E85B376D30013
:1089DC0099C28545814393F6F7018944958363E8F1
:1089EC00F404A2448A078A06A6979C431353730087
:1089FC001373C300BE9683A7060822073367E300F0
:108A0C00E18F5D8F336777008605D98D23A0B6087B
:108A1C00E9B52324F6605DB72326F65641BF2955E8
:108A2C00A5B723240000029023220000EDBF9386FB
:108A3C0006028A069C42C5BF5C419C4383A7071370
:108A4C0082805C419C4303A5074823A0A7488280F1
:108A5C0058411C4383A6C71491CE185B01450347AC
:108A6C0007002380E50023A6071403A7C7140547B6
:108A7C0098D782807D55828041110146854522C45C
:108A8C002A841305401006C626C2EFE04FBC13051E
:108A9C004010EFE08FBB5840B705040014435C4B0B
:108AAC0023A2F65210535C4FD18F5053D18F1057D5
:108ABC00184FD18FD98F23A6F65654409C4213865B
:108ACC00072018424D8F18C213870750214610C338
:108ADC00D4561387077054DF23A007740547B8CB0F
:108AEC0003A7071375DF23A007505C400A86814556
:108AFC00C44726858533634805008247904083C56B
:108B0C00470088439D3B5840A1461C4323A0D750A7
:108B1C008346870089EE185B93860770D8C2054799
:108B2C0098C623A6071493860710F44698D7B2402C
:108B3C0022449244014541018280311122C606C86B
:108B4C0026C444412A842EC0EF10701511E5370756
:108B5C0003200347471509EF737704305040BA865A
:108B6C0010420326061305EA218B73200730EDB75C
:108B7C001307400654403AC2944283A60613B1E64A
:108B8C000545B12412477D1775F781451305000281
:108B9C00EF20001AF1BFD8548247A18A2300F700B6
:108BAC005C40D8549C431386077058DE054738C286
:108BBC0023A8071213860710105AB8CB73A00630DF
:108BCC00C2403244A2445101828073770430504039
:108BDC00BA861042032606135DFE218B73200730E4
:108BEC006DB711119307B100E19B3E8522CA26C8CF
:108BFC003EC006CCAE843284EF106013824798439B
:108C0C00DC4363E687046314F40063629704B706DD
:108C1C00032003A7061003A64610E2403385E44068
:108C2C00B3B4A400118C058C937705FE3E97229665
:108C3C0015816E04B337F700418D5244C244B2978C
:108C4C0023A0E61023A2F61071016F20004AE24027
:108C5C005244C2447101828051110146854513056D
:108C6C00200E06C422C2EFE08F9E0145EF10A0112A
:108C7C003707AD0BFD576312E5022A843725032015
:108C8C001305C58DEF10400FD15763188500B7073A
:108C9C000320614723AEE7128147A24012443E8570
:108CAC0031018280211122C81304710006CA26C624
:108CBC006198F37404302285EF1060070840A18896
:108CCC0073A00430D2404244B2446101828021112D
:108CDC0022C8130471006198228506CAEF10200582
:108CEC00B7060320184003A506105C4083A6461067
:108CFC003305A740D24042443337A700958F998F54
:108D0C00EE0715815D8D61018280211126C606CA90
:108D1C009304710022C8FD57E198630BF5062A8471
:108D2C006353050001442685EF106000B70703204C
:108D3C008C4003A7071083A64710D040B387E540AB
:108D4C00B3B5F500158E0D8E9355F4411355B40142
:108D5C0096051604C98D3E94B337F4002E96B2973F
:108D6C0089E71306F003637986020198B30587003F
:108D7C004244D240B2443386F60033B7E50037257F
:108D8C00032085463A961305458D61016F10200925
:108D9C00370400807D1441BF130400028147F9B7EA
:108DAC00B717125083A747800547638CE7000D4720
:108DBC006398E700B72703203797D00323ACE79ECF
:108DCC008280B72703203727A107CDBF02856F10FC
:108DDC00401B311126C406C822C6AA84AE878C401B
:108DEC003EC295CD2E852EC07D44EFC07F95098C5B
:108DFC001374F40F05468245331686001346F6FFAE
:108E0C006D8E2685EF208060924771D92380870074
:108E1C003705AD0BC2403244A24451018280370564
:108E2C00AD0B0905C5BF1C41B3D7B700858B9DE7BA
:108E3C00511126C0854422C206C42A84B394B400BE
:108E4C000C4033E695002285EF20405C75D9A2409A
:108E5C00124482443705AD0B310182803705AD0BCE
:108E6C0011058280B707032013575500938787F6A7
:108E7C00BA9783C707007D893E951375F50F8280DD
:108E8C00411122C42A842E8526C206C62EC0B28465
:108E9C00D13F930785008607A29783D7070093F6E7
:108EAC00071091CA998393F78707A2979443D043ED
:108EBC000245A68582961C4489CB50442244024527
:108ECC00B240A685924441018287B240224492442A
:108EDC0041018280411137F702202EC013078761B0
:108EEC005000AA879305C5008346070013D53600AA
:108EFC0041050A95034505FF9D8A3355D500058923
:108F0C0009E9910705071106E390B7FE01454101F8
:108F1C0082800F00A00AB7A6105036C2B7860D503B
:108F2C009386062036C4B70605509386064036C68F
:108F3C00144203A3060223A0670023A066020F00BD
:108F4C00F00F9443DDDEE1B7511122C22A842E8545
:108F5C0006C4093F834744001306600337270320E8
:108F6C00B387C7029306078EAA97A1078607BE96FA
:108F7C0083D7060013F607102DCA79761306F60F61
:108F8C0093D59700F18F2390F60003464400930786
:108F9C00C0061307078EB307F602BD8901451303FC
:108FAC003002BA9783D6070193F20610638602004B
:108FBC00A582BD8A638BD50205058907E31465FE7E
:108FCC009306C0063306D60293973500B297BA972C
:108FDC0023A00700034544001244A2403305D502E8
:108FEC003101130505063A953DBDA24012443101ED
:108FFC008280397126DA06DE22DC03274530B7077A
:10900C0002002EC01377F70FAA845D8FAC4D0F00B2
:10901C00A00A014401460545639EC50A83A7441472
:10902C0089CB9387441423A007009C43B707020005
:10903C005D8C0F005005B7070200E18FC9C782474E
:10904C00281002D4EC5302D602D86935B7F70220A7
:10905C00938787613ECA3C103EC402C25247924776
:10906C008246BA9703C7070093573700B69783C752
:10907C0047061D8BB3D7E700858B639C0718924777
:10908C0085073EC2A247124791073EC48D47E3179E
:10909C00F7FC8247B04F0F00A00A8146C545631EFE
:1090AC00D61C83A7441491C79387441423A00700AC
:1090BC009C430F00500582472810EC53213D41FD85
:1090CC008177FD177D8C631B041CF2506254D254C3
:1090DC00216182809377F60F8A0793860710898324
:1090EC00B317F5003373F700630B0300A69603A3C5
:1090FC0006006306030023A0060094425D8C05065F
:10910C0021BFEFC0AFE79246B7F702209387876184
:10911C00B69783C507002AC89605C98D2E852EC61D
:10912C00EFF05FD40247930785008607BA97424752
:10913C0083D60700A247135637001D8B3E968547F2
:10914C00B397E7000347060093C7F7FFF98F230097
:10915C00F6000F00F00FB245894393D755003EC877
:10916C0013F7F50163ECF31613D52600B7000320B3
:10917C0093D65500939226009387C0F59697944307
:10918C00130307020A033693832703001376750033
:10919C00C1838D8B0F00A00A9380C0F5118906C680
:1091AC0035CD02451AD23ED036CE3ACCEFF05FCD5B
:1091BC000F00F00F1253032603000F00A00A825772
:1091CC0041820D8A6247F246639AC7020F00A00AD9
:1091DC0013162700B296938606088C423706FDFFBD
:1091EC007D16F18D8CC20F00F00F0F00A00A8C427F
:1091FC00C2076D8ED18F9CC20F00F00FC247B246D2
:10920C008A07B69794438547B397E7009CD20F0023
:10921C005005A2478843E31605EE95B58D4663834A
:10922C00770089460F00A00A324513132700C206A7
:10923C00AA9203A50200B702FDFFFD121A950323A3
:10924C00050833735300B3E666002320D5080F00DE
:10925C00F00F0D456308A6008946639BD700854730
:10926C00E31EF6F802453ACCEFF09FC1624779B79E
:10927C00E396A7F8E314D6F8F5B793F7F60F8A0739
:10928C001387071089836399B700B387E400984369
:10929C0001C723A007009C43850611B52285EFC0AA
:1092AC00EFCD8547B397A70093C7F7FF7D8C0F00D1
:1092BC00F00F0A052695832505510F00A00A0F0013
:1092CC00F00F032605510F00A00A0245418291813F
:1092DC000D8A93F5F51FEFF0BFBAF5B3130707022C
:1092EC000A071C430290511122C22A842E8506C4FF
:1092FC00EFF05FB7130760033304E402B7270320D2
:10930C009387078EA2402A9421040604A29703D5C2
:10931C0007001244358131018280511122C22A8406
:10932C002E8506C4EFF01FB4130760033304E40268
:10933C00B72703209387078EA2402A9421040604A2
:10934C00A29703D50700124405810589310182805B
:10935C00511122C22A842E8506C4EFF0BFB0130728
:10936C0060033304E402B72703209387078EA240DF
:10937C002A9421040604A29703D5070012441581F0
:10938C00058931018280411122C426C206C6834759
:10939C004500AA842E843E853EC05D3F1DCD02450E
:1093AC00A285A53F1DE90245A285353F984085471A
:1093BC00B397A7002324F7300F0050059C400A05F3
:1093CC00AA9703A70751719B23A8E7500F005005DC
:1093DC00B24022449244410182800F00A00A094706
:1093EC009377F401158063668702370703200A041C
:1093FC001307C7F5229718438A07B706FDFFBA97DC
:10940C0003A70708FD16758F23A0E7080F00F00FC0
:10941C00C1B7938707028A079C430290111122CA95
:10942C002A842E8526C806CCAE84EFF0BFA38347D2
:10943C0044001306600337270320B387C702930643
:10944C00078E1307078E2AC23AC4AA97A10786076C
:10945C00B69783D70700858BD9CFA685228525376C
:10946C0083474400A6853E853EC0DD3519CD1C40A2
:10947C000245A6853EC6853DB2470A05AA9723A894
:10948C00075023A807500F005005A6852285EFF042
:10949C00BFAB83474400130760038946B387E702D9
:1094AC001247BA972247A1078607BA97239007005D
:1094BC0093D7540013F7F40163E3F604B7060320C3
:1094CC009386C6F58A07B6979C430A07B7F6FCFF46
:1094DC003E97832707089386060FF58F93E727009F
:1094EC002320F7080F0050053705AD0BE24052441E
:1094FC00C244710182803705AD0B1105C5BF13073E
:10950C0007020A071C4302901301C1FD26CC2AC492
:10951C00B2842E8522CE2EC206D0EFF0BF948040AE
:10952C002AC09245A24755C403C747003EC62EC465
:10953C003A853AC2DD33A245B24719CD1245093DF1
:10954C00A245B24711C93705AD0B110582507244C3
:10955C00E24413014102828013D65500894613F769
:10956C00F50163E0C61EB70603200A069386C6F50E
:10957C00B29694420A07BA9603A606081840419A76
:10958C000A07518F23A0E6080F00500503C74700B8
:10959C001306600302453307C702B72603209386E0
:1095AC00068E2A97210706073697035507007599EB
:1095BC002310A70003C747003307C70202463297A0
:1095CC0021070607BA9603D70600136717002390E6
:1095DC00E600D8403DC783224700004303C747003D
:1095EC0016C83EC63A852EC43AC2EFF01FD31247B6
:1095FC00A245B247C24239C9E39702F403C74700F8
:10960C001306600302453307C702B726032093866F
:10961C00068E0A042A97210706073697035507007A
:10962C000D992310A70003C747003307C702024652
:10963C00329721070607BA9603D70600418F23906D
:10964C00E600984461E33705AD0B09B713036003DB
:10965C0033076702B72603209383068E824609657B
:10966C001306F5FD3697210706071E97835607004C
:10967C00F18E2310D700E38302F80D47E36587ECE6
:10968C00D840584303460700984393122600169778
:10969C0001E823280750232807500F005005B9BFB5
:1096AC0083260751F19A2328D7500F005005944375
:1096BC004115969693860650984AB7E2FCFFBD0278
:1096CC003377570098CA83A2060113974500698F18
:1096DC0013150401498F3367570098CA0F005005C2
:1096EC0003C74700824636063307670236972107C1
:1096FC000607BA9303D70300518F13670702239011
:10970C00E300EDBD004358433E853EC43AC2EFF042
:10971C00BF8315D8A2471306C006B724032003C580
:10972C0047001387048E9384048E3306C502329748
:10973C001043631DC400584392466399E6000147E9
:10974C000DA8130707020A071C4302901307C00653
:10975C003305E502930571013EC4130505062695F4
:10976C00EFF02FE73707AD0BA247E311E5DE034718
:10977C00710103C647001305C00693153700330665
:10978C00A6022E96269600C283C64700B386A60272
:10979C00B6959246A695D4C183C74700930660033D
:1097AC00B387D7028246B697A1078607A69793166A
:1097BC00970003D70700558F136707102390E70016
:1097CC0059B5111126C8AA842E8532C606CC22CAD8
:1097DC002EC036C4EFF00FE932462AC269CA03C460
:1097EC00440082452285EFF05FB3324619ED824585
:1097FC002285EFF0FFB5324609C93705AD0B1105CF
:10980C00E2405244C24471018280930560033304E8
:10981C00B4021247B72603209387068E9386068ED2
:10982C003A9421040604A29783D7070089839D8B61
:10983C0089C74C428547E382F5FC0247824789453C
:10984C0013555700FD8B63EEA512B70503200A05CF
:10985C009385C5F5AA958C418A0703238600BE958E
:10986C005C4203A505080A0386071042B3E76700AC
:10987C007D731303030F33756500C98F2206D18FD7
:10988C0093E7170023A0F5080F00500583C7440089
:10989C00130660031247B387C702BA97A10786075E
:1098AC00BE9683D7060093E737002390F600A247B5
:1098BC0081E73705AD0BA9B7824503C54400EFF02E
:1098CC00DFA505DDA24703C407009C4093122400CA
:1098DC00969723A8075023A807500F00500583C75D
:1098EC004400130360031247B38767023726032033
:1098FC001306068E09659305F5FDBA97A107860731
:10990C00B29783D60700ED8E2390D700A247CC43A5
:10991C00CDD194409C47B7E3ECFF969693860650C6
:10992C0083A20601BD030247B3F27200C205B7035E
:10993C000300B3F57500D207B703100023A8560037
:10994C00B3F7770083A20601CD8F4115931547001D
:10995C006D8DC98FB3E757009CCA0F00500583C7A4
:10996C00440012473604B3876702BA97A1078607EB
:10997C003E9683570600C18F93E707022310F6002B
:10998C000DBF938707028A079C430290034745004B
:10999C009306C006B72703203307D7029387078E99
:1099AC003E970CC7034745003307D702BA97D0C779
:1099BC008280411126C206C622C4034445002EC033
:1099CC00B2842285EFF0DF9805CD0245EFF08FC908
:1099DC00130760033304E402B72703209387078E31
:1099EC002A9421040604A29783D707003705AD0BF0
:1099FC00B5832380F400B24022449244410182801A
:109A0C003705AD0B1105C5BF211122C806CA26C6E4
:109A1C00834445009307C00637240320B387F40220
:109A2C009306048E2AC4BE96B85636C23AC035EF99
:109A3C00C1071304048E1306600481453305F4003A
:109A4C00EF20E01822439246024703250300B04E54
:109A5C00C545631DE6029307451423A007009C43EC
:109A6C0031811375F51FEFD04FBE0F0050059307D2
:109A7C00C006B384F40285473705AD0B26943CD45D
:109A8C003CD0D2404244B244610182809377F70FBC
:109A9C008A079386071089836397B700B387A6005C
:109AAC0023A007009C4305076DB73705AD0B3105A7
:109ABC00C9BF034745009306C006B72703203307E9
:109ACC00D7029387078EBA97A8573335A0008280A8
:109ADC006FF0DF94834745001307C006372503203A
:109AEC00B387E7021305058E9387C7053E956FF084
:109AFC008FB3834745001307C00637250320B38770
:109B0C00E7021305058E9387C7053E956FF06FAC82
:109B1C00311126C406C822C61841AA8432C00F00CF
:109B2C00F00F032747300F00A00AB7060200758F0D
:109B3C0011E718412322D7300F00500503C444000D
:109B4C002EC22285EFF0DF80924529CD2285EFF0E1
:109B5C00CFFC924521E92285EFF0EFF8984093165F
:109B6C0025001386061032972320070018430F0098
:109B7C005005984036978326075193E61600232804
:109B8C00D7500F005005824789CB98408547B39733
:109B9C00A7002322F7300F005005C2403244A244E4
:109BAC00510182802E852EC0EFF0CFAB13076003DE
:109BBC003304E402B72703209387078E8245B70648
:109BCC0003209386C6F513F7F501958113962500AE
:109BDC002A9421040604A29783D707001145898390
:109BEC009D8B6388A70415456380A7060F00A00A08
:109BFC00894763EDB704B387C6009C43DC470F006D
:109C0C00A00AB3D7E700858B89070F00A00AB2968C
:109C1C00131627009842C207329783260708370687
:109C2C00FDFF7D16F18ED58F2320F7080F00F00F66
:109C3C00ADB78D470F00A00A0945E37AB5FC1307B1
:109C4C0007020A071C4329A08947EDB78327C000E8
:109C5C0002906FF04FF3B72503209385058E37A53F
:109C6C000D506FF00FB9B72503209385C59437C5F8
:109C7C0010506FF00FB8311122C626C406C8034726
:109C8C008500AA840144E14636853AC236C0EFB05D
:109C9C00FFAE1247824605466317E50413072705F6
:109CAC001207B7270E50BA9723A607000F005005CE
:109CBC00B1463304D4029840B72703209387879B7F
:109CCC0085463E9458C4D84018C803C78400230A5C
:109CDC00E400B396E6009847558F98C7C2403244CB
:109CEC00A24451018280B317A60093C7F7FF050465
:109CFC00FD8E1374F40F49BF8547B397A70013F774
:109D0C00870111CF372703201307879B484313453F
:109D1C00F5FF61897D8D01C93705AD0B8280370553
:109D2C00AD0B210582803705AD0B11058280814773
:109D3C0001475CC118C1B7270E5083A70751898B07
:109D4C0085CBF3770430B7250E503707004003A6B8
:109D5C00057283A64572E3FCE6FE1397C6003183B9
:109D6C0010C158C1A18B73A007303705AD0B828091
:109D7C003705AD0B05058280AA8537250320130511
:109D8C00C59B6FF00F85511122C23724032006C4E6
:109D9C009307849B9C43A5EF1304849B9547014731
:109DAC00E14613F616003297FD171377F70F8582ED
:109DBC00EDFB89466311D7060D47230AE400B7264D
:109DCC000E5011472300E4028545938606101306B6
:109DDC00000313D727003397E500618B11C7338736
:109DEC00D7002320070018439107E394C7FE0F0008
:109DFC0050051305200EEFD04F850F0050058547F9
:109E0C001CC03705AD0BA2401244310182803705CE
:109E1C00AD0B3105CDBF3705AD0B0505EDB72111E8
:109E2C0022C826C606CAAA840345850036C02EC29F
:109E3C003284D935B707AD0BAA866311F5062AC44F
:109E4C002685EFF05FE37376043083C78400B72573
:109E5C000E508A0793870710AE9723A007009C43E8
:109E6C000F00500583C78400124732049207AE9747
:109E7C0023A0E752318023A287520F005005218A7C
:109E8C00732006308247A24691CB03C784008547D6
:109E9C00B397E70023A2F5300F005005D24042449F
:109EAC00B244368561018280311122C637240320E9
:109EBC0006C826C49307849BC4439C4793C4F4FFF1
:109ECC00E188FD8C0F00A00A814626871304849B31
:109EDC0025E70F0050050F00F00FB7270E5083A495
:109EEC000730F58C0F00A00A1307840103454401C9
:109EFC008547B397A700E58F85CB0323C400630583
:109F0C0003020F00F00FB7270E5093164500B697BB
:109F1C0003A6475283A507520F00A00A14480293C8
:109F2C00B72703201387079D3104E31187FCC24038
:109F3C003244A244510182803A8536C23AC0EFB015
:109F4C00FF83931725001383071005468983B317E6
:109F5C00F600B3F2970002479246B7250E50638C79
:109F6C0002002E9383220300638702002320030048
:109F7C0003230300DD8E3315A6001345F5FF698F0F
:109F8C0081BF05C5511122C226C006C42A84EFE048
:109F9C007FD1AA84EFE01FD1B3079540E3EC87FE95
:109FAC00A24012448244310182808280828001CDA1
:109FBC005845014583471700858B99C70345070012
:109FCC0013351500828001458280F377043001A09F
:109FDC00511122C206C42A84EFD08FAA370603205F
:109FEC0037F502201305055E130686F78545EFD07D
:109FFC00CFD72285D93F111122CA26C806CC6008BA
:10A00C00AA842326B4FEF37704302324F4FEB70786
:10A01C0003201387C779184791462328E4FE13873A
:10A02C00C77963E6A60EB70703209316250093871E
:10A03C008702B6979C43232224FE130141FD13068D
:10A04C00710083460701619A5CCE9307103023128E
:10A05C00F60237070320B7070001130787F99507A6
:10A06C0058CA04CE14D21CCA8D65B7F702201385CA
:10A07C00075E81464106938505C4EFD0CFD2832776
:10A08C0004FF032144FE99C73E85252101C5834762
:10A09C00050089E737050320130545D1232224FE4B
:10A0AC00130141FD13067100619AB70703209387D2
:10A0BC0007FC5CCA832704FF48CE89651CCE930736
:10A0CC0010302310F602B707000191071CCAB7F72E
:10A0DC0002201385075E8146410693850544EFD027
:10A0EC008FCC032144FE8325C4FE2685D5358327DA
:10A0FC0084FEA18B73A00730032504FFEF00304CC6
:10A10C00130144FEE2405244C24471018280B707FD
:10A11C000320938787F805B7511106C422C21C414E
:10A12C00404189EF014558448347170093E71700D6
:10A13C00A300F700A240124431018280228582974D
:10A14C0075D19357F5413D8D1D8D9307F00F63D459
:10A15C00A7001305F00F5C442380A700E9B7131781
:10A16C002500B707032005059387C7030A0551117E
:10A17C003E97AA9722C226C00043844306C4636755
:10A18C009400A24012448244310182805C4089C711
:10A19C00228559372104E5B71C408297E5BF011190
:10A1AC00B707032005470D4506CE238AE71422CCBA
:10A1BC0026CA7537EFD07FC13D2C114537F40220EC
:10A1CC00793FB7F402201303845B9384845B1304FC
:10A1DC00845B63689302EF00501963669406EF008A
:10A1EC00D01AEFB07F98B70703209387076603C791
:10A1FC00C700799B2386E700F2406244D244056194
:10A20C008280832743021AC83EC6832703023EC4BA
:10A21C008327C3013EC2832783013EC083274301AA
:10A22C00032703018326C3000326830083254300F1
:10A23C0003250300512442438327030023A0670412
:10A24C001303030379B710547D5754546314E60079
:10A25C006387C6003367D600084009E7A92C1304AE
:10A26C000403A5BFB7E70220938547A06105EF0063
:10A27C009052F5B76F10B01537050320B7070320C0
:10A28C001306850F9387C77B3386C740814513051B
:10A29C00850FCDB71303800601113303650226CA5F
:10A2AC00D144B70703209387875FB715032022CCCF
:10A2BC00B7D602202A849385052CB30495023E93CD
:10A2CC00B70703209387C779260502C602C0AA9553
:10A2DC00938646401A85BE9485473EC4BD473EC210
:10A2EC00268781471306002006CE1AC8F122424366
:10A2FC002388840005048347D3002E0423A664001E
:10A30C00ED9BA306F300B7170320938707AC3E948D
:10A31C00C0C0F2406244D244056182801301C1FD89
:10A32C00014506D022CE26CCEFF07FE30142EFC0F0
:10A33C00DFE1B7070320370403209387876C1307EB
:10A34C0010101304C4792396E7001CC423A6070439
:10A35C0023A8070423A00706EFF05FC50545EFF01F
:10A36C001FE00945EFF0BFDFEF00B007B7F70220A1
:10A37C0093874775B70403203EC6B7D6022085479E
:10A38C00B71503201383046601479386A61A130698
:10A39C0000409385054C3EC402C202C08147138520
:10A3AC000466232A6400092A138304668347D300B6
:10A3BC0013850466ED9BA306F30041230145D93DAB
:10A3CC00F37404300C44D557BCCD2EC8F37704304D
:10A3DC00EF00207FC2452ECA638CA50008C42AC892
:10A3EC00EF007025C247D2458942E84F7300000048
:10A3FC00A18873A004308280511106C4F377043015
:10A40C00EFD0FFF4E5BFAA87295509CA6368B600E7
:10A41C008CC7D0C79CC3DCC301458280828051119C
:10A42C0026C006C422C2AA8473740430B12D11CD87
:10A43C00232C05041923A2851244A240824437051B
:10A44C0003201305C57B31019DAD9844DC44218864
:10A45C00998FB337F000BA979CC473200430A24094
:10A46C001244824431018280AE863287F375043007
:10A47C001C4581CBFD171CC5A18973A00530014576
:10A48C008280B3E7C60091E7A18973A005304155DE
:10A49C0082802A86370503201305C57B8DA3B70759
:10A4AC00032003A5C7793335A0008280130580FAF9
:10A4BC0082800145828035A51301C1FD06D022CED4
:10A4CC0026CC2E83930545046CC12CC5B255930440
:10A4DC00F600C1982306B5009145A306B500A25518
:10A4EC0023240500A30705002307B500232C050032
:10A4FC00B3059300232E05002A8436CA3AC83EC6FB
:10A50C001AC42EC2EFD05FB82243924512563D05B5
:10A51C00B24741994247D24624C868C8B384A54083
:10A52C002326640432C0228526869A85EFD01FB07C
:10A53C00B70703209387C7799C47232004042685FB
:10A54C00BC533CD082507244E244130141028280DD
:10A55C000111A252425326CA16C49252B25402C6D8
:10A56C0016C2825222CC1AC816C006CE2A84A9372B
:10A57C00FD5742436394F40063079300B3E7640010
:10A58C0089EB2285B92BF24022856244D2440561C5
:10A59C008280B7E5022026869A86938545A013050E
:10A5AC008401EF00501FC5B758411C411CC3D8C3D0
:10A5BC0023200500232205008280511122C206C4EB
:10A5CC002A84DD378347D40023240400F59BA3069B
:10A5DC00F400A240124431018280511122C237048E
:10A5EC0003209307C47906C426C0844FB707032001
:10A5FC009387477B1304C4796383F40091E044444C
:10A60C001C4419E903C7D7007D8B19E783D6E700F3
:10A61C001307F0076368D7006385F4002685EF0005
:10A62C009001A6875CC8A24012448244310182800A
:10A63C00511122C206C48347D5002A84139787017F
:10A64C0061876357070093F7F707A306F500A93F47
:10A65C00B70703209387C7798847A240018D12441E
:10A66C0013351500310195BF311122C63704032073
:10A67C0026C49307C47906C8AE848C47D5571304F7
:10A68C00C479BCCDB70703209387C77B6384A7002D
:10A69C00F377043048482EC2638CA50008C42AC046
:10A6AC00EF006079024592458942684D73000000C5
:10A6BC00A18873A004301C44C2403244A84FA24469
:10A6CC00510182800347D50093178701E18763C44A
:10A6DC0007069377F701A5E31C4DB1EF136707F855
:10A6EC00A306E500370703209306C779904EB706FB
:10A6FC0003209386467B1307C7796303D600B28782
:10A70C00504F91E714C150C108C248CF31A88305FE
:10A71C00E5000383E700638C650063DA6500D843CA
:10A72C001CC158C108C3C8C301456FF01FEBE30B34
:10A73C00F6FC9C43F9B78280311122C626C406C8A8
:10A74C002EC02A84A14411E2C1448347D400B3F63D
:10A75C00F400B1EEC58F93968701E18663CD0606B2
:10A76C00A306F400A14705456399F4021C4481C774
:10A77C002285EFF09FE413058401EF00B0146440D0
:10A78C001307440463039700B9EC3707032013073E
:10A79C00C7791C4705456308F406EFF01FE40F006A
:10A7AC00F00F8347D40093F7F7F9A306F400B7072B
:10A7BC0003209387C7799847631187089C43B5EFAB
:10A7CC0032448245C240A244370503201305C57BA1
:10A7DC0051016FF07FE993F7F707A306F400228588
:10A7EC00EFF09FDC41B726853AC2EFF01FDD1385F1
:10A7FC008401EF00300D268523AC0404EFF09FECB0
:10A80C001247644041B71C43C9DBEFF01FDDB707AB
:10A81C0003201387C7791C4793061010FCCFB7078A
:10A82C0003209387876C2396D70023A6070423A8BD
:10A83C00070423A007061CC79DB7824793F4870023
:10A84C0073A00430C2403244A244510182805111A1
:10A85C0022C226C02A8406C4AE84EFF07FDD834773
:10A86C00D40093E72700A306F4008DCC04C49C40CD
:10A87C00639CF400DC4004C05CC080C3C0C01DA05D
:10A88C00D840E309F7FE9C43F5D70307E400838621
:10A89C00E700E307D7FEE355D7FED8431CC058C0EA
:10A8AC0000C3C0C3A24012448244310182805111C2
:10A8BC0022C206C48347D5002A8413978701618777
:10A8CC006358070093F7F707A306F500EFF0DFCD09
:10A8DC008347D40037070320B706032093E707F814
:10A8EC00A306F4009307C7799C4F9386467B130706
:10A8FC00C7796393D7008147504F91E714C050C07C
:10A90C0000C240CF31A88305E4000385E7006382D1
:10A91C00A50263D0A502D4431CC054C080C2C0C3DE
:10A92C000847A240018D12441335150031016FF018
:10A93C00DFCAE305F6FC9C43C9B7511106C422C219
:10A94C0073740430EFF01FD8218873200430A240B8
:10A95C00124431018280511122C22A84610506C43D
:10A96C00EF004076F37504308347D400C18B81CB64
:10A97C00A18973A00530A240124431018280228546
:10A98C001244A240014631016FF01FDB511106C485
:10A99C0022C2737404301C4599C3EFF01FC2218886
:10A9AC0073200430A240124431018280411106C64A
:10A9BC0022C426C2F37404308347D50093F7870270
:10A9CC0085E71C452A8489C72EC0EFF01FBF82453E
:10A9DC000347D4009377B70E99E19377B70FA3068B
:10A9EC00F4002285EFF01FCEA18873A00430B24092
:10A9FC0022449244410182808545211545BF1111A5
:10AA0C0022CA2EC006CC26C8B2853A84F37704300D
:10AA1C00B70703209387C7798847B68436C62AC2FE
:10AA2C003AC4EFF0DFE2FD56124532466395D4008E
:10AA3C00224763099700B7E50220A286938545A0BB
:10AA4C006105912B52448245E240C24437050320F4
:10AA5C001305C57B71016FF03FC1411106C622C4BD
:10AA6C00AA87737404300841638EA70009C52AC0F5
:10AA7C00EFF0BFB40245218873200430B240224469
:10AA8C00410182800145C5BF511106C422C226C0B6
:10AA9C00F374043000416302850219C42285EFF07F
:10AAAC00DFB113058401392DA18873A00430A240B5
:10AABC00228512448244310182800144F5B713F798
:10AACC00850009CFB70703209387C779944399E68C
:10AADC00D44B9C476384F6006FF01FB9732007308A
:10AAEC008280F37504300347D5009376470089E6DE
:10AAFC00A18973A005308280411106C66D9BA30607
:10AB0C00E5002EC0EFF01FBC8245B2403705032094
:10AB1C001305C57B41016FF09FFA411122C406C693
:10AB2C0026C2137485001DC8B70703209387C77905
:10AB3C0098430DE78C47D84B6302B7025557B8CDF5
:10AB4C0073770430C44B2EC0638A9500268584C766
:10AB5C00DD24E84C824589427300000073200430E8
:10AB6C00B2402244924441018280F377043037078B
:10AB7C0003201307C779144703C7F6007D17A38773
:10AB8C00E600A18B73A007308280511106C422C24B
:10AB9C0073740430B70703209387C779984701452E
:10ABAC0021888347F7008507A307F700EFF0FFA282
:10ABBC0073200430737504301244A24031016FF0DD
:10ABCC00DFF5B70703209387C779C84B8280B70797
:10ABDC0003209387C7799447D84BE8CE684F98C722
:10ABEC008280B7070320370703209387C7791307A1
:10ABFC00477B98CFD8CF8280411106C622C426C28B
:10AC0C00F3770430B70403201384C47908443EC09E
:10AC1C009384C4798347D50093F7F707A306F5000F
:10AC2C00EFF09F981C4483C6D70093E606F8A386E2
:10AC3C00D700184CB70603209386467B6313D700C6
:10AC4C000147D04C11E794C3D0C31CC2DCCC31A853
:10AC5C008385E7000305E7006387A50263D5A5029A
:10AC6C00544398C3D4C39CC25CC30545EFF0FF9614
:10AC7C0022448245B2409244370503201305C57B1C
:10AC8C0041016FF07F9EE300C7FC184365BF2111A3
:10AC9C0006CA22C826C6B367B50089E7EFF0DFF510
:10ACAC000145BDA8FD572A86AE8663C0F50863959D
:10ACBC00F500F957636BF50636C232C0B92B024664
:10ACCC0092463304A60036C432C2F37704303EC039
:10ACDC00B70703209384C7798844EFF07F958844A5
:10ACEC001246A246B7E50220938545A0610565246E
:10ACFC0098448245370503208347D7001305C57B4D
:10AD0C0093E70701A306F700EFF01F963923B3076B
:10AD1C00A4403334F4003304804059F03E85C9D349
:10AD2C00D2404244B244610182807954118C61BF9B
:10AD3C00511106C4FD56631FD500639DA500B707CE
:10AD4C0003209387C7798847EFF0FFC07D55A24059
:10AD5C0031018280EFF0BFF39307803EB305F5021B
:10AD6C002166130626A18146B317F502216513054A
:10AD7C0015A12E95B335B500BE95EFA0FFA3C1BFAD
:10AD8C00B70703209387C77988478280F37504300F
:10AD9C000347C500058B09CBA18973A0053011456C
:10ADAC0081427300000082808347D500A18B89C744
:10ADBC00A18973A00530828005466FF0FF976FF074
:10ADCC00FFFCB707032093870773B307F54037B72A
:10ADDC00AAAA1307B7AA8D87B387E7023707032000
:10ADEC0013070714BA9705472380E700828003579F
:10ADFC00E5009307F00763EEE702B707032083A78C
:10AE0C0087148DC7B707032003A747148306E500F3
:10AE1C00814763CDE6000347D5007D8B01EBB70777
:10AE2C0003209387875F1D8DB337A00013F51700A0
:10AE3C0082808147E5BF4111B707032026C283C436
:10AE4C00C77A22C461443384840237070320130772
:10AE5C0007732AC006C63A942285AD24370703200F
:10AE6C00024513070714B387E40023800700EFF0B3
:10AE7C001FF815C1B707032003A6871422852244A7
:10AE8C00B24092447D16B7E502209356F641938565
:10AE9C00E5DC410109A2B240224492444101828086
:10AEAC00511106C422C226C0F3740430B707032024
:10AEBC009387C77903C70701B70603209386061447
:10AECC0036970347070005C380472285EFF03FF212
:10AEDC0019C98347D400FD8B81E72285EFF03F9D94
:10AEEC002285EFF05FF5A18873A00430A2401244D4
:10AEFC00824431018280B707032083A7C71499E3EA
:10AF0C006FD0FFDC014582800DC5B72703209387E6
:10AF1C00C79FDC43630FF500184101CF1C4B14494C
:10AF2C004C49504BBE96B3B7F6002E96B29714CB45
:10AF3C005CCB58411C411CC3D8C3232005002322E1
:10AF4C00050082805111B727032006C422C29387C3
:10AF5C00C79F8043631BF400EFF0FFF937050080B7
:10AF6C007D15A240124431018280EFF0DFF87DD4D0
:10AF7C0018485C489356F5413305A7403337A70072
:10AF8C00958F998FE34CF0FC99E3E34905FCE3DAE8
:10AF9C0007FC0145F9B7311126C406C8AA8422C69C
:10AFAC007D553687B2876314A600638BC60E8CC49E
:10AFBC007374043063D50606FD556395B600F956D7
:10AFCC0063EFF604B706032083A7861083A6C6108A
:10AFDC00F955B387F540B3B5F50093C6F6FF8D8EE2
:10AFEC003385C740B3B7A700998E9D8E6346D000BA
